{
  "abi": [
    {
      "inputs": [
        {
          "internalType": "uint256",
          "name": "_fee",
          "type": "uint256"
        }
      ],
      "stateMutability": "nonpayable",
      "type": "constructor"
    },
    {
      "anonymous": false,
      "inputs": [
        {
          "indexed": true,
          "internalType": "address",
          "name": "exchange",
          "type": "address"
        },
        {
          "indexed": true,
          "internalType": "address",
          "name": "user",
          "type": "address"
        },
        {
          "indexed": true,
          "internalType": "uint256",
          "name": "sharesBurned",
          "type": "uint256"
        },
        {
          "indexed": false,
          "internalType": "uint256",
          "name": "ethDivested",
          "type": "uint256"
        },
        {
          "indexed": false,
          "internalType": "uint256",
          "name": "tokensDivested",
          "type": "uint256"
        }
      ],
      "name": "Divestment",
      "type": "event"
    },
    {
      "anonymous": false,
      "inputs": [
        {
          "indexed": true,
          "internalType": "address",
          "name": "exchange",
          "type": "address"
        },
        {
          "indexed": true,
          "internalType": "address",
          "name": "user",
          "type": "address"
        },
        {
          "indexed": true,
          "internalType": "address",
          "name": "recipient",
          "type": "address"
        },
        {
          "indexed": false,
          "internalType": "uint256",
          "name": "tokensIn",
          "type": "uint256"
        },
        {
          "indexed": false,
          "internalType": "uint256",
          "name": "ethOut",
          "type": "uint256"
        }
      ],
      "name": "EthPurchase",
      "type": "event"
    },
    {
      "anonymous": false,
      "inputs": [
        {
          "indexed": true,
          "internalType": "address",
          "name": "exchange",
          "type": "address"
        },
        {
          "indexed": true,
          "internalType": "address",
          "name": "user",
          "type": "address"
        },
        {
          "indexed": true,
          "internalType": "uint256",
          "name": "sharesPurchased",
          "type": "uint256"
        },
        {
          "indexed": false,
          "internalType": "uint256",
          "name": "ethInvested",
          "type": "uint256"
        },
        {
          "indexed": false,
          "internalType": "uint256",
          "name": "tokensInvested",
          "type": "uint256"
        }
      ],
      "name": "Investment",
      "type": "event"
    },
    {
      "anonymous": false,
      "inputs": [
        {
          "indexed": true,
          "internalType": "address",
          "name": "exchange",
          "type": "address"
        },
        {
          "indexed": true,
          "internalType": "address",
          "name": "user",
          "type": "address"
        },
        {
          "indexed": true,
          "internalType": "address",
          "name": "recipient",
          "type": "address"
        },
        {
          "indexed": false,
          "internalType": "uint256",
          "name": "ethIn",
          "type": "uint256"
        },
        {
          "indexed": false,
          "internalType": "uint256",
          "name": "tokensOut",
          "type": "uint256"
        }
      ],
      "name": "TokenPurchase",
      "type": "event"
    },
    {
      "anonymous": false,
      "inputs": [
        {
          "indexed": true,
          "internalType": "address",
          "name": "exchange",
          "type": "address"
        },
        {
          "indexed": true,
          "internalType": "address",
          "name": "user",
          "type": "address"
        },
        {
          "indexed": false,
          "internalType": "address",
          "name": "recipient",
          "type": "address"
        },
        {
          "indexed": true,
          "internalType": "address",
          "name": "tokenExchangeAddress",
          "type": "address"
        },
        {
          "indexed": false,
          "internalType": "uint256",
          "name": "tokensIn",
          "type": "uint256"
        },
        {
          "indexed": false,
          "internalType": "uint256",
          "name": "ethTransfer",
          "type": "uint256"
        }
      ],
      "name": "TokenToToken",
      "type": "event"
    },
    {
      "inputs": [
        {
          "internalType": "address",
          "name": "tokenAddress",
          "type": "address"
        },
        {
          "internalType": "uint256",
          "name": "shares",
          "type": "uint256"
        }
      ],
      "name": "divest",
      "outputs": [],
      "stateMutability": "nonpayable",
      "type": "function"
    },
    {
      "inputs": [
        {
          "internalType": "address",
          "name": "tokenAddress",
          "type": "address"
        },
        {
          "internalType": "address",
          "name": "recipient",
          "type": "address"
        },
        {
          "internalType": "uint256",
          "name": "minTokensOut",
          "type": "uint256"
        }
      ],
      "name": "ethToToken",
      "outputs": [
        {
          "internalType": "uint256",
          "name": "tokensPaid",
          "type": "uint256"
        }
      ],
      "stateMutability": "payable",
      "type": "function"
    },
    {
      "inputs": [],
      "name": "exchangeCount",
      "outputs": [
        {
          "internalType": "uint256",
          "name": "",
          "type": "uint256"
        }
      ],
      "stateMutability": "view",
      "type": "function"
    },
    {
      "inputs": [
        {
          "internalType": "address",
          "name": "",
          "type": "address"
        }
      ],
      "name": "exchanges",
      "outputs": [
        {
          "internalType": "contract IERC20",
          "name": "token",
          "type": "address"
        },
        {
          "internalType": "uint256",
          "name": "ethPool",
          "type": "uint256"
        },
        {
          "internalType": "uint256",
          "name": "tokenPool",
          "type": "uint256"
        },
        {
          "internalType": "uint256",
          "name": "totalShares",
          "type": "uint256"
        }
      ],
      "stateMutability": "view",
      "type": "function"
    },
    {
      "inputs": [],
      "name": "feeRate",
      "outputs": [
        {
          "internalType": "uint256",
          "name": "",
          "type": "uint256"
        }
      ],
      "stateMutability": "view",
      "type": "function"
    },
    {
      "inputs": [
        {
          "internalType": "address",
          "name": "tokenAddress",
          "type": "address"
        },
        {
          "internalType": "uint256",
          "name": "ethValue",
          "type": "uint256"
        }
      ],
      "name": "getEthToTokenQuote",
      "outputs": [
        {
          "internalType": "uint256",
          "name": "tokenQuote",
          "type": "uint256"
        }
      ],
      "stateMutability": "view",
      "type": "function"
    },
    {
      "inputs": [
        {
          "internalType": "address",
          "name": "tokenAddress",
          "type": "address"
        },
        {
          "internalType": "address",
          "name": "investor",
          "type": "address"
        }
      ],
      "name": "getShares",
      "outputs": [
        {
          "internalType": "uint256",
          "name": "shareCount",
          "type": "uint256"
        }
      ],
      "stateMutability": "view",
      "type": "function"
    },
    {
      "inputs": [
        {
          "internalType": "address",
          "name": "tokenAddress",
          "type": "address"
        },
        {
          "internalType": "uint256",
          "name": "tokenValue",
          "type": "uint256"
        }
      ],
      "name": "getTokenToEthQuote",
      "outputs": [
        {
          "internalType": "uint256",
          "name": "ethQuote",
          "type": "uint256"
        }
      ],
      "stateMutability": "view",
      "type": "function"
    },
    {
      "inputs": [
        {
          "internalType": "address",
          "name": "tokenAddress",
          "type": "address"
        },
        {
          "internalType": "uint256",
          "name": "maxTokensInvested",
          "type": "uint256"
        }
      ],
      "name": "invest",
      "outputs": [],
      "stateMutability": "payable",
      "type": "function"
    },
    {
      "inputs": [
        {
          "internalType": "address",
          "name": "tokenAddress",
          "type": "address"
        },
        {
          "internalType": "uint256",
          "name": "ethPaid",
          "type": "uint256"
        }
      ],
      "name": "investQuoteFromEth",
      "outputs": [
        {
          "internalType": "uint256",
          "name": "tokensRequired",
          "type": "uint256"
        }
      ],
      "stateMutability": "view",
      "type": "function"
    },
    {
      "inputs": [
        {
          "internalType": "address",
          "name": "tokenAddress",
          "type": "address"
        },
        {
          "internalType": "uint256",
          "name": "tokensPaid",
          "type": "uint256"
        }
      ],
      "name": "investQuoteFromTokens",
      "outputs": [
        {
          "internalType": "uint256",
          "name": "ethRequired",
          "type": "uint256"
        }
      ],
      "stateMutability": "view",
      "type": "function"
    },
    {
      "inputs": [
        {
          "internalType": "address",
          "name": "tokenAddress",
          "type": "address"
        },
        {
          "internalType": "uint256",
          "name": "tokenInvestment",
          "type": "uint256"
        }
      ],
      "name": "seedInvest",
      "outputs": [],
      "stateMutability": "payable",
      "type": "function"
    },
    {
      "inputs": [
        {
          "internalType": "address",
          "name": "tokenAddress",
          "type": "address"
        },
        {
          "internalType": "address",
          "name": "recipient",
          "type": "address"
        },
        {
          "internalType": "uint256",
          "name": "tokensIn",
          "type": "uint256"
        },
        {
          "internalType": "uint256",
          "name": "minEthOut",
          "type": "uint256"
        }
      ],
      "name": "tokenToEth",
      "outputs": [
        {
          "internalType": "uint256",
          "name": "ethPaid",
          "type": "uint256"
        }
      ],
      "stateMutability": "nonpayable",
      "type": "function"
    },
    {
      "inputs": [
        {
          "internalType": "address",
          "name": "tokenFromAddress",
          "type": "address"
        },
        {
          "internalType": "address",
          "name": "recipient",
          "type": "address"
        },
        {
          "internalType": "address",
          "name": "tokenToAddress",
          "type": "address"
        },
        {
          "internalType": "uint256",
          "name": "tokensIn",
          "type": "uint256"
        },
        {
          "internalType": "uint256",
          "name": "minTokensOut",
          "type": "uint256"
        }
      ],
      "name": "tokenToToken",
      "outputs": [
        {
          "internalType": "uint256",
          "name": "tokensPaid",
          "type": "uint256"
        }
      ],
      "stateMutability": "nonpayable",
      "type": "function"
    }
  ],
  "bytecode": "608060405234801561001057600080fd5b506040516117b83803806117b883398101604081905261002f91610037565b600055610050565b60006020828403121561004957600080fd5b5051919050565b6117598061005f6000396000f3fe6080604052600436106100dc5760003560e01c8063b9b8c2461161007f578063d1ff465f11610059578063d1ff465f14610297578063e437ab1a146102aa578063ea16e6d1146102ca578063f0b2cc89146102ea57600080fd5b8063b9b8c24614610242578063babd9add14610257578063bb5043171461027757600080fd5b806373e10d1d116100bb57806373e10d1d146101745780637412dbb314610194578063978bbdb91461020c578063aff8e1e91461022257600080fd5b8062392040146100e15780635d44a8781461013e57806368972e501461015e575b600080fd5b3480156100ed57600080fd5b5061012b6100fc36600461150c565b6001600160a01b0391821660009081526002602090815260408083209390941682526003909201909152205490565b6040519081526020015b60405180910390f35b34801561014a57600080fd5b5061012b61015936600461153f565b6102fd565b34801561016a57600080fd5b5061012b60015481565b34801561018057600080fd5b5061012b61018f366004611569565b61033d565b3480156101a057600080fd5b506101e26101af3660046115ab565b600260208190526000918252604090912080546001820154928201546004909201546001600160a01b0390911692919084565b604080516001600160a01b0390951685526020850193909352918301526060820152608001610135565b34801561021857600080fd5b5061012b60005481565b34801561022e57600080fd5b5061012b61023d3660046115c6565b6104db565b61025561025036600461153f565b6107da565b005b34801561026357600080fd5b5061012b61027236600461153f565b610a49565b34801561028357600080fd5b5061025561029236600461153f565b610b09565b6102556102a536600461153f565b610d92565b3480156102b657600080fd5b5061012b6102c536600461153f565b610f87565b3480156102d657600080fd5b5061012b6102e536600461153f565b61103e565b61012b6102f836600461161b565b61106b565b6001600160a01b038216600090815260026020819052604082209081015460019091015461032c90849061166d565b610336919061168c565b9392505050565b6001600160a01b038416600090815260026020526040812060010154859061036457600080fd5b6001600160a01b03808716600090815260026020526040908190205490516323b872dd60e01b81529116906323b872dd906103a7903390309089906004016116ae565b6020604051808303816000875af11580156103c6573d6000803e3d6000fd5b505050506040513d601f19601f820116820180604052508101906103ea91906116d2565b6104325760405162461bcd60e51b8152602060048201526014602482015273151adb881253881d1c985b9cd9995c8819985a5b60621b60448201526064015b60405180910390fd5b600061043e8786611206565b9050838110156104865760405162461bcd60e51b8152602060048201526013602482015272195d1a14185a59080f081b5a5b915d1a13dd5d606a1b6044820152606401610429565b60408051868152602081018390526001600160a01b03808916923392918b16917f97bfba06b59241fc2569e88f8ba5ecaec27a619b54ee2efbec2520ff355e7017910160405180910390a49695505050505050565b6001600160a01b038516600090815260026020526040812060010154869061050257600080fd5b6001600160a01b038516600090815260026020526040902060010154859061052957600080fd5b6001600160a01b03808916600090815260026020526040908190205490516323b872dd60e01b81529116906323b872dd9061056c90339030908a906004016116ae565b6020604051808303816000875af115801561058b573d6000803e3d6000fd5b505050506040513d601f19601f820116820180604052508101906105af91906116d2565b6105f25760405162461bcd60e51b8152602060048201526014602482015273151adb881253881d1c985b9cd9995c8819985a5b60621b6044820152606401610429565b60006105fe8987611206565b9050600081116106505760405162461bcd60e51b815260206004820152601c60248201527f4e6f7420656e6f75676820746f6b656e7320696e207061696420696e000000006044820152606401610429565b600061065c8883611385565b9050858110156106ae5760405162461bcd60e51b815260206004820152601d60248201527f4f7574707574206c657373207468616e206d696e546f6b656e734f75740000006044820152606401610429565b6001600160a01b038881166000908152600260205260409081902054905163a9059cbb60e01b81528b831660048201526024810184905291169063a9059cbb906044016020604051808303816000875af1158015610710573d6000803e3d6000fd5b505050506040513d601f19601f8201168201806040525081019061073491906116d2565b6107785760405162461bcd60e51b8152602060048201526015602482015274151adb8813d555081d1c985b9cd9995c8819985a5b605a1b6044820152606401610429565b604080516001600160a01b038b81168252602082018a9052918101849052818a16913391908d16907fac8b5664c4b0363f57887bb10dfce39395a15b308bb7395ae2dcff238ae01c1b9060600160405180910390a49998505050505050505050565b6001600160a01b03821660009081526002602081905260408220600181015491015461080790349061166d565b610811919061168c565b9050808210156108635760405162461bcd60e51b815260206004820152601960248201527f4d6178203c20726571756972656420696e766573746d656e74000000000000006044820152606401610429565b6001600160a01b03808416600090815260026020526040908190205490516323b872dd60e01b81529116906323b872dd906108a6903390309086906004016116ae565b6020604051808303816000875af11580156108c5573d6000803e3d6000fd5b505050506040513d601f19601f820116820180604052508101906108e991906116d2565b6108f257600080fd5b6001600160a01b0383166000908152600260208190526040822090810154600490910154610920908461166d565b61092a919061168c565b6001600160a01b03851660009081526002602052604081206001018054929350349290919061095a9084906116f4565b90915550506001600160a01b0384166000908152600260208190526040822001805484929061098a9084906116f4565b90915550506001600160a01b0384166000908152600260209081526040808320338452600301909152812080548392906109c59084906116f4565b90915550506001600160a01b038416600090815260026020526040812060040180548392906109f59084906116f4565b90915550506040805134815260208101849052829133916001600160a01b038816917f70036a0c8aff04c45115532a9615c7b3cffa827060e25df65bc670ea80d856ed91015b60405180910390a450505050565b60008060005483610a5a919061168c565b6001600160a01b03851660009081526002602081905260408220015491925090610a859085906116f4565b6001600160a01b03861660009081526002602081905260408220908101546001909101549293509091610ab8919061166d565b9050610ac4838361170c565b610ace908261168c565b610ad99060016116f4565b6001600160a01b038716600090815260026020526040902060010154610aff919061170c565b9695505050505050565b6001600160a01b0382166000908152600260209081526040808320338452600301909152902054811115610b7f5760405162461bcd60e51b815260206004820152601b60248201527f4e6f7420656e6f7567682073686172657320746f2064697665737400000000006044820152606401610429565b6001600160a01b03821660009081526002602052604081206004810154600190910154610bad90849061166d565b610bb7919061168c565b6001600160a01b0384166000908152600260208190526040822060048101549101549293509091610be990859061166d565b610bf3919061168c565b6001600160a01b038581166000908152600260205260409081902054905163a9059cbb60e01b815233600482015260248101849052929350169063a9059cbb906044016020604051808303816000875af1158015610c55573d6000803e3d6000fd5b505050506040513d601f19601f82011682018060405250810190610c7991906116d2565b610c8257600080fd5b6001600160a01b03841660009081526002602052604081206001018054849290610cad90849061170c565b90915550506001600160a01b03841660009081526002602081905260408220018054839290610cdd90849061170c565b90915550506001600160a01b038416600090815260026020908152604080832033845260030190915281208054859290610d1890849061170c565b90915550506001600160a01b03841660009081526002602052604081206004018054859290610d4890849061170c565b90915550506040805183815260208101839052849133916001600160a01b038816917fdad7796df9a6c41d40041fd7a4ceddf72d437f4368688e1c1a69a07244fb66329101610a3b565b6001600160a01b03821660009081526002602052604090206004015415610e1a5760405162461bcd60e51b815260206004820152603660248201527f4c697175696469747920706f6f6c20697320616c7265616479207365656465646044820152750b081d5cd9481a5b9d995cdd0a0a481a5b9cdd19585960521b6064820152608401610429565b600081118015610e2a5750600034115b610e765760405162461bcd60e51b815260206004820152601a60248201527f4d75737420696e766573742045544820616e6420746f6b656e730000000000006044820152606401610429565b6001600160a01b03808316600090815260026020526040908190205490516323b872dd60e01b81529116906323b872dd90610eb9903390309086906004016116ae565b6020604051808303816000875af1158015610ed8573d6000803e3d6000fd5b505050506040513d601f19601f82011682018060405250810190610efc91906116d2565b506001600160a01b0382166000818152600260208181526040808420808401879055346001820181905533808752600383018552838720612710908190559688905294845260049091018590558151908152918201869052929391927f70036a0c8aff04c45115532a9615c7b3cffa827060e25df65bc670ea80d856ed910160405180910390a45050565b60008060005483610f98919061168c565b6001600160a01b03851660009081526002602052604081206001015491925090610fc39085906116f4565b6001600160a01b03861660009081526002602081905260408220908101546001909101549293509091610ff6919061166d565b9050611002838361170c565b61100c908261168c565b6110179060016116f4565b6001600160a01b03871660009081526002602081905260409091200154610aff919061170c565b6001600160a01b03821660009081526002602081905260408220600181015491015461032c90849061166d565b6001600160a01b038316600090815260026020526040812060010154849061109257600080fd5b600061109e8634611385565b9050838110156110e85760405162461bcd60e51b81526020600482015260156024820152741d1adb9cd4185a59080f081b5a5b951adb9cd3dd5d605a1b6044820152606401610429565b60408051348152602081018390526001600160a01b03808816923392918a16917fd1508eb33cb2ff0cd96cf67f00ab2c6b7fc5142d97832add4b29748b29111024910160405180910390a46001600160a01b038681166000908152600260205260409081902054905163a9059cbb60e01b815287831660048201526024810184905291169063a9059cbb906044016020604051808303816000875af1158015611195573d6000803e3d6000fd5b505050506040513d601f19601f820116820180604052508101906111b991906116d2565b6111fd5760405162461bcd60e51b8152602060048201526015602482015274151adb8813d555081d1c985b9cd9995c8819985a5b605a1b6044820152606401610429565b95945050505050565b60008060005483611217919061168c565b90508260026000866001600160a01b03166001600160a01b03168152602001908152602001600020600201600082825461125191906116f4565b90915550506001600160a01b0384166000908152600260208190526040822090810154600190910154611284919061166d565b6001600160a01b038616600090815260026020819052604082200154919250906112af90849061170c565b6112b9908361168c565b6112c49060016116f4565b6001600160a01b0387166000908152600260205260409020600101546112ea919061170c565b6001600160a01b03871660009081526002602052604090206001015490915081111561134b5760405162461bcd60e51b815260206004820152601060248201526f098c2c6d6d2dcce40e0deded840cae8d60831b6044820152606401610429565b6001600160a01b0386166000908152600260205260408120600101805483929061137690849061170c565b90915550909695505050505050565b60008060005483611396919061168c565b6001600160a01b0385166000908152600260205260408120600101805492935085929091906113c69084906116f4565b90915550506001600160a01b03841660009081526002602081905260408220908101546001909101546113f9919061166d565b6001600160a01b0386166000908152600260205260408120600101549192509061142490849061170c565b61142e908361168c565b6114399060016116f4565b6001600160a01b03871660009081526002602081905260409091200154611460919061170c565b6001600160a01b038716600090815260026020819052604090912001549091508111156114c55760405162461bcd60e51b81526020600482015260136024820152724c61636b696e6720706f6f6c20746f6b656e7360681b6044820152606401610429565b6001600160a01b0386166000908152600260208190526040822001805483929061137690849061170c565b80356001600160a01b038116811461150757600080fd5b919050565b6000806040838503121561151f57600080fd5b611528836114f0565b9150611536602084016114f0565b90509250929050565b6000806040838503121561155257600080fd5b61155b836114f0565b946020939093013593505050565b6000806000806080858703121561157f57600080fd5b611588856114f0565b9350611596602086016114f0565b93969395505050506040820135916060013590565b6000602082840312156115bd57600080fd5b610336826114f0565b600080600080600060a086880312156115de57600080fd5b6115e7866114f0565b94506115f5602087016114f0565b9350611603604087016114f0565b94979396509394606081013594506080013592915050565b60008060006060848603121561163057600080fd5b611639846114f0565b9250611647602085016114f0565b9150604084013590509250925092565b634e487b7160e01b600052601160045260246000fd5b600081600019048311821515161561168757611687611657565b500290565b6000826116a957634e487b7160e01b600052601260045260246000fd5b500490565b6001600160a01b039384168152919092166020820152604081019190915260600190565b6000602082840312156116e457600080fd5b8151801515811461033657600080fd5b6000821982111561170757611707611657565b500190565b60008282101561171e5761171e611657565b50039056fea26469706673582212207ce263095de2c9a123cfd488016a2ee63b6023060174cb25773f328317f574c964736f6c634300080a0033",
  "bytecodeSha1": "a5478b0e68044c0137208385c2cb85e23eb1b6a5",
  "compiler": {
    "evm_version": "istanbul",
    "optimizer": {
      "enabled": true,
      "runs": 200
    },
    "version": "0.8.10+commit.fc410830"
  },
  "contractName": "MiniSwap",
  "language": "Solidity",
  "natspec": {
    "kind": "dev",
    "methods": {},
    "version": 1
  },
  "opcodes": "PUSH1 0x80 PUSH1 0x40 MSTORE PUSH1 0x4 CALLDATASIZE LT PUSH2 0xDC JUMPI PUSH1 0x0 CALLDATALOAD PUSH1 0xE0 SHR DUP1 PUSH4 0xB9B8C246 GT PUSH2 0x7F JUMPI DUP1 PUSH4 0xD1FF465F GT PUSH2 0x59 JUMPI DUP1 PUSH4 0xD1FF465F EQ PUSH2 0x297 JUMPI DUP1 PUSH4 0xE437AB1A EQ PUSH2 0x2AA JUMPI DUP1 PUSH4 0xEA16E6D1 EQ PUSH2 0x2CA JUMPI DUP1 PUSH4 0xF0B2CC89 EQ PUSH2 0x2EA JUMPI PUSH1 0x0 DUP1 REVERT JUMPDEST DUP1 PUSH4 0xB9B8C246 EQ PUSH2 0x242 JUMPI DUP1 PUSH4 0xBABD9ADD EQ PUSH2 0x257 JUMPI DUP1 PUSH4 0xBB504317 EQ PUSH2 0x277 JUMPI PUSH1 0x0 DUP1 REVERT JUMPDEST DUP1 PUSH4 0x73E10D1D GT PUSH2 0xBB JUMPI DUP1 PUSH4 0x73E10D1D EQ PUSH2 0x174 JUMPI DUP1 PUSH4 0x7412DBB3 EQ PUSH2 0x194 JUMPI DUP1 PUSH4 0x978BBDB9 EQ PUSH2 0x20C JUMPI DUP1 PUSH4 0xAFF8E1E9 EQ PUSH2 0x222 JUMPI PUSH1 0x0 DUP1 REVERT JUMPDEST DUP1 PUSH3 0x392040 EQ PUSH2 0xE1 JUMPI DUP1 PUSH4 0x5D44A878 EQ PUSH2 0x13E JUMPI DUP1 PUSH4 0x68972E50 EQ PUSH2 0x15E JUMPI JUMPDEST PUSH1 0x0 DUP1 REVERT JUMPDEST CALLVALUE DUP1 ISZERO PUSH2 0xED JUMPI PUSH1 0x0 DUP1 REVERT JUMPDEST POP PUSH2 0x12B PUSH2 0xFC CALLDATASIZE PUSH1 0x4 PUSH2 0x150C JUMP JUMPDEST PUSH1 0x1 PUSH1 0x1 PUSH1 0xA0 SHL SUB SWAP2 DUP3 AND PUSH1 0x0 SWAP1 DUP2 MSTORE PUSH1 0x2 PUSH1 0x20 SWAP1 DUP2 MSTORE PUSH1 0x40 DUP1 DUP4 KECCAK256 SWAP4 SWAP1 SWAP5 AND DUP3 MSTORE PUSH1 0x3 SWAP1 SWAP3 ADD SWAP1 SWAP2 MSTORE KECCAK256 SLOAD SWAP1 JUMP JUMPDEST PUSH1 0x40 MLOAD SWAP1 DUP2 MSTORE PUSH1 0x20 ADD JUMPDEST PUSH1 0x40 MLOAD DUP1 SWAP2 SUB SWAP1 RETURN JUMPDEST CALLVALUE DUP1 ISZERO PUSH2 0x14A JUMPI PUSH1 0x0 DUP1 REVERT JUMPDEST POP PUSH2 0x12B PUSH2 0x159 CALLDATASIZE PUSH1 0x4 PUSH2 0x153F JUMP JUMPDEST PUSH2 0x2FD JUMP JUMPDEST CALLVALUE DUP1 ISZERO PUSH2 0x16A JUMPI PUSH1 0x0 DUP1 REVERT JUMPDEST POP PUSH2 0x12B PUSH1 0x1 SLOAD DUP2 JUMP JUMPDEST CALLVALUE DUP1 ISZERO PUSH2 0x180 JUMPI PUSH1 0x0 DUP1 REVERT JUMPDEST POP PUSH2 0x12B PUSH2 0x18F CALLDATASIZE PUSH1 0x4 PUSH2 0x1569 JUMP JUMPDEST PUSH2 0x33D JUMP JUMPDEST CALLVALUE DUP1 ISZERO PUSH2 0x1A0 JUMPI PUSH1 0x0 DUP1 REVERT JUMPDEST POP PUSH2 0x1E2 PUSH2 0x1AF CALLDATASIZE PUSH1 0x4 PUSH2 0x15AB JUMP JUMPDEST PUSH1 0x2 PUSH1 0x20 DUP2 SWAP1 MSTORE PUSH1 0x0 SWAP2 DUP3 MSTORE PUSH1 0x40 SWAP1 SWAP2 KECCAK256 DUP1 SLOAD PUSH1 0x1 DUP3 ADD SLOAD SWAP3 DUP3 ADD SLOAD PUSH1 0x4 SWAP1 SWAP3 ADD SLOAD PUSH1 0x1 PUSH1 0x1 PUSH1 0xA0 SHL SUB SWAP1 SWAP2 AND SWAP3 SWAP2 SWAP1 DUP5 JUMP JUMPDEST PUSH1 0x40 DUP1 MLOAD PUSH1 0x1 PUSH1 0x1 PUSH1 0xA0 SHL SUB SWAP1 SWAP6 AND DUP6 MSTORE PUSH1 0x20 DUP6 ADD SWAP4 SWAP1 SWAP4 MSTORE SWAP2 DUP4 ADD MSTORE PUSH1 0x60 DUP3 ADD MSTORE PUSH1 0x80 ADD PUSH2 0x135 JUMP JUMPDEST CALLVALUE DUP1 ISZERO PUSH2 0x218 JUMPI PUSH1 0x0 DUP1 REVERT JUMPDEST POP PUSH2 0x12B PUSH1 0x0 SLOAD DUP2 JUMP JUMPDEST CALLVALUE DUP1 ISZERO PUSH2 0x22E JUMPI PUSH1 0x0 DUP1 REVERT JUMPDEST POP PUSH2 0x12B PUSH2 0x23D CALLDATASIZE PUSH1 0x4 PUSH2 0x15C6 JUMP JUMPDEST PUSH2 0x4DB JUMP JUMPDEST PUSH2 0x255 PUSH2 0x250 CALLDATASIZE PUSH1 0x4 PUSH2 0x153F JUMP JUMPDEST PUSH2 0x7DA JUMP JUMPDEST STOP JUMPDEST CALLVALUE DUP1 ISZERO PUSH2 0x263 JUMPI PUSH1 0x0 DUP1 REVERT JUMPDEST POP PUSH2 0x12B PUSH2 0x272 CALLDATASIZE PUSH1 0x4 PUSH2 0x153F JUMP JUMPDEST PUSH2 0xA49 JUMP JUMPDEST CALLVALUE DUP1 ISZERO PUSH2 0x283 JUMPI PUSH1 0x0 DUP1 REVERT JUMPDEST POP PUSH2 0x255 PUSH2 0x292 CALLDATASIZE PUSH1 0x4 PUSH2 0x153F JUMP JUMPDEST PUSH2 0xB09 JUMP JUMPDEST PUSH2 0x255 PUSH2 0x2A5 CALLDATASIZE PUSH1 0x4 PUSH2 0x153F JUMP JUMPDEST PUSH2 0xD92 JUMP JUMPDEST CALLVALUE DUP1 ISZERO PUSH2 0x2B6 JUMPI PUSH1 0x0 DUP1 REVERT JUMPDEST POP PUSH2 0x12B PUSH2 0x2C5 CALLDATASIZE PUSH1 0x4 PUSH2 0x153F JUMP JUMPDEST PUSH2 0xF87 JUMP JUMPDEST CALLVALUE DUP1 ISZERO PUSH2 0x2D6 JUMPI PUSH1 0x0 DUP1 REVERT JUMPDEST POP PUSH2 0x12B PUSH2 0x2E5 CALLDATASIZE PUSH1 0x4 PUSH2 0x153F JUMP JUMPDEST PUSH2 0x103E JUMP JUMPDEST PUSH2 0x12B PUSH2 0x2F8 CALLDATASIZE PUSH1 0x4 PUSH2 0x161B JUMP JUMPDEST PUSH2 0x106B JUMP JUMPDEST PUSH1 0x1 PUSH1 0x1 PUSH1 0xA0 SHL SUB DUP3 AND PUSH1 0x0 SWAP1 DUP2 MSTORE PUSH1 0x2 PUSH1 0x20 DUP2 SWAP1 MSTORE PUSH1 0x40 DUP3 KECCAK256 SWAP1 DUP2 ADD SLOAD PUSH1 0x1 SWAP1 SWAP2 ADD SLOAD PUSH2 0x32C SWAP1 DUP5 SWAP1 PUSH2 0x166D JUMP JUMPDEST PUSH2 0x336 SWAP2 SWAP1 PUSH2 0x168C JUMP JUMPDEST SWAP4 SWAP3 POP POP POP JUMP JUMPDEST PUSH1 0x1 PUSH1 0x1 PUSH1 0xA0 SHL SUB DUP5 AND PUSH1 0x0 SWAP1 DUP2 MSTORE PUSH1 0x2 PUSH1 0x20 MSTORE PUSH1 0x40 DUP2 KECCAK256 PUSH1 0x1 ADD SLOAD DUP6 SWAP1 PUSH2 0x364 JUMPI PUSH1 0x0 DUP1 REVERT JUMPDEST PUSH1 0x1 PUSH1 0x1 PUSH1 0xA0 SHL SUB DUP1 DUP8 AND PUSH1 0x0 SWAP1 DUP2 MSTORE PUSH1 0x2 PUSH1 0x20 MSTORE PUSH1 0x40 SWAP1 DUP2 SWAP1 KECCAK256 SLOAD SWAP1 MLOAD PUSH4 0x23B872DD PUSH1 0xE0 SHL DUP2 MSTORE SWAP2 AND SWAP1 PUSH4 0x23B872DD SWAP1 PUSH2 0x3A7 SWAP1 CALLER SWAP1 ADDRESS SWAP1 DUP10 SWAP1 PUSH1 0x4 ADD PUSH2 0x16AE JUMP JUMPDEST PUSH1 0x20 PUSH1 0x40 MLOAD DUP1 DUP4 SUB DUP2 PUSH1 0x0 DUP8 GAS CALL ISZERO DUP1 ISZERO PUSH2 0x3C6 JUMPI RETURNDATASIZE PUSH1 0x0 DUP1 RETURNDATACOPY RETURNDATASIZE PUSH1 0x0 REVERT JUMPDEST POP POP POP POP PUSH1 0x40 MLOAD RETURNDATASIZE PUSH1 0x1F NOT PUSH1 0x1F DUP3 ADD AND DUP3 ADD DUP1 PUSH1 0x40 MSTORE POP DUP2 ADD SWAP1 PUSH2 0x3EA SWAP2 SWAP1 PUSH2 0x16D2 JUMP JUMPDEST PUSH2 0x432 JUMPI PUSH1 0x40 MLOAD PUSH3 0x461BCD PUSH1 0xE5 SHL DUP2 MSTORE PUSH1 0x20 PUSH1 0x4 DUP3 ADD MSTORE PUSH1 0x14 PUSH1 0x24 DUP3 ADD MSTORE PUSH20 0x151ADB881253881D1C985B9CD9995C8819985A5B PUSH1 0x62 SHL PUSH1 0x44 DUP3 ADD MSTORE PUSH1 0x64 ADD JUMPDEST PUSH1 0x40 MLOAD DUP1 SWAP2 SUB SWAP1 REVERT JUMPDEST PUSH1 0x0 PUSH2 0x43E DUP8 DUP7 PUSH2 0x1206 JUMP JUMPDEST SWAP1 POP DUP4 DUP2 LT ISZERO PUSH2 0x486 JUMPI PUSH1 0x40 MLOAD PUSH3 0x461BCD PUSH1 0xE5 SHL DUP2 MSTORE PUSH1 0x20 PUSH1 0x4 DUP3 ADD MSTORE PUSH1 0x13 PUSH1 0x24 DUP3 ADD MSTORE PUSH19 0x195D1A14185A59080F081B5A5B915D1A13DD5D PUSH1 0x6A SHL PUSH1 0x44 DUP3 ADD MSTORE PUSH1 0x64 ADD PUSH2 0x429 JUMP JUMPDEST PUSH1 0x40 DUP1 MLOAD DUP7 DUP2 MSTORE PUSH1 0x20 DUP2 ADD DUP4 SWAP1 MSTORE PUSH1 0x1 PUSH1 0x1 PUSH1 0xA0 SHL SUB DUP1 DUP10 AND SWAP3 CALLER SWAP3 SWAP2 DUP12 AND SWAP2 PUSH32 0x97BFBA06B59241FC2569E88F8BA5ECAEC27A619B54EE2EFBEC2520FF355E7017 SWAP2 ADD PUSH1 0x40 MLOAD DUP1 SWAP2 SUB SWAP1 LOG4 SWAP7 SWAP6 POP POP POP POP POP POP JUMP JUMPDEST PUSH1 0x1 PUSH1 0x1 PUSH1 0xA0 SHL SUB DUP6 AND PUSH1 0x0 SWAP1 DUP2 MSTORE PUSH1 0x2 PUSH1 0x20 MSTORE PUSH1 0x40 DUP2 KECCAK256 PUSH1 0x1 ADD SLOAD DUP7 SWAP1 PUSH2 0x502 JUMPI PUSH1 0x0 DUP1 REVERT JUMPDEST PUSH1 0x1 PUSH1 0x1 PUSH1 0xA0 SHL SUB DUP6 AND PUSH1 0x0 SWAP1 DUP2 MSTORE PUSH1 0x2 PUSH1 0x20 MSTORE PUSH1 0x40 SWAP1 KECCAK256 PUSH1 0x1 ADD SLOAD DUP6 SWAP1 PUSH2 0x529 JUMPI PUSH1 0x0 DUP1 REVERT JUMPDEST PUSH1 0x1 PUSH1 0x1 PUSH1 0xA0 SHL SUB DUP1 DUP10 AND PUSH1 0x0 SWAP1 DUP2 MSTORE PUSH1 0x2 PUSH1 0x20 MSTORE PUSH1 0x40 SWAP1 DUP2 SWAP1 KECCAK256 SLOAD SWAP1 MLOAD PUSH4 0x23B872DD PUSH1 0xE0 SHL DUP2 MSTORE SWAP2 AND SWAP1 PUSH4 0x23B872DD SWAP1 PUSH2 0x56C SWAP1 CALLER SWAP1 ADDRESS SWAP1 DUP11 SWAP1 PUSH1 0x4 ADD PUSH2 0x16AE JUMP JUMPDEST PUSH1 0x20 PUSH1 0x40 MLOAD DUP1 DUP4 SUB DUP2 PUSH1 0x0 DUP8 GAS CALL ISZERO DUP1 ISZERO PUSH2 0x58B JUMPI RETURNDATASIZE PUSH1 0x0 DUP1 RETURNDATACOPY RETURNDATASIZE PUSH1 0x0 REVERT JUMPDEST POP POP POP POP PUSH1 0x40 MLOAD RETURNDATASIZE PUSH1 0x1F NOT PUSH1 0x1F DUP3 ADD AND DUP3 ADD DUP1 PUSH1 0x40 MSTORE POP DUP2 ADD SWAP1 PUSH2 0x5AF SWAP2 SWAP1 PUSH2 0x16D2 JUMP JUMPDEST PUSH2 0x5F2 JUMPI PUSH1 0x40 MLOAD PUSH3 0x461BCD PUSH1 0xE5 SHL DUP2 MSTORE PUSH1 0x20 PUSH1 0x4 DUP3 ADD MSTORE PUSH1 0x14 PUSH1 0x24 DUP3 ADD MSTORE PUSH20 0x151ADB881253881D1C985B9CD9995C8819985A5B PUSH1 0x62 SHL PUSH1 0x44 DUP3 ADD MSTORE PUSH1 0x64 ADD PUSH2 0x429 JUMP JUMPDEST PUSH1 0x0 PUSH2 0x5FE DUP10 DUP8 PUSH2 0x1206 JUMP JUMPDEST SWAP1 POP PUSH1 0x0 DUP2 GT PUSH2 0x650 JUMPI PUSH1 0x40 MLOAD PUSH3 0x461BCD PUSH1 0xE5 SHL DUP2 MSTORE PUSH1 0x20 PUSH1 0x4 DUP3 ADD MSTORE PUSH1 0x1C PUSH1 0x24 DUP3 ADD MSTORE PUSH32 0x4E6F7420656E6F75676820746F6B656E7320696E207061696420696E00000000 PUSH1 0x44 DUP3 ADD MSTORE PUSH1 0x64 ADD PUSH2 0x429 JUMP JUMPDEST PUSH1 0x0 PUSH2 0x65C DUP9 DUP4 PUSH2 0x1385 JUMP JUMPDEST SWAP1 POP DUP6 DUP2 LT ISZERO PUSH2 0x6AE JUMPI PUSH1 0x40 MLOAD PUSH3 0x461BCD PUSH1 0xE5 SHL DUP2 MSTORE PUSH1 0x20 PUSH1 0x4 DUP3 ADD MSTORE PUSH1 0x1D PUSH1 0x24 DUP3 ADD MSTORE PUSH32 0x4F7574707574206C657373207468616E206D696E546F6B656E734F7574000000 PUSH1 0x44 DUP3 ADD MSTORE PUSH1 0x64 ADD PUSH2 0x429 JUMP JUMPDEST PUSH1 0x1 PUSH1 0x1 PUSH1 0xA0 SHL SUB DUP9 DUP2 AND PUSH1 0x0 SWAP1 DUP2 MSTORE PUSH1 0x2 PUSH1 0x20 MSTORE PUSH1 0x40 SWAP1 DUP2 SWAP1 KECCAK256 SLOAD SWAP1 MLOAD PUSH4 0xA9059CBB PUSH1 0xE0 SHL DUP2 MSTORE DUP12 DUP4 AND PUSH1 0x4 DUP3 ADD MSTORE PUSH1 0x24 DUP2 ADD DUP5 SWAP1 MSTORE SWAP2 AND SWAP1 PUSH4 0xA9059CBB SWAP1 PUSH1 0x44 ADD PUSH1 0x20 PUSH1 0x40 MLOAD DUP1 DUP4 SUB DUP2 PUSH1 0x0 DUP8 GAS CALL ISZERO DUP1 ISZERO PUSH2 0x710 JUMPI RETURNDATASIZE PUSH1 0x0 DUP1 RETURNDATACOPY RETURNDATASIZE PUSH1 0x0 REVERT JUMPDEST POP POP POP POP PUSH1 0x40 MLOAD RETURNDATASIZE PUSH1 0x1F NOT PUSH1 0x1F DUP3 ADD AND DUP3 ADD DUP1 PUSH1 0x40 MSTORE POP DUP2 ADD SWAP1 PUSH2 0x734 SWAP2 SWAP1 PUSH2 0x16D2 JUMP JUMPDEST PUSH2 0x778 JUMPI PUSH1 0x40 MLOAD PUSH3 0x461BCD PUSH1 0xE5 SHL DUP2 MSTORE PUSH1 0x20 PUSH1 0x4 DUP3 ADD MSTORE PUSH1 0x15 PUSH1 0x24 DUP3 ADD MSTORE PUSH21 0x151ADB8813D555081D1C985B9CD9995C8819985A5B PUSH1 0x5A SHL PUSH1 0x44 DUP3 ADD MSTORE PUSH1 0x64 ADD PUSH2 0x429 JUMP JUMPDEST PUSH1 0x40 DUP1 MLOAD PUSH1 0x1 PUSH1 0x1 PUSH1 0xA0 SHL SUB DUP12 DUP2 AND DUP3 MSTORE PUSH1 0x20 DUP3 ADD DUP11 SWAP1 MSTORE SWAP2 DUP2 ADD DUP5 SWAP1 MSTORE DUP2 DUP11 AND SWAP2 CALLER SWAP2 SWAP1 DUP14 AND SWAP1 PUSH32 0xAC8B5664C4B0363F57887BB10DFCE39395A15B308BB7395AE2DCFF238AE01C1B SWAP1 PUSH1 0x60 ADD PUSH1 0x40 MLOAD DUP1 SWAP2 SUB SWAP1 LOG4 SWAP10 SWAP9 POP POP POP POP POP POP POP POP POP JUMP JUMPDEST PUSH1 0x1 PUSH1 0x1 PUSH1 0xA0 SHL SUB DUP3 AND PUSH1 0x0 SWAP1 DUP2 MSTORE PUSH1 0x2 PUSH1 0x20 DUP2 SWAP1 MSTORE PUSH1 0x40 DUP3 KECCAK256 PUSH1 0x1 DUP2 ADD SLOAD SWAP2 ADD SLOAD PUSH2 0x807 SWAP1 CALLVALUE SWAP1 PUSH2 0x166D JUMP JUMPDEST PUSH2 0x811 SWAP2 SWAP1 PUSH2 0x168C JUMP JUMPDEST SWAP1 POP DUP1 DUP3 LT ISZERO PUSH2 0x863 JUMPI PUSH1 0x40 MLOAD PUSH3 0x461BCD PUSH1 0xE5 SHL DUP2 MSTORE PUSH1 0x20 PUSH1 0x4 DUP3 ADD MSTORE PUSH1 0x19 PUSH1 0x24 DUP3 ADD MSTORE PUSH32 0x4D6178203C20726571756972656420696E766573746D656E7400000000000000 PUSH1 0x44 DUP3 ADD MSTORE PUSH1 0x64 ADD PUSH2 0x429 JUMP JUMPDEST PUSH1 0x1 PUSH1 0x1 PUSH1 0xA0 SHL SUB DUP1 DUP5 AND PUSH1 0x0 SWAP1 DUP2 MSTORE PUSH1 0x2 PUSH1 0x20 MSTORE PUSH1 0x40 SWAP1 DUP2 SWAP1 KECCAK256 SLOAD SWAP1 MLOAD PUSH4 0x23B872DD PUSH1 0xE0 SHL DUP2 MSTORE SWAP2 AND SWAP1 PUSH4 0x23B872DD SWAP1 PUSH2 0x8A6 SWAP1 CALLER SWAP1 ADDRESS SWAP1 DUP7 SWAP1 PUSH1 0x4 ADD PUSH2 0x16AE JUMP JUMPDEST PUSH1 0x20 PUSH1 0x40 MLOAD DUP1 DUP4 SUB DUP2 PUSH1 0x0 DUP8 GAS CALL ISZERO DUP1 ISZERO PUSH2 0x8C5 JUMPI RETURNDATASIZE PUSH1 0x0 DUP1 RETURNDATACOPY RETURNDATASIZE PUSH1 0x0 REVERT JUMPDEST POP POP POP POP PUSH1 0x40 MLOAD RETURNDATASIZE PUSH1 0x1F NOT PUSH1 0x1F DUP3 ADD AND DUP3 ADD DUP1 PUSH1 0x40 MSTORE POP DUP2 ADD SWAP1 PUSH2 0x8E9 SWAP2 SWAP1 PUSH2 0x16D2 JUMP JUMPDEST PUSH2 0x8F2 JUMPI PUSH1 0x0 DUP1 REVERT JUMPDEST PUSH1 0x1 PUSH1 0x1 PUSH1 0xA0 SHL SUB DUP4 AND PUSH1 0x0 SWAP1 DUP2 MSTORE PUSH1 0x2 PUSH1 0x20 DUP2 SWAP1 MSTORE PUSH1 0x40 DUP3 KECCAK256 SWAP1 DUP2 ADD SLOAD PUSH1 0x4 SWAP1 SWAP2 ADD SLOAD PUSH2 0x920 SWAP1 DUP5 PUSH2 0x166D JUMP JUMPDEST PUSH2 0x92A SWAP2 SWAP1 PUSH2 0x168C JUMP JUMPDEST PUSH1 0x1 PUSH1 0x1 PUSH1 0xA0 SHL SUB DUP6 AND PUSH1 0x0 SWAP1 DUP2 MSTORE PUSH1 0x2 PUSH1 0x20 MSTORE PUSH1 0x40 DUP2 KECCAK256 PUSH1 0x1 ADD DUP1 SLOAD SWAP3 SWAP4 POP CALLVALUE SWAP3 SWAP1 SWAP2 SWAP1 PUSH2 0x95A SWAP1 DUP5 SWAP1 PUSH2 0x16F4 JUMP JUMPDEST SWAP1 SWAP2 SSTORE POP POP PUSH1 0x1 PUSH1 0x1 PUSH1 0xA0 SHL SUB DUP5 AND PUSH1 0x0 SWAP1 DUP2 MSTORE PUSH1 0x2 PUSH1 0x20 DUP2 SWAP1 MSTORE PUSH1 0x40 DUP3 KECCAK256 ADD DUP1 SLOAD DUP5 SWAP3 SWAP1 PUSH2 0x98A SWAP1 DUP5 SWAP1 PUSH2 0x16F4 JUMP JUMPDEST SWAP1 SWAP2 SSTORE POP POP PUSH1 0x1 PUSH1 0x1 PUSH1 0xA0 SHL SUB DUP5 AND PUSH1 0x0 SWAP1 DUP2 MSTORE PUSH1 0x2 PUSH1 0x20 SWAP1 DUP2 MSTORE PUSH1 0x40 DUP1 DUP4 KECCAK256 CALLER DUP5 MSTORE PUSH1 0x3 ADD SWAP1 SWAP2 MSTORE DUP2 KECCAK256 DUP1 SLOAD DUP4 SWAP3 SWAP1 PUSH2 0x9C5 SWAP1 DUP5 SWAP1 PUSH2 0x16F4 JUMP JUMPDEST SWAP1 SWAP2 SSTORE POP POP PUSH1 0x1 PUSH1 0x1 PUSH1 0xA0 SHL SUB DUP5 AND PUSH1 0x0 SWAP1 DUP2 MSTORE PUSH1 0x2 PUSH1 0x20 MSTORE PUSH1 0x40 DUP2 KECCAK256 PUSH1 0x4 ADD DUP1 SLOAD DUP4 SWAP3 SWAP1 PUSH2 0x9F5 SWAP1 DUP5 SWAP1 PUSH2 0x16F4 JUMP JUMPDEST SWAP1 SWAP2 SSTORE POP POP PUSH1 0x40 DUP1 MLOAD CALLVALUE DUP2 MSTORE PUSH1 0x20 DUP2 ADD DUP5 SWAP1 MSTORE DUP3 SWAP2 CALLER SWAP2 PUSH1 0x1 PUSH1 0x1 PUSH1 0xA0 SHL SUB DUP9 AND SWAP2 PUSH32 0x70036A0C8AFF04C45115532A9615C7B3CFFA827060E25DF65BC670EA80D856ED SWAP2 ADD JUMPDEST PUSH1 0x40 MLOAD DUP1 SWAP2 SUB SWAP1 LOG4 POP POP POP POP JUMP JUMPDEST PUSH1 0x0 DUP1 PUSH1 0x0 SLOAD DUP4 PUSH2 0xA5A SWAP2 SWAP1 PUSH2 0x168C JUMP JUMPDEST PUSH1 0x1 PUSH1 0x1 PUSH1 0xA0 SHL SUB DUP6 AND PUSH1 0x0 SWAP1 DUP2 MSTORE PUSH1 0x2 PUSH1 0x20 DUP2 SWAP1 MSTORE PUSH1 0x40 DUP3 KECCAK256 ADD SLOAD SWAP2 SWAP3 POP SWAP1 PUSH2 0xA85 SWAP1 DUP6 SWAP1 PUSH2 0x16F4 JUMP JUMPDEST PUSH1 0x1 PUSH1 0x1 PUSH1 0xA0 SHL SUB DUP7 AND PUSH1 0x0 SWAP1 DUP2 MSTORE PUSH1 0x2 PUSH1 0x20 DUP2 SWAP1 MSTORE PUSH1 0x40 DUP3 KECCAK256 SWAP1 DUP2 ADD SLOAD PUSH1 0x1 SWAP1 SWAP2 ADD SLOAD SWAP3 SWAP4 POP SWAP1 SWAP2 PUSH2 0xAB8 SWAP2 SWAP1 PUSH2 0x166D JUMP JUMPDEST SWAP1 POP PUSH2 0xAC4 DUP4 DUP4 PUSH2 0x170C JUMP JUMPDEST PUSH2 0xACE SWAP1 DUP3 PUSH2 0x168C JUMP JUMPDEST PUSH2 0xAD9 SWAP1 PUSH1 0x1 PUSH2 0x16F4 JUMP JUMPDEST PUSH1 0x1 PUSH1 0x1 PUSH1 0xA0 SHL SUB DUP8 AND PUSH1 0x0 SWAP1 DUP2 MSTORE PUSH1 0x2 PUSH1 0x20 MSTORE PUSH1 0x40 SWAP1 KECCAK256 PUSH1 0x1 ADD SLOAD PUSH2 0xAFF SWAP2 SWAP1 PUSH2 0x170C JUMP JUMPDEST SWAP7 SWAP6 POP POP POP POP POP POP JUMP JUMPDEST PUSH1 0x1 PUSH1 0x1 PUSH1 0xA0 SHL SUB DUP3 AND PUSH1 0x0 SWAP1 DUP2 MSTORE PUSH1 0x2 PUSH1 0x20 SWAP1 DUP2 MSTORE PUSH1 0x40 DUP1 DUP4 KECCAK256 CALLER DUP5 MSTORE PUSH1 0x3 ADD SWAP1 SWAP2 MSTORE SWAP1 KECCAK256 SLOAD DUP2 GT ISZERO PUSH2 0xB7F JUMPI PUSH1 0x40 MLOAD PUSH3 0x461BCD PUSH1 0xE5 SHL DUP2 MSTORE PUSH1 0x20 PUSH1 0x4 DUP3 ADD MSTORE PUSH1 0x1B PUSH1 0x24 DUP3 ADD MSTORE PUSH32 0x4E6F7420656E6F7567682073686172657320746F206469766573740000000000 PUSH1 0x44 DUP3 ADD MSTORE PUSH1 0x64 ADD PUSH2 0x429 JUMP JUMPDEST PUSH1 0x1 PUSH1 0x1 PUSH1 0xA0 SHL SUB DUP3 AND PUSH1 0x0 SWAP1 DUP2 MSTORE PUSH1 0x2 PUSH1 0x20 MSTORE PUSH1 0x40 DUP2 KECCAK256 PUSH1 0x4 DUP2 ADD SLOAD PUSH1 0x1 SWAP1 SWAP2 ADD SLOAD PUSH2 0xBAD SWAP1 DUP5 SWAP1 PUSH2 0x166D JUMP JUMPDEST PUSH2 0xBB7 SWAP2 SWAP1 PUSH2 0x168C JUMP JUMPDEST PUSH1 0x1 PUSH1 0x1 PUSH1 0xA0 SHL SUB DUP5 AND PUSH1 0x0 SWAP1 DUP2 MSTORE PUSH1 0x2 PUSH1 0x20 DUP2 SWAP1 MSTORE PUSH1 0x40 DUP3 KECCAK256 PUSH1 0x4 DUP2 ADD SLOAD SWAP2 ADD SLOAD SWAP3 SWAP4 POP SWAP1 SWAP2 PUSH2 0xBE9 SWAP1 DUP6 SWAP1 PUSH2 0x166D JUMP JUMPDEST PUSH2 0xBF3 SWAP2 SWAP1 PUSH2 0x168C JUMP JUMPDEST PUSH1 0x1 PUSH1 0x1 PUSH1 0xA0 SHL SUB DUP6 DUP2 AND PUSH1 0x0 SWAP1 DUP2 MSTORE PUSH1 0x2 PUSH1 0x20 MSTORE PUSH1 0x40 SWAP1 DUP2 SWAP1 KECCAK256 SLOAD SWAP1 MLOAD PUSH4 0xA9059CBB PUSH1 0xE0 SHL DUP2 MSTORE CALLER PUSH1 0x4 DUP3 ADD MSTORE PUSH1 0x24 DUP2 ADD DUP5 SWAP1 MSTORE SWAP3 SWAP4 POP AND SWAP1 PUSH4 0xA9059CBB SWAP1 PUSH1 0x44 ADD PUSH1 0x20 PUSH1 0x40 MLOAD DUP1 DUP4 SUB DUP2 PUSH1 0x0 DUP8 GAS CALL ISZERO DUP1 ISZERO PUSH2 0xC55 JUMPI RETURNDATASIZE PUSH1 0x0 DUP1 RETURNDATACOPY RETURNDATASIZE PUSH1 0x0 REVERT JUMPDEST POP POP POP POP PUSH1 0x40 MLOAD RETURNDATASIZE PUSH1 0x1F NOT PUSH1 0x1F DUP3 ADD AND DUP3 ADD DUP1 PUSH1 0x40 MSTORE POP DUP2 ADD SWAP1 PUSH2 0xC79 SWAP2 SWAP1 PUSH2 0x16D2 JUMP JUMPDEST PUSH2 0xC82 JUMPI PUSH1 0x0 DUP1 REVERT JUMPDEST PUSH1 0x1 PUSH1 0x1 PUSH1 0xA0 SHL SUB DUP5 AND PUSH1 0x0 SWAP1 DUP2 MSTORE PUSH1 0x2 PUSH1 0x20 MSTORE PUSH1 0x40 DUP2 KECCAK256 PUSH1 0x1 ADD DUP1 SLOAD DUP5 SWAP3 SWAP1 PUSH2 0xCAD SWAP1 DUP5 SWAP1 PUSH2 0x170C JUMP JUMPDEST SWAP1 SWAP2 SSTORE POP POP PUSH1 0x1 PUSH1 0x1 PUSH1 0xA0 SHL SUB DUP5 AND PUSH1 0x0 SWAP1 DUP2 MSTORE PUSH1 0x2 PUSH1 0x20 DUP2 SWAP1 MSTORE PUSH1 0x40 DUP3 KECCAK256 ADD DUP1 SLOAD DUP4 SWAP3 SWAP1 PUSH2 0xCDD SWAP1 DUP5 SWAP1 PUSH2 0x170C JUMP JUMPDEST SWAP1 SWAP2 SSTORE POP POP PUSH1 0x1 PUSH1 0x1 PUSH1 0xA0 SHL SUB DUP5 AND PUSH1 0x0 SWAP1 DUP2 MSTORE PUSH1 0x2 PUSH1 0x20 SWAP1 DUP2 MSTORE PUSH1 0x40 DUP1 DUP4 KECCAK256 CALLER DUP5 MSTORE PUSH1 0x3 ADD SWAP1 SWAP2 MSTORE DUP2 KECCAK256 DUP1 SLOAD DUP6 SWAP3 SWAP1 PUSH2 0xD18 SWAP1 DUP5 SWAP1 PUSH2 0x170C JUMP JUMPDEST SWAP1 SWAP2 SSTORE POP POP PUSH1 0x1 PUSH1 0x1 PUSH1 0xA0 SHL SUB DUP5 AND PUSH1 0x0 SWAP1 DUP2 MSTORE PUSH1 0x2 PUSH1 0x20 MSTORE PUSH1 0x40 DUP2 KECCAK256 PUSH1 0x4 ADD DUP1 SLOAD DUP6 SWAP3 SWAP1 PUSH2 0xD48 SWAP1 DUP5 SWAP1 PUSH2 0x170C JUMP JUMPDEST SWAP1 SWAP2 SSTORE POP POP PUSH1 0x40 DUP1 MLOAD DUP4 DUP2 MSTORE PUSH1 0x20 DUP2 ADD DUP4 SWAP1 MSTORE DUP5 SWAP2 CALLER SWAP2 PUSH1 0x1 PUSH1 0x1 PUSH1 0xA0 SHL SUB DUP9 AND SWAP2 PUSH32 0xDAD7796DF9A6C41D40041FD7A4CEDDF72D437F4368688E1C1A69A07244FB6632 SWAP2 ADD PUSH2 0xA3B JUMP JUMPDEST PUSH1 0x1 PUSH1 0x1 PUSH1 0xA0 SHL SUB DUP3 AND PUSH1 0x0 SWAP1 DUP2 MSTORE PUSH1 0x2 PUSH1 0x20 MSTORE PUSH1 0x40 SWAP1 KECCAK256 PUSH1 0x4 ADD SLOAD ISZERO PUSH2 0xE1A JUMPI PUSH1 0x40 MLOAD PUSH3 0x461BCD PUSH1 0xE5 SHL DUP2 MSTORE PUSH1 0x20 PUSH1 0x4 DUP3 ADD MSTORE PUSH1 0x36 PUSH1 0x24 DUP3 ADD MSTORE PUSH32 0x4C697175696469747920706F6F6C20697320616C726561647920736565646564 PUSH1 0x44 DUP3 ADD MSTORE PUSH22 0xB081D5CD9481A5B9D995CDD0A0A481A5B9CDD195859 PUSH1 0x52 SHL PUSH1 0x64 DUP3 ADD MSTORE PUSH1 0x84 ADD PUSH2 0x429 JUMP JUMPDEST PUSH1 0x0 DUP2 GT DUP1 ISZERO PUSH2 0xE2A JUMPI POP PUSH1 0x0 CALLVALUE GT JUMPDEST PUSH2 0xE76 JUMPI PUSH1 0x40 MLOAD PUSH3 0x461BCD PUSH1 0xE5 SHL DUP2 MSTORE PUSH1 0x20 PUSH1 0x4 DUP3 ADD MSTORE PUSH1 0x1A PUSH1 0x24 DUP3 ADD MSTORE PUSH32 0x4D75737420696E766573742045544820616E6420746F6B656E73000000000000 PUSH1 0x44 DUP3 ADD MSTORE PUSH1 0x64 ADD PUSH2 0x429 JUMP JUMPDEST PUSH1 0x1 PUSH1 0x1 PUSH1 0xA0 SHL SUB DUP1 DUP4 AND PUSH1 0x0 SWAP1 DUP2 MSTORE PUSH1 0x2 PUSH1 0x20 MSTORE PUSH1 0x40 SWAP1 DUP2 SWAP1 KECCAK256 SLOAD SWAP1 MLOAD PUSH4 0x23B872DD PUSH1 0xE0 SHL DUP2 MSTORE SWAP2 AND SWAP1 PUSH4 0x23B872DD SWAP1 PUSH2 0xEB9 SWAP1 CALLER SWAP1 ADDRESS SWAP1 DUP7 SWAP1 PUSH1 0x4 ADD PUSH2 0x16AE JUMP JUMPDEST PUSH1 0x20 PUSH1 0x40 MLOAD DUP1 DUP4 SUB DUP2 PUSH1 0x0 DUP8 GAS CALL ISZERO DUP1 ISZERO PUSH2 0xED8 JUMPI RETURNDATASIZE PUSH1 0x0 DUP1 RETURNDATACOPY RETURNDATASIZE PUSH1 0x0 REVERT JUMPDEST POP POP POP POP PUSH1 0x40 MLOAD RETURNDATASIZE PUSH1 0x1F NOT PUSH1 0x1F DUP3 ADD AND DUP3 ADD DUP1 PUSH1 0x40 MSTORE POP DUP2 ADD SWAP1 PUSH2 0xEFC SWAP2 SWAP1 PUSH2 0x16D2 JUMP JUMPDEST POP PUSH1 0x1 PUSH1 0x1 PUSH1 0xA0 SHL SUB DUP3 AND PUSH1 0x0 DUP2 DUP2 MSTORE PUSH1 0x2 PUSH1 0x20 DUP2 DUP2 MSTORE PUSH1 0x40 DUP1 DUP5 KECCAK256 DUP1 DUP5 ADD DUP8 SWAP1 SSTORE CALLVALUE PUSH1 0x1 DUP3 ADD DUP2 SWAP1 SSTORE CALLER DUP1 DUP8 MSTORE PUSH1 0x3 DUP4 ADD DUP6 MSTORE DUP4 DUP8 KECCAK256 PUSH2 0x2710 SWAP1 DUP2 SWAP1 SSTORE SWAP7 DUP9 SWAP1 MSTORE SWAP5 DUP5 MSTORE PUSH1 0x4 SWAP1 SWAP2 ADD DUP6 SWAP1 SSTORE DUP2 MLOAD SWAP1 DUP2 MSTORE SWAP2 DUP3 ADD DUP7 SWAP1 MSTORE SWAP3 SWAP4 SWAP2 SWAP3 PUSH32 0x70036A0C8AFF04C45115532A9615C7B3CFFA827060E25DF65BC670EA80D856ED SWAP2 ADD PUSH1 0x40 MLOAD DUP1 SWAP2 SUB SWAP1 LOG4 POP POP JUMP JUMPDEST PUSH1 0x0 DUP1 PUSH1 0x0 SLOAD DUP4 PUSH2 0xF98 SWAP2 SWAP1 PUSH2 0x168C JUMP JUMPDEST PUSH1 0x1 PUSH1 0x1 PUSH1 0xA0 SHL SUB DUP6 AND PUSH1 0x0 SWAP1 DUP2 MSTORE PUSH1 0x2 PUSH1 0x20 MSTORE PUSH1 0x40 DUP2 KECCAK256 PUSH1 0x1 ADD SLOAD SWAP2 SWAP3 POP SWAP1 PUSH2 0xFC3 SWAP1 DUP6 SWAP1 PUSH2 0x16F4 JUMP JUMPDEST PUSH1 0x1 PUSH1 0x1 PUSH1 0xA0 SHL SUB DUP7 AND PUSH1 0x0 SWAP1 DUP2 MSTORE PUSH1 0x2 PUSH1 0x20 DUP2 SWAP1 MSTORE PUSH1 0x40 DUP3 KECCAK256 SWAP1 DUP2 ADD SLOAD PUSH1 0x1 SWAP1 SWAP2 ADD SLOAD SWAP3 SWAP4 POP SWAP1 SWAP2 PUSH2 0xFF6 SWAP2 SWAP1 PUSH2 0x166D JUMP JUMPDEST SWAP1 POP PUSH2 0x1002 DUP4 DUP4 PUSH2 0x170C JUMP JUMPDEST PUSH2 0x100C SWAP1 DUP3 PUSH2 0x168C JUMP JUMPDEST PUSH2 0x1017 SWAP1 PUSH1 0x1 PUSH2 0x16F4 JUMP JUMPDEST PUSH1 0x1 PUSH1 0x1 PUSH1 0xA0 SHL SUB DUP8 AND PUSH1 0x0 SWAP1 DUP2 MSTORE PUSH1 0x2 PUSH1 0x20 DUP2 SWAP1 MSTORE PUSH1 0x40 SWAP1 SWAP2 KECCAK256 ADD SLOAD PUSH2 0xAFF SWAP2 SWAP1 PUSH2 0x170C JUMP JUMPDEST PUSH1 0x1 PUSH1 0x1 PUSH1 0xA0 SHL SUB DUP3 AND PUSH1 0x0 SWAP1 DUP2 MSTORE PUSH1 0x2 PUSH1 0x20 DUP2 SWAP1 MSTORE PUSH1 0x40 DUP3 KECCAK256 PUSH1 0x1 DUP2 ADD SLOAD SWAP2 ADD SLOAD PUSH2 0x32C SWAP1 DUP5 SWAP1 PUSH2 0x166D JUMP JUMPDEST PUSH1 0x1 PUSH1 0x1 PUSH1 0xA0 SHL SUB DUP4 AND PUSH1 0x0 SWAP1 DUP2 MSTORE PUSH1 0x2 PUSH1 0x20 MSTORE PUSH1 0x40 DUP2 KECCAK256 PUSH1 0x1 ADD SLOAD DUP5 SWAP1 PUSH2 0x1092 JUMPI PUSH1 0x0 DUP1 REVERT JUMPDEST PUSH1 0x0 PUSH2 0x109E DUP7 CALLVALUE PUSH2 0x1385 JUMP JUMPDEST SWAP1 POP DUP4 DUP2 LT ISZERO PUSH2 0x10E8 JUMPI PUSH1 0x40 MLOAD PUSH3 0x461BCD PUSH1 0xE5 SHL DUP2 MSTORE PUSH1 0x20 PUSH1 0x4 DUP3 ADD MSTORE PUSH1 0x15 PUSH1 0x24 DUP3 ADD MSTORE PUSH21 0x1D1ADB9CD4185A59080F081B5A5B951ADB9CD3DD5D PUSH1 0x5A SHL PUSH1 0x44 DUP3 ADD MSTORE PUSH1 0x64 ADD PUSH2 0x429 JUMP JUMPDEST PUSH1 0x40 DUP1 MLOAD CALLVALUE DUP2 MSTORE PUSH1 0x20 DUP2 ADD DUP4 SWAP1 MSTORE PUSH1 0x1 PUSH1 0x1 PUSH1 0xA0 SHL SUB DUP1 DUP9 AND SWAP3 CALLER SWAP3 SWAP2 DUP11 AND SWAP2 PUSH32 0xD1508EB33CB2FF0CD96CF67F00AB2C6B7FC5142D97832ADD4B29748B29111024 SWAP2 ADD PUSH1 0x40 MLOAD DUP1 SWAP2 SUB SWAP1 LOG4 PUSH1 0x1 PUSH1 0x1 PUSH1 0xA0 SHL SUB DUP7 DUP2 AND PUSH1 0x0 SWAP1 DUP2 MSTORE PUSH1 0x2 PUSH1 0x20 MSTORE PUSH1 0x40 SWAP1 DUP2 SWAP1 KECCAK256 SLOAD SWAP1 MLOAD PUSH4 0xA9059CBB PUSH1 0xE0 SHL DUP2 MSTORE DUP8 DUP4 AND PUSH1 0x4 DUP3 ADD MSTORE PUSH1 0x24 DUP2 ADD DUP5 SWAP1 MSTORE SWAP2 AND SWAP1 PUSH4 0xA9059CBB SWAP1 PUSH1 0x44 ADD PUSH1 0x20 PUSH1 0x40 MLOAD DUP1 DUP4 SUB DUP2 PUSH1 0x0 DUP8 GAS CALL ISZERO DUP1 ISZERO PUSH2 0x1195 JUMPI RETURNDATASIZE PUSH1 0x0 DUP1 RETURNDATACOPY RETURNDATASIZE PUSH1 0x0 REVERT JUMPDEST POP POP POP POP PUSH1 0x40 MLOAD RETURNDATASIZE PUSH1 0x1F NOT PUSH1 0x1F DUP3 ADD AND DUP3 ADD DUP1 PUSH1 0x40 MSTORE POP DUP2 ADD SWAP1 PUSH2 0x11B9 SWAP2 SWAP1 PUSH2 0x16D2 JUMP JUMPDEST PUSH2 0x11FD JUMPI PUSH1 0x40 MLOAD PUSH3 0x461BCD PUSH1 0xE5 SHL DUP2 MSTORE PUSH1 0x20 PUSH1 0x4 DUP3 ADD MSTORE PUSH1 0x15 PUSH1 0x24 DUP3 ADD MSTORE PUSH21 0x151ADB8813D555081D1C985B9CD9995C8819985A5B PUSH1 0x5A SHL PUSH1 0x44 DUP3 ADD MSTORE PUSH1 0x64 ADD PUSH2 0x429 JUMP JUMPDEST SWAP6 SWAP5 POP POP POP POP POP JUMP JUMPDEST PUSH1 0x0 DUP1 PUSH1 0x0 SLOAD DUP4 PUSH2 0x1217 SWAP2 SWAP1 PUSH2 0x168C JUMP JUMPDEST SWAP1 POP DUP3 PUSH1 0x2 PUSH1 0x0 DUP7 PUSH1 0x1 PUSH1 0x1 PUSH1 0xA0 SHL SUB AND PUSH1 0x1 PUSH1 0x1 PUSH1 0xA0 SHL SUB AND DUP2 MSTORE PUSH1 0x20 ADD SWAP1 DUP2 MSTORE PUSH1 0x20 ADD PUSH1 0x0 KECCAK256 PUSH1 0x2 ADD PUSH1 0x0 DUP3 DUP3 SLOAD PUSH2 0x1251 SWAP2 SWAP1 PUSH2 0x16F4 JUMP JUMPDEST SWAP1 SWAP2 SSTORE POP POP PUSH1 0x1 PUSH1 0x1 PUSH1 0xA0 SHL SUB DUP5 AND PUSH1 0x0 SWAP1 DUP2 MSTORE PUSH1 0x2 PUSH1 0x20 DUP2 SWAP1 MSTORE PUSH1 0x40 DUP3 KECCAK256 SWAP1 DUP2 ADD SLOAD PUSH1 0x1 SWAP1 SWAP2 ADD SLOAD PUSH2 0x1284 SWAP2 SWAP1 PUSH2 0x166D JUMP JUMPDEST PUSH1 0x1 PUSH1 0x1 PUSH1 0xA0 SHL SUB DUP7 AND PUSH1 0x0 SWAP1 DUP2 MSTORE PUSH1 0x2 PUSH1 0x20 DUP2 SWAP1 MSTORE PUSH1 0x40 DUP3 KECCAK256 ADD SLOAD SWAP2 SWAP3 POP SWAP1 PUSH2 0x12AF SWAP1 DUP5 SWAP1 PUSH2 0x170C JUMP JUMPDEST PUSH2 0x12B9 SWAP1 DUP4 PUSH2 0x168C JUMP JUMPDEST PUSH2 0x12C4 SWAP1 PUSH1 0x1 PUSH2 0x16F4 JUMP JUMPDEST PUSH1 0x1 PUSH1 0x1 PUSH1 0xA0 SHL SUB DUP8 AND PUSH1 0x0 SWAP1 DUP2 MSTORE PUSH1 0x2 PUSH1 0x20 MSTORE PUSH1 0x40 SWAP1 KECCAK256 PUSH1 0x1 ADD SLOAD PUSH2 0x12EA SWAP2 SWAP1 PUSH2 0x170C JUMP JUMPDEST PUSH1 0x1 PUSH1 0x1 PUSH1 0xA0 SHL SUB DUP8 AND PUSH1 0x0 SWAP1 DUP2 MSTORE PUSH1 0x2 PUSH1 0x20 MSTORE PUSH1 0x40 SWAP1 KECCAK256 PUSH1 0x1 ADD SLOAD SWAP1 SWAP2 POP DUP2 GT ISZERO PUSH2 0x134B JUMPI PUSH1 0x40 MLOAD PUSH3 0x461BCD PUSH1 0xE5 SHL DUP2 MSTORE PUSH1 0x20 PUSH1 0x4 DUP3 ADD MSTORE PUSH1 0x10 PUSH1 0x24 DUP3 ADD MSTORE PUSH16 0x98C2C6D6D2DCCE40E0DEDED840CAE8D PUSH1 0x83 SHL PUSH1 0x44 DUP3 ADD MSTORE PUSH1 0x64 ADD PUSH2 0x429 JUMP JUMPDEST PUSH1 0x1 PUSH1 0x1 PUSH1 0xA0 SHL SUB DUP7 AND PUSH1 0x0 SWAP1 DUP2 MSTORE PUSH1 0x2 PUSH1 0x20 MSTORE PUSH1 0x40 DUP2 KECCAK256 PUSH1 0x1 ADD DUP1 SLOAD DUP4 SWAP3 SWAP1 PUSH2 0x1376 SWAP1 DUP5 SWAP1 PUSH2 0x170C JUMP JUMPDEST SWAP1 SWAP2 SSTORE POP SWAP1 SWAP7 SWAP6 POP POP POP POP POP POP JUMP JUMPDEST PUSH1 0x0 DUP1 PUSH1 0x0 SLOAD DUP4 PUSH2 0x1396 SWAP2 SWAP1 PUSH2 0x168C JUMP JUMPDEST PUSH1 0x1 PUSH1 0x1 PUSH1 0xA0 SHL SUB DUP6 AND PUSH1 0x0 SWAP1 DUP2 MSTORE PUSH1 0x2 PUSH1 0x20 MSTORE PUSH1 0x40 DUP2 KECCAK256 PUSH1 0x1 ADD DUP1 SLOAD SWAP3 SWAP4 POP DUP6 SWAP3 SWAP1 SWAP2 SWAP1 PUSH2 0x13C6 SWAP1 DUP5 SWAP1 PUSH2 0x16F4 JUMP JUMPDEST SWAP1 SWAP2 SSTORE POP POP PUSH1 0x1 PUSH1 0x1 PUSH1 0xA0 SHL SUB DUP5 AND PUSH1 0x0 SWAP1 DUP2 MSTORE PUSH1 0x2 PUSH1 0x20 DUP2 SWAP1 MSTORE PUSH1 0x40 DUP3 KECCAK256 SWAP1 DUP2 ADD SLOAD PUSH1 0x1 SWAP1 SWAP2 ADD SLOAD PUSH2 0x13F9 SWAP2 SWAP1 PUSH2 0x166D JUMP JUMPDEST PUSH1 0x1 PUSH1 0x1 PUSH1 0xA0 SHL SUB DUP7 AND PUSH1 0x0 SWAP1 DUP2 MSTORE PUSH1 0x2 PUSH1 0x20 MSTORE PUSH1 0x40 DUP2 KECCAK256 PUSH1 0x1 ADD SLOAD SWAP2 SWAP3 POP SWAP1 PUSH2 0x1424 SWAP1 DUP5 SWAP1 PUSH2 0x170C JUMP JUMPDEST PUSH2 0x142E SWAP1 DUP4 PUSH2 0x168C JUMP JUMPDEST PUSH2 0x1439 SWAP1 PUSH1 0x1 PUSH2 0x16F4 JUMP JUMPDEST PUSH1 0x1 PUSH1 0x1 PUSH1 0xA0 SHL SUB DUP8 AND PUSH1 0x0 SWAP1 DUP2 MSTORE PUSH1 0x2 PUSH1 0x20 DUP2 SWAP1 MSTORE PUSH1 0x40 SWAP1 SWAP2 KECCAK256 ADD SLOAD PUSH2 0x1460 SWAP2 SWAP1 PUSH2 0x170C JUMP JUMPDEST PUSH1 0x1 PUSH1 0x1 PUSH1 0xA0 SHL SUB DUP8 AND PUSH1 0x0 SWAP1 DUP2 MSTORE PUSH1 0x2 PUSH1 0x20 DUP2 SWAP1 MSTORE PUSH1 0x40 SWAP1 SWAP2 KECCAK256 ADD SLOAD SWAP1 SWAP2 POP DUP2 GT ISZERO PUSH2 0x14C5 JUMPI PUSH1 0x40 MLOAD PUSH3 0x461BCD PUSH1 0xE5 SHL DUP2 MSTORE PUSH1 0x20 PUSH1 0x4 DUP3 ADD MSTORE PUSH1 0x13 PUSH1 0x24 DUP3 ADD MSTORE PUSH19 0x4C61636B696E6720706F6F6C20746F6B656E73 PUSH1 0x68 SHL PUSH1 0x44 DUP3 ADD MSTORE PUSH1 0x64 ADD PUSH2 0x429 JUMP JUMPDEST PUSH1 0x1 PUSH1 0x1 PUSH1 0xA0 SHL SUB DUP7 AND PUSH1 0x0 SWAP1 DUP2 MSTORE PUSH1 0x2 PUSH1 0x20 DUP2 SWAP1 MSTORE PUSH1 0x40 DUP3 KECCAK256 ADD DUP1 SLOAD DUP4 SWAP3 SWAP1 PUSH2 0x1376 SWAP1 DUP5 SWAP1 PUSH2 0x170C JUMP JUMPDEST DUP1 CALLDATALOAD PUSH1 0x1 PUSH1 0x1 PUSH1 0xA0 SHL SUB DUP2 AND DUP2 EQ PUSH2 0x1507 JUMPI PUSH1 0x0 DUP1 REVERT JUMPDEST SWAP2 SWAP1 POP JUMP JUMPDEST PUSH1 0x0 DUP1 PUSH1 0x40 DUP4 DUP6 SUB SLT ISZERO PUSH2 0x151F JUMPI PUSH1 0x0 DUP1 REVERT JUMPDEST PUSH2 0x1528 DUP4 PUSH2 0x14F0 JUMP JUMPDEST SWAP2 POP PUSH2 0x1536 PUSH1 0x20 DUP5 ADD PUSH2 0x14F0 JUMP JUMPDEST SWAP1 POP SWAP3 POP SWAP3 SWAP1 POP JUMP JUMPDEST PUSH1 0x0 DUP1 PUSH1 0x40 DUP4 DUP6 SUB SLT ISZERO PUSH2 0x1552 JUMPI PUSH1 0x0 DUP1 REVERT JUMPDEST PUSH2 0x155B DUP4 PUSH2 0x14F0 JUMP JUMPDEST SWAP5 PUSH1 0x20 SWAP4 SWAP1 SWAP4 ADD CALLDATALOAD SWAP4 POP POP POP JUMP JUMPDEST PUSH1 0x0 DUP1 PUSH1 0x0 DUP1 PUSH1 0x80 DUP6 DUP8 SUB SLT ISZERO PUSH2 0x157F JUMPI PUSH1 0x0 DUP1 REVERT JUMPDEST PUSH2 0x1588 DUP6 PUSH2 0x14F0 JUMP JUMPDEST SWAP4 POP PUSH2 0x1596 PUSH1 0x20 DUP7 ADD PUSH2 0x14F0 JUMP JUMPDEST SWAP4 SWAP7 SWAP4 SWAP6 POP POP POP POP PUSH1 0x40 DUP3 ADD CALLDATALOAD SWAP2 PUSH1 0x60 ADD CALLDATALOAD SWAP1 JUMP JUMPDEST PUSH1 0x0 PUSH1 0x20 DUP3 DUP5 SUB SLT ISZERO PUSH2 0x15BD JUMPI PUSH1 0x0 DUP1 REVERT JUMPDEST PUSH2 0x336 DUP3 PUSH2 0x14F0 JUMP JUMPDEST PUSH1 0x0 DUP1 PUSH1 0x0 DUP1 PUSH1 0x0 PUSH1 0xA0 DUP7 DUP9 SUB SLT ISZERO PUSH2 0x15DE JUMPI PUSH1 0x0 DUP1 REVERT JUMPDEST PUSH2 0x15E7 DUP7 PUSH2 0x14F0 JUMP JUMPDEST SWAP5 POP PUSH2 0x15F5 PUSH1 0x20 DUP8 ADD PUSH2 0x14F0 JUMP JUMPDEST SWAP4 POP PUSH2 0x1603 PUSH1 0x40 DUP8 ADD PUSH2 0x14F0 JUMP JUMPDEST SWAP5 SWAP8 SWAP4 SWAP7 POP SWAP4 SWAP5 PUSH1 0x60 DUP2 ADD CALLDATALOAD SWAP5 POP PUSH1 0x80 ADD CALLDATALOAD SWAP3 SWAP2 POP POP JUMP JUMPDEST PUSH1 0x0 DUP1 PUSH1 0x0 PUSH1 0x60 DUP5 DUP7 SUB SLT ISZERO PUSH2 0x1630 JUMPI PUSH1 0x0 DUP1 REVERT JUMPDEST PUSH2 0x1639 DUP5 PUSH2 0x14F0 JUMP JUMPDEST SWAP3 POP PUSH2 0x1647 PUSH1 0x20 DUP6 ADD PUSH2 0x14F0 JUMP JUMPDEST SWAP2 POP PUSH1 0x40 DUP5 ADD CALLDATALOAD SWAP1 POP SWAP3 POP SWAP3 POP SWAP3 JUMP JUMPDEST PUSH4 0x4E487B71 PUSH1 0xE0 SHL PUSH1 0x0 MSTORE PUSH1 0x11 PUSH1 0x4 MSTORE PUSH1 0x24 PUSH1 0x0 REVERT JUMPDEST PUSH1 0x0 DUP2 PUSH1 0x0 NOT DIV DUP4 GT DUP3 ISZERO ISZERO AND ISZERO PUSH2 0x1687 JUMPI PUSH2 0x1687 PUSH2 0x1657 JUMP JUMPDEST POP MUL SWAP1 JUMP JUMPDEST PUSH1 0x0 DUP3 PUSH2 0x16A9 JUMPI PUSH4 0x4E487B71 PUSH1 0xE0 SHL PUSH1 0x0 MSTORE PUSH1 0x12 PUSH1 0x4 MSTORE PUSH1 0x24 PUSH1 0x0 REVERT JUMPDEST POP DIV SWAP1 JUMP JUMPDEST PUSH1 0x1 PUSH1 0x1 PUSH1 0xA0 SHL SUB SWAP4 DUP5 AND DUP2 MSTORE SWAP2 SWAP1 SWAP3 AND PUSH1 0x20 DUP3 ADD MSTORE PUSH1 0x40 DUP2 ADD SWAP2 SWAP1 SWAP2 MSTORE PUSH1 0x60 ADD SWAP1 JUMP JUMPDEST PUSH1 0x0 PUSH1 0x20 DUP3 DUP5 SUB SLT ISZERO PUSH2 0x16E4 JUMPI PUSH1 0x0 DUP1 REVERT JUMPDEST DUP2 MLOAD DUP1 ISZERO ISZERO DUP2 EQ PUSH2 0x336 JUMPI PUSH1 0x0 DUP1 REVERT JUMPDEST PUSH1 0x0 DUP3 NOT DUP3 GT ISZERO PUSH2 0x1707 JUMPI PUSH2 0x1707 PUSH2 0x1657 JUMP JUMPDEST POP ADD SWAP1 JUMP JUMPDEST PUSH1 0x0 DUP3 DUP3 LT ISZERO PUSH2 0x171E JUMPI PUSH2 0x171E PUSH2 0x1657 JUMP JUMPDEST POP SUB SWAP1 JUMP INVALID LOG2 PUSH5 0x6970667358 0x22 SLT KECCAK256 PUSH29 0xE263095DE2C9A123CFD488016A2EE63B6023060174CB25773F328317F5 PUSH21 0xC964736F6C634300080A0033000000000000000000 ",
  "sha1": "bcb80be53c3e69f2ff88d27ae319b3bb9072fbf0",
  "source": "// contracts/MiniSwap.sol\n// SPDX-License-Identifier: MIT\npragma solidity ^0.8.0;\n\nimport \"@openzeppelin/contracts/token/ERC20/IERC20.sol\";\n// The goal of this contract is to create a multi-token exchange that allows pools to be made without creating other contracts.\n// Heavily bassed off of AstroSwapExchange\n\n\ncontract MiniSwap {\n    uint256 public feeRate;\n    uint256 public exchangeCount;\n\n    struct Exchange {\n        IERC20 token;\n        uint256 ethPool;\n        uint256 tokenPool;\n        // We are not storing the invariant because it dosent need to be stored, can just be calculated on the spot\n        mapping (address => uint256) investorShares;\n        uint256 totalShares;\n    } \n\n    mapping (address => Exchange) public exchanges; // Mapping of token addresses to exchanges\n    \n    event TokenPurchase(address indexed exchange, address indexed user, address indexed recipient, uint256 ethIn, uint256 tokensOut);\n    event EthPurchase(address indexed exchange, address indexed user, address indexed recipient, uint256 tokensIn, uint256 ethOut);\n    event TokenToToken(address indexed exchange, address indexed user, address recipient, address indexed tokenExchangeAddress, uint256 tokensIn, uint256 ethTransfer); // Recipeint is not indexed here due to the 3 index limit\n    event Investment(address indexed exchange, address indexed user, uint256 indexed sharesPurchased, uint256 ethInvested, uint256 tokensInvested);\n    event Divestment(address indexed exchange, address indexed user, uint256 indexed sharesBurned, uint256 ethDivested, uint256 tokensDivested);\n    \n    constructor(uint256 _fee) {\n        feeRate = _fee;\n    }\n\n    modifier hasLiquidity(address token) {\n        require(exchanges[token].ethPool > 0);\n        _;\n    }\n\n    function seedInvest(address tokenAddress, uint256 tokenInvestment) public payable {\n        require (exchanges[tokenAddress].totalShares == 0, \"Liquidity pool is already seeded, use invest() instead\");\n        require (tokenInvestment > 0 && msg.value > 0, \"Must invest ETH and tokens\");\n        exchanges[tokenAddress].token.transferFrom(msg.sender, address(this), tokenInvestment);\n        exchanges[tokenAddress].tokenPool = tokenInvestment;\n        exchanges[tokenAddress].ethPool = msg.value;\n        // Give the starting investor 10000 shares\n        exchanges[tokenAddress].investorShares[msg.sender] = 10000;\n        exchanges[tokenAddress].totalShares = 10000;\n        emit Investment(tokenAddress, msg.sender, 10000, msg.value, tokenInvestment);\n    }\n\n    function invest(address tokenAddress, uint256 maxTokensInvested) public payable{\n        // Amount of tokens to invest is bassed of of the current ratio of eth to token in the pools\n        uint256 tokenInvestment = (exchanges[tokenAddress].tokenPool * msg.value / exchanges[tokenAddress].ethPool);\n        require(maxTokensInvested >= tokenInvestment, \"Max < required investment\");\n        require (exchanges[tokenAddress].token.transferFrom(msg.sender, address(this), tokenInvestment));\n        uint256 sharesPurchased = (tokenInvestment * exchanges[tokenAddress].totalShares)/ exchanges[tokenAddress].tokenPool;\n        exchanges[tokenAddress].ethPool += msg.value;\n        exchanges[tokenAddress].tokenPool += tokenInvestment;\n        // Give the investor their shares\n        exchanges[tokenAddress].investorShares[msg.sender] += sharesPurchased;\n        exchanges[tokenAddress].totalShares += sharesPurchased;\n        emit Investment(tokenAddress, msg.sender, sharesPurchased, msg.value, tokenInvestment);\n    }\n\n    function investQuoteFromEth(address tokenAddress, uint256 ethPaid) public view returns (uint256 tokensRequired) {\n        return (exchanges[tokenAddress].tokenPool * ethPaid / exchanges[tokenAddress].ethPool);\n    }\n\n    function investQuoteFromTokens(address tokenAddress, uint256 tokensPaid) public view returns (uint256 ethRequired) {\n        return (exchanges[tokenAddress].ethPool * tokensPaid / exchanges[tokenAddress].tokenPool);\n    }\n\n    function divest(address tokenAddress, uint256 shares) public {\n        require(exchanges[tokenAddress].investorShares[msg.sender] >= shares, \"Not enough shares to divest\");\n        uint256 ethOut = (exchanges[tokenAddress].ethPool * shares) / exchanges[tokenAddress].totalShares;\n        uint256 tokenOut = (exchanges[tokenAddress].tokenPool * shares) / exchanges[tokenAddress].totalShares;\n        require(exchanges[tokenAddress].token.transfer(msg.sender, tokenOut));\n        payable(msg.sender).call{value:ethOut};\n        exchanges[tokenAddress].ethPool -= ethOut;\n        exchanges[tokenAddress].tokenPool -= tokenOut;\n        exchanges[tokenAddress].investorShares[msg.sender] -= shares;\n        exchanges[tokenAddress].totalShares -= shares;\n        emit Divestment(tokenAddress, msg.sender, shares, ethOut, tokenOut);\n    }\n\n    function getShares(address tokenAddress, address investor) public view returns (uint256 shareCount) {\n        return exchanges[tokenAddress].investorShares[investor];\n    }\n\n    function getEthToTokenQuote(address tokenAddress, uint256 ethValue) public view returns (uint256 tokenQuote) {\n        uint256 fee = ethValue / feeRate;\n        uint256 mockPool = exchanges[tokenAddress].ethPool + ethValue;\n        uint256 invariant = exchanges[tokenAddress].ethPool * exchanges[tokenAddress].tokenPool;\n        return (exchanges[tokenAddress].tokenPool - (invariant / (mockPool - fee) + 1));\n    }\n\n    function getTokenToEthQuote(address tokenAddress, uint256 tokenValue) public view returns (uint256 ethQuote) {\n        uint256 fee = tokenValue / feeRate;\n        uint256 mockPool = exchanges[tokenAddress].tokenPool + tokenValue;\n        uint256 invariant = exchanges[tokenAddress].ethPool * exchanges[tokenAddress].tokenPool;\n        return (exchanges[tokenAddress].ethPool - (invariant / (mockPool - fee) + 1));\n    }\n    \n    function ethToTokenPrivate(address tokenAddress, uint256 value) private returns(uint256 tokenToPay){\n        uint256 fee = value / feeRate;\n        exchanges[tokenAddress].ethPool += value;\n        uint256 invariant = exchanges[tokenAddress].ethPool * exchanges[tokenAddress].tokenPool;\n        uint256 tokensPaid = exchanges[tokenAddress].tokenPool - (invariant / (exchanges[tokenAddress].ethPool - fee) + 1); // k = x * y <==> y = k / x, we payout the difference\n        // The +1 in the above line is to prevent a rouding error that causes the invariant to lower on transactions where the fee rounds down to 0\n        require(tokensPaid <= exchanges[tokenAddress].tokenPool, \"Lacking pool tokens\"); // Make sure we have enough tokens to pay out\n        exchanges[tokenAddress].tokenPool -= tokensPaid;\n        return tokensPaid;\n    }\n\n    function tokenToEthPrivate(address tokenAddress, uint256 tokensIn) private returns(uint256 ethToPay){\n        uint256 fee = tokensIn / feeRate;\n        exchanges[tokenAddress].tokenPool += tokensIn;\n        uint256 invariant = exchanges[tokenAddress].ethPool * exchanges[tokenAddress].tokenPool;\n        uint256 ethPaid = exchanges[tokenAddress].ethPool - (invariant / (exchanges[tokenAddress].tokenPool - fee) + 1); // k = x * y <==> x = k / y, we payout the difference\n        // The +1 in the above line is to prevent a rouding error that causes the invariant to lower on transactions where the fee rounds down to 0\n        require(ethPaid <= exchanges[tokenAddress].ethPool, \"Lacking pool eth\"); // Make sure we have enough eth to pay out\n        exchanges[tokenAddress].ethPool -= ethPaid;\n        return ethPaid;\n    }\n\n    function ethToToken(address tokenAddress, address recipient, uint256 minTokensOut) public payable hasLiquidity(tokenAddress) returns(uint256 tokensPaid){\n        uint256 tokensPaid = ethToTokenPrivate(tokenAddress, msg.value);\n        require(tokensPaid >= minTokensOut, \"tknsPaid < minTknsOut\");\n        emit TokenPurchase(tokenAddress, msg.sender, recipient, msg.value, tokensPaid);\n        require(exchanges[tokenAddress].token.transfer(recipient, tokensPaid), \"Tkn OUT transfer fail\");\n        return tokensPaid;\n    }\n\n    function tokenToEth(address tokenAddress, address recipient, uint256 tokensIn, uint256 minEthOut) public hasLiquidity(tokenAddress) returns(uint256 ethPaid){\n        require(exchanges[tokenAddress].token.transferFrom(msg.sender, address(this), tokensIn), \"Tkn IN transfer fail\");\n        uint256 ethPaid = tokenToEthPrivate(tokenAddress, tokensIn);\n        require(ethPaid >= minEthOut, \"ethPaid < minEthOut\");\n        emit EthPurchase(tokenAddress, msg.sender, recipient, tokensIn, ethPaid);\n        payable(recipient).call{value:ethPaid};\n        return ethPaid;\n    }\n\n    function tokenToToken(address tokenFromAddress, address recipient, address tokenToAddress, uint256 tokensIn, uint256 minTokensOut) public hasLiquidity(tokenFromAddress) hasLiquidity(tokenToAddress) returns(uint256 tokensPaid){\n        require(exchanges[tokenFromAddress].token.transferFrom(msg.sender, address(this), tokensIn), \"Tkn IN transfer fail\");\n        uint256 ethTransfer = tokenToEthPrivate(tokenFromAddress, tokensIn);\n        require(ethTransfer > 0, \"Not enough tokens in paid in\");\n        uint256 tokensOut = ethToTokenPrivate(tokenToAddress, ethTransfer);\n        require(tokensOut >= minTokensOut, \"Output less than minTokensOut\");\n        require(exchanges[tokenToAddress].token.transfer(recipient, tokensOut), \"Tkn OUT transfer fail\");\n        emit TokenToToken(tokenFromAddress, msg.sender, recipient, tokenToAddress, tokensIn, ethTransfer);\n        return tokensOut;\n    }\n}",
  "sourcePath": "contracts/MiniSwap.sol",
  "type": "contract"
}