{
    "abi": [
        {
            "inputs": [
                {
                    "internalType": "contract IERC20",
                    "name": "_token",
                    "type": "address"
                },
                {
                    "internalType": "uint256",
                    "name": "_fee",
                    "type": "uint256"
                }
            ],
            "stateMutability": "nonpayable",
            "type": "constructor",
            "name": "constructor"
        },
        {
            "anonymous": false,
            "inputs": [
                {
                    "indexed": true,
                    "internalType": "address",
                    "name": "user",
                    "type": "address"
                },
                {
                    "indexed": true,
                    "internalType": "uint256",
                    "name": "sharesBurned",
                    "type": "uint256"
                }
            ],
            "name": "Divestment",
            "type": "event"
        },
        {
            "anonymous": false,
            "inputs": [
                {
                    "indexed": true,
                    "internalType": "address",
                    "name": "user",
                    "type": "address"
                },
                {
                    "indexed": true,
                    "internalType": "address",
                    "name": "recipient",
                    "type": "address"
                },
                {
                    "indexed": false,
                    "internalType": "uint256",
                    "name": "tokensIn",
                    "type": "uint256"
                },
                {
                    "indexed": false,
                    "internalType": "uint256",
                    "name": "ethOut",
                    "type": "uint256"
                }
            ],
            "name": "EthPurchase",
            "type": "event"
        },
        {
            "anonymous": false,
            "inputs": [
                {
                    "indexed": true,
                    "internalType": "address",
                    "name": "user",
                    "type": "address"
                },
                {
                    "indexed": true,
                    "internalType": "uint256",
                    "name": "sharesPurchased",
                    "type": "uint256"
                }
            ],
            "name": "Investment",
            "type": "event"
        },
        {
            "anonymous": false,
            "inputs": [
                {
                    "indexed": true,
                    "internalType": "address",
                    "name": "user",
                    "type": "address"
                },
                {
                    "indexed": true,
                    "internalType": "address",
                    "name": "recipient",
                    "type": "address"
                },
                {
                    "indexed": false,
                    "internalType": "uint256",
                    "name": "ethIn",
                    "type": "uint256"
                },
                {
                    "indexed": false,
                    "internalType": "uint256",
                    "name": "tokensOut",
                    "type": "uint256"
                }
            ],
            "name": "TokenPurchase",
            "type": "event"
        },
        {
            "anonymous": false,
            "inputs": [
                {
                    "indexed": true,
                    "internalType": "address",
                    "name": "user",
                    "type": "address"
                },
                {
                    "indexed": true,
                    "internalType": "address",
                    "name": "recipient",
                    "type": "address"
                },
                {
                    "indexed": true,
                    "internalType": "address",
                    "name": "tokenExchangeAddress",
                    "type": "address"
                },
                {
                    "indexed": false,
                    "internalType": "uint256",
                    "name": "tokensIn",
                    "type": "uint256"
                },
                {
                    "indexed": false,
                    "internalType": "uint256",
                    "name": "ethTransfer",
                    "type": "uint256"
                }
            ],
            "name": "TokenToTokenOut",
            "type": "event"
        },
        {
            "inputs": [
                {
                    "internalType": "uint256",
                    "name": "shares",
                    "type": "uint256"
                }
            ],
            "name": "divest",
            "outputs": [],
            "stateMutability": "nonpayable",
            "type": "function"
        },
        {
            "inputs": [],
            "name": "ethPool",
            "outputs": [
                {
                    "internalType": "uint256",
                    "name": "",
                    "type": "uint256"
                }
            ],
            "stateMutability": "view",
            "type": "function"
        },
        {
            "inputs": [
                {
                    "internalType": "address",
                    "name": "recipient",
                    "type": "address"
                },
                {
                    "internalType": "uint256",
                    "name": "minTokensOut",
                    "type": "uint256"
                }
            ],
            "name": "ethToToken",
            "outputs": [
                {
                    "internalType": "uint256",
                    "name": "tokensPaid",
                    "type": "uint256"
                }
            ],
            "stateMutability": "payable",
            "type": "function"
        },
        {
            "inputs": [],
            "name": "factory",
            "outputs": [
                {
                    "internalType": "contract AstroSwapFactory",
                    "name": "",
                    "type": "address"
                }
            ],
            "stateMutability": "view",
            "type": "function"
        },
        {
            "inputs": [],
            "name": "feeAmmount",
            "outputs": [
                {
                    "internalType": "uint256",
                    "name": "",
                    "type": "uint256"
                }
            ],
            "stateMutability": "view",
            "type": "function"
        },
        {
            "inputs": [
                {
                    "internalType": "uint256",
                    "name": "ethValue",
                    "type": "uint256"
                }
            ],
            "name": "getEthToTokenQuote",
            "outputs": [
                {
                    "internalType": "uint256",
                    "name": "tokenQuote",
                    "type": "uint256"
                }
            ],
            "stateMutability": "view",
            "type": "function"
        },
        {
            "inputs": [
                {
                    "internalType": "address",
                    "name": "investor",
                    "type": "address"
                }
            ],
            "name": "getShares",
            "outputs": [
                {
                    "internalType": "uint256",
                    "name": "",
                    "type": "uint256"
                }
            ],
            "stateMutability": "view",
            "type": "function"
        },
        {
            "inputs": [
                {
                    "internalType": "uint256",
                    "name": "tokenValue",
                    "type": "uint256"
                }
            ],
            "name": "getTokenToEthQuote",
            "outputs": [
                {
                    "internalType": "uint256",
                    "name": "ethQuote",
                    "type": "uint256"
                }
            ],
            "stateMutability": "view",
            "type": "function"
        },
        {
            "inputs": [
                {
                    "internalType": "uint256",
                    "name": "tokenValue",
                    "type": "uint256"
                },
                {
                    "internalType": "address",
                    "name": "tokenOutAddress",
                    "type": "address"
                }
            ],
            "name": "getTokenToTokenQuote",
            "outputs": [
                {
                    "internalType": "uint256",
                    "name": "tokenQuote",
                    "type": "uint256"
                }
            ],
            "stateMutability": "view",
            "type": "function"
        },
        {
            "inputs": [],
            "name": "invariant",
            "outputs": [
                {
                    "internalType": "uint256",
                    "name": "",
                    "type": "uint256"
                }
            ],
            "stateMutability": "view",
            "type": "function"
        },
        {
            "inputs": [
                {
                    "internalType": "uint256",
                    "name": "maxTokensInvested",
                    "type": "uint256"
                }
            ],
            "name": "invest",
            "outputs": [],
            "stateMutability": "payable",
            "type": "function"
        },
        {
            "inputs": [
                {
                    "internalType": "address",
                    "name": "",
                    "type": "address"
                }
            ],
            "name": "investorShares",
            "outputs": [
                {
                    "internalType": "uint256",
                    "name": "",
                    "type": "uint256"
                }
            ],
            "stateMutability": "view",
            "type": "function"
        },
        {
            "inputs": [
                {
                    "internalType": "uint256",
                    "name": "tokenInvestment",
                    "type": "uint256"
                }
            ],
            "name": "seedInvest",
            "outputs": [],
            "stateMutability": "payable",
            "type": "function"
        },
        {
            "inputs": [],
            "name": "token",
            "outputs": [
                {
                    "internalType": "contract IERC20",
                    "name": "",
                    "type": "address"
                }
            ],
            "stateMutability": "view",
            "type": "function"
        },
        {
            "inputs": [],
            "name": "tokenPool",
            "outputs": [
                {
                    "internalType": "uint256",
                    "name": "",
                    "type": "uint256"
                }
            ],
            "stateMutability": "view",
            "type": "function"
        },
        {
            "inputs": [
                {
                    "internalType": "address",
                    "name": "recipient",
                    "type": "address"
                },
                {
                    "internalType": "uint256",
                    "name": "tokensIn",
                    "type": "uint256"
                },
                {
                    "internalType": "uint256",
                    "name": "minEthOut",
                    "type": "uint256"
                }
            ],
            "name": "tokenToEth",
            "outputs": [
                {
                    "internalType": "uint256",
                    "name": "ethPaid",
                    "type": "uint256"
                }
            ],
            "stateMutability": "nonpayable",
            "type": "function"
        },
        {
            "inputs": [
                {
                    "internalType": "address",
                    "name": "recipient",
                    "type": "address"
                },
                {
                    "internalType": "address",
                    "name": "tokenOutAddress",
                    "type": "address"
                },
                {
                    "internalType": "uint256",
                    "name": "tokensIn",
                    "type": "uint256"
                },
                {
                    "internalType": "uint256",
                    "name": "minTokensOut",
                    "type": "uint256"
                }
            ],
            "name": "tokenToToken",
            "outputs": [],
            "stateMutability": "nonpayable",
            "type": "function"
        },
        {
            "inputs": [],
            "name": "totalShares",
            "outputs": [
                {
                    "internalType": "uint256",
                    "name": "",
                    "type": "uint256"
                }
            ],
            "stateMutability": "view",
            "type": "function"
        }
    ],
    "bytecode": "608060405234801561001057600080fd5b5060405161158038038061158083398101604081905261002f91610068565b60008054336001600160a01b031991821617909155600291909155600180549091166001600160a01b03929092169190911790556100a2565b6000806040838503121561007b57600080fd5b82516001600160a01b038116811461009257600080fd5b6020939093015192949293505050565b6114cf806100b16000396000f3fe6080604052600436106101295760003560e01c8063c7f790a2116100a5578063e48c6bfe11610074578063f16673a411610059578063f16673a41461030f578063fad3136414610325578063fc0c546a1461034557600080fd5b8063e48c6bfe146102c3578063f04da65b146102d957600080fd5b8063c7f790a214610250578063d3179c5614610270578063d3690b6a14610283578063d91efc3b146102b057600080fd5b806373a5be9b116100fc5780638ca17995116100e15780638ca17995146101e2578063b03a9a0514610202578063c45a01551461021857600080fd5b806373a5be9b146101a25780637ed78044146101c257600080fd5b8063104e99291461012e57806317a7615e146101575780632afcf480146101775780633a98ef391461018c575b600080fd5b34801561013a57600080fd5b5061014460045481565b6040519081526020015b60405180910390f35b34801561016357600080fd5b5061014461017236600461125e565b610365565b61018a61018536600461128e565b61048a565b005b34801561019857600080fd5b5061014460075481565b3480156101ae57600080fd5b506101446101bd36600461128e565b610653565b3480156101ce57600080fd5b506101446101dd36600461128e565b6106af565b3480156101ee57600080fd5b5061018a6101fd36600461128e565b610703565b34801561020e57600080fd5b5061014460055481565b34801561022457600080fd5b50600054610238906001600160a01b031681565b6040516001600160a01b03909116815260200161014e565b34801561025c57600080fd5b5061014461026b3660046112a7565b6108e8565b61018a61027e36600461128e565b610a6a565b34801561028f57600080fd5b5061014461029e3660046112dc565b60066020526000908152604090205481565b6101446102be3660046112f9565b610c18565b3480156102cf57600080fd5b5061014460025481565b3480156102e557600080fd5b506101446102f43660046112dc565b6001600160a01b031660009081526006602052604090205490565b34801561031b57600080fd5b5061014460035481565b34801561033157600080fd5b5061018a610340366004611325565b610dae565b34801561035157600080fd5b50600154610238906001600160a01b031681565b600080610371846106af565b600080546040517fc3c49a630000000000000000000000000000000000000000000000000000000081526001600160a01b0387811660048301529394509192169063c3c49a6390602401602060405180830381865afa1580156103d8573d6000803e3d6000fd5b505050506040513d601f19601f820116820180604052508101906103fc919061136b565b6040517f73a5be9b000000000000000000000000000000000000000000000000000000008152600481018490529091506001600160a01b038216906373a5be9b90602401602060405180830381865afa15801561045d573d6000803e3d6000fd5b505050506040513d601f19601f820116820180604052508101906104819190611388565b95945050505050565b60003460035460045461049d91906113d0565b6104a7919061140b565b9050808210156104fe5760405162461bcd60e51b815260206004820152601960248201527f4d6178203c20726571756972656420696e766573746d656e740000000000000060448201526064015b60405180910390fd5b6001546040516323b872dd60e01b8152336004820152306024820152604481018390526001600160a01b03909116906323b872dd906064016020604051808303816000875af1158015610555573d6000803e3d6000fd5b505050506040513d601f19601f820116820180604052508101906105799190611448565b61058257600080fd5b600060045460075483610595919061140b565b61059f91906113d0565b905034600360008282546105b3919061146a565b9250508190555081600460008282546105cc919061146a565b90915550506004546003546105e1919061140b565b600555336000908152600660205260408120805483929061060390849061146a565b92505081905550806007600082825461061c919061146a565b9091555050604051819033907ffe123a1efb6782dccd20e9790951adcfab3cd0e11b85a6f06d8b9222d299a0a390600090a3505050565b6000806002548361066491906113d0565b9050600083600354610676919061146a565b90506106828282611482565b60055461068f91906113d0565b61069a90600161146a565b6004546106a79190611482565b949350505050565b600080600254836106c091906113d0565b90506000836004546106d2919061146a565b90506106de8282611482565b6005546106eb91906113d0565b6106f690600161146a565b6003546106a79190611482565b336000908152600660205260409020548111156107625760405162461bcd60e51b815260206004820152601b60248201527f4e6f7420656e6f7567682073686172657320746f20646976657374000000000060448201526064016104f5565b600060075482600354610775919061140b565b61077f91906113d0565b9050600060075483600454610794919061140b565b61079e91906113d0565b6001546040517fa9059cbb000000000000000000000000000000000000000000000000000000008152336004820152602481018390529192506001600160a01b03169063a9059cbb906044016020604051808303816000875af1158015610809573d6000803e3d6000fd5b505050506040513d601f19601f8201168201806040525081019061082d9190611448565b61083657600080fd5b81600360008282546108489190611482565b9250508190555080600460008282546108619190611482565b9091555050600454600354610876919061140b565b6005553360009081526006602052604081208054859290610898908490611482565b9250508190555082600760008282546108b19190611482565b9091555050604051839033907f04c88fcf03215155a0d0a2fdbd430ab9f32013f00499b2899c180dc6077180ca90600090a3505050565b600080600554116108f857600080fd5b6001546040516323b872dd60e01b8152336004820152306024820152604481018590526001600160a01b03909116906323b872dd906064016020604051808303816000875af115801561094f573d6000803e3d6000fd5b505050506040513d601f19601f820116820180604052508101906109739190611448565b6109bf5760405162461bcd60e51b815260206004820152601460248201527f546b6e20494e207472616e73666572206661696c00000000000000000000000060448201526064016104f5565b60006109ca846110a3565b905082811015610a1c5760405162461bcd60e51b815260206004820152601360248201527f65746850616964203c206d696e4574684f75740000000000000000000000000060448201526064016104f5565b60408051858152602081018390526001600160a01b0387169133917f90e08377d523c5e583beefcdb6735844f8d4e305be8e4e4003e940ee726ce24c910160405180910390a3949350505050565b60075415610ae05760405162461bcd60e51b815260206004820152603660248201527f4c697175696469747920706f6f6c20697320616c72656164792073656564656460448201527f2c2075736520696e76657374282920696e73746561640000000000000000000060648201526084016104f5565b600081118015610af05750600034115b610b3c5760405162461bcd60e51b815260206004820152601a60248201527f4d75737420696e766573742045544820616e6420746f6b656e7300000000000060448201526064016104f5565b6001546040516323b872dd60e01b8152336004820152306024820152604481018390526001600160a01b03909116906323b872dd906064016020604051808303816000875af1158015610b93573d6000803e3d6000fd5b505050506040513d601f19601f82011682018060405250810190610bb79190611448565b506004819055346003819055610bce90829061140b565b6005553360008181526006602052604080822061271090819055600781905590519092917ffe123a1efb6782dccd20e9790951adcfab3cd0e11b85a6f06d8b9222d299a0a391a350565b60008060055411610c2857600080fd5b6000610c333461117a565b905082811015610c855760405162461bcd60e51b815260206004820152601560248201527f746b6e7350616964203c206d696e546b6e734f7574000000000000000000000060448201526064016104f5565b60408051348152602081018390526001600160a01b0386169133917f623b3804fa71d67900d064613da8f94b9617215ee90799290593e1745087ad18910160405180910390a36001546040517fa9059cbb0000000000000000000000000000000000000000000000000000000081526001600160a01b038681166004830152602482018490529091169063a9059cbb906044016020604051808303816000875af1158015610d37573d6000803e3d6000fd5b505050506040513d601f19601f82011682018060405250810190610d5b9190611448565b610da75760405162461bcd60e51b815260206004820152601560248201527f546b6e204f5554207472616e73666572206661696c000000000000000000000060448201526064016104f5565b9392505050565b600060055411610dbd57600080fd5b6001546040516323b872dd60e01b8152336004820152306024820152604481018490526001600160a01b03909116906323b872dd906064016020604051808303816000875af1158015610e14573d6000803e3d6000fd5b505050506040513d601f19601f82011682018060405250810190610e389190611448565b610e845760405162461bcd60e51b815260206004820152601460248201527f546b6e20494e207472616e73666572206661696c00000000000000000000000060448201526064016104f5565b6000610e8f836110a3565b905060008111610ee15760405162461bcd60e51b815260206004820152601460248201527f457468206f757420697320746f6f20736d616c6c00000000000000000000000060448201526064016104f5565b600080546040517fc3c49a630000000000000000000000000000000000000000000000000000000081526001600160a01b0387811660048301529091169063c3c49a6390602401602060405180830381865afa158015610f45573d6000803e3d6000fd5b505050506040513d601f19601f82011682018060405250810190610f69919061136b565b6040517fd91efc3b0000000000000000000000000000000000000000000000000000000081526001600160a01b0388811660048301526024820186905291925060009183169063d91efc3b90859060440160206040518083038185885af1158015610fd8573d6000803e3d6000fd5b50505050506040513d601f19601f82011682018060405250810190610ffd9190611388565b90508381101561104f5760405162461bcd60e51b815260206004820152601d60248201527f4f7574707574206c657373207468616e206d696e546f6b656e734f757400000060448201526064016104f5565b60408051868152602081018590526001600160a01b0380851692908a169133917f984ded3c86142a79d1ff62a9d57305e530e14653b3343ab5bae22ffb4f99769c910160405180910390a450505050505050565b600080600254836110b491906113d0565b9050826004546110c4919061146a565b60048190556000906110d7908390611482565b6005546110e491906113d0565b6110ef90600161146a565b6003546110fc9190611482565b90506003548111156111505760405162461bcd60e51b815260206004820152601060248201527f4c61636b696e6720706f6f6c206574680000000000000000000000000000000060448201526064016104f5565b8060035461115e9190611482565b6003819055600454611170919061140b565b6005559392505050565b6000806002548361118b91906113d0565b90508260035461119b919061146a565b60038190556000906111ae908390611482565b6005546111bb91906113d0565b6111c690600161146a565b6004546111d39190611482565b90506004548111156112275760405162461bcd60e51b815260206004820152601360248201527f4c61636b696e6720706f6f6c20746f6b656e730000000000000000000000000060448201526064016104f5565b806004546112359190611482565b60048190556003546111709161140b565b6001600160a01b038116811461125b57600080fd5b50565b6000806040838503121561127157600080fd5b82359150602083013561128381611246565b809150509250929050565b6000602082840312156112a057600080fd5b5035919050565b6000806000606084860312156112bc57600080fd5b83356112c781611246565b95602085013595506040909401359392505050565b6000602082840312156112ee57600080fd5b8135610da781611246565b6000806040838503121561130c57600080fd5b823561131781611246565b946020939093013593505050565b6000806000806080858703121561133b57600080fd5b843561134681611246565b9350602085013561135681611246565b93969395505050506040820135916060013590565b60006020828403121561137d57600080fd5b8151610da781611246565b60006020828403121561139a57600080fd5b5051919050565b7f4e487b7100000000000000000000000000000000000000000000000000000000600052601160045260246000fd5b600082611406577f4e487b7100000000000000000000000000000000000000000000000000000000600052601260045260246000fd5b500490565b6000817fffffffffffffffffffffffffffffffffffffffffffffffffffffffffffffffff0483118215151615611443576114436113a1565b500290565b60006020828403121561145a57600080fd5b81518015158114610da757600080fd5b6000821982111561147d5761147d6113a1565b500190565b600082821015611494576114946113a1565b50039056fea264697066735822122000de3970f41be189e6cc73248a78c020eef73523d66db86d96b4ed20a0745d6e64736f6c634300080a0033",
    "bytecodeSha1": "5331c571764f2e2d459b6330dc06b71cbd901f03",
    "compiler": {
        "evm_version": "istanbul",
        "optimizer": {
            "enabled": true,
            "runs": 2000
        },
        "version": "0.8.10+commit.fc410830"
    },
    "contractName": "AstroSwapExchange",
    "language": "Solidity",
    "natspec": {
        "kind": "dev",
        "methods": {},
        "version": 1
    },
    "opcodes": "PUSH1 0x80 PUSH1 0x40 MSTORE PUSH1 0x4 CALLDATASIZE LT PUSH2 0x129 JUMPI PUSH1 0x0 CALLDATALOAD PUSH1 0xE0 SHR DUP1 PUSH4 0xC7F790A2 GT PUSH2 0xA5 JUMPI DUP1 PUSH4 0xE48C6BFE GT PUSH2 0x74 JUMPI DUP1 PUSH4 0xF16673A4 GT PUSH2 0x59 JUMPI DUP1 PUSH4 0xF16673A4 EQ PUSH2 0x30F JUMPI DUP1 PUSH4 0xFAD31364 EQ PUSH2 0x325 JUMPI DUP1 PUSH4 0xFC0C546A EQ PUSH2 0x345 JUMPI PUSH1 0x0 DUP1 REVERT JUMPDEST DUP1 PUSH4 0xE48C6BFE EQ PUSH2 0x2C3 JUMPI DUP1 PUSH4 0xF04DA65B EQ PUSH2 0x2D9 JUMPI PUSH1 0x0 DUP1 REVERT JUMPDEST DUP1 PUSH4 0xC7F790A2 EQ PUSH2 0x250 JUMPI DUP1 PUSH4 0xD3179C56 EQ PUSH2 0x270 JUMPI DUP1 PUSH4 0xD3690B6A EQ PUSH2 0x283 JUMPI DUP1 PUSH4 0xD91EFC3B EQ PUSH2 0x2B0 JUMPI PUSH1 0x0 DUP1 REVERT JUMPDEST DUP1 PUSH4 0x73A5BE9B GT PUSH2 0xFC JUMPI DUP1 PUSH4 0x8CA17995 GT PUSH2 0xE1 JUMPI DUP1 PUSH4 0x8CA17995 EQ PUSH2 0x1E2 JUMPI DUP1 PUSH4 0xB03A9A05 EQ PUSH2 0x202 JUMPI DUP1 PUSH4 0xC45A0155 EQ PUSH2 0x218 JUMPI PUSH1 0x0 DUP1 REVERT JUMPDEST DUP1 PUSH4 0x73A5BE9B EQ PUSH2 0x1A2 JUMPI DUP1 PUSH4 0x7ED78044 EQ PUSH2 0x1C2 JUMPI PUSH1 0x0 DUP1 REVERT JUMPDEST DUP1 PUSH4 0x104E9929 EQ PUSH2 0x12E JUMPI DUP1 PUSH4 0x17A7615E EQ PUSH2 0x157 JUMPI DUP1 PUSH4 0x2AFCF480 EQ PUSH2 0x177 JUMPI DUP1 PUSH4 0x3A98EF39 EQ PUSH2 0x18C JUMPI JUMPDEST PUSH1 0x0 DUP1 REVERT JUMPDEST CALLVALUE DUP1 ISZERO PUSH2 0x13A JUMPI PUSH1 0x0 DUP1 REVERT JUMPDEST POP PUSH2 0x144 PUSH1 0x4 SLOAD DUP2 JUMP JUMPDEST PUSH1 0x40 MLOAD SWAP1 DUP2 MSTORE PUSH1 0x20 ADD JUMPDEST PUSH1 0x40 MLOAD DUP1 SWAP2 SUB SWAP1 RETURN JUMPDEST CALLVALUE DUP1 ISZERO PUSH2 0x163 JUMPI PUSH1 0x0 DUP1 REVERT JUMPDEST POP PUSH2 0x144 PUSH2 0x172 CALLDATASIZE PUSH1 0x4 PUSH2 0x125E JUMP JUMPDEST PUSH2 0x365 JUMP JUMPDEST PUSH2 0x18A PUSH2 0x185 CALLDATASIZE PUSH1 0x4 PUSH2 0x128E JUMP JUMPDEST PUSH2 0x48A JUMP JUMPDEST STOP JUMPDEST CALLVALUE DUP1 ISZERO PUSH2 0x198 JUMPI PUSH1 0x0 DUP1 REVERT JUMPDEST POP PUSH2 0x144 PUSH1 0x7 SLOAD DUP2 JUMP JUMPDEST CALLVALUE DUP1 ISZERO PUSH2 0x1AE JUMPI PUSH1 0x0 DUP1 REVERT JUMPDEST POP PUSH2 0x144 PUSH2 0x1BD CALLDATASIZE PUSH1 0x4 PUSH2 0x128E JUMP JUMPDEST PUSH2 0x653 JUMP JUMPDEST CALLVALUE DUP1 ISZERO PUSH2 0x1CE JUMPI PUSH1 0x0 DUP1 REVERT JUMPDEST POP PUSH2 0x144 PUSH2 0x1DD CALLDATASIZE PUSH1 0x4 PUSH2 0x128E JUMP JUMPDEST PUSH2 0x6AF JUMP JUMPDEST CALLVALUE DUP1 ISZERO PUSH2 0x1EE JUMPI PUSH1 0x0 DUP1 REVERT JUMPDEST POP PUSH2 0x18A PUSH2 0x1FD CALLDATASIZE PUSH1 0x4 PUSH2 0x128E JUMP JUMPDEST PUSH2 0x703 JUMP JUMPDEST CALLVALUE DUP1 ISZERO PUSH2 0x20E JUMPI PUSH1 0x0 DUP1 REVERT JUMPDEST POP PUSH2 0x144 PUSH1 0x5 SLOAD DUP2 JUMP JUMPDEST CALLVALUE DUP1 ISZERO PUSH2 0x224 JUMPI PUSH1 0x0 DUP1 REVERT JUMPDEST POP PUSH1 0x0 SLOAD PUSH2 0x238 SWAP1 PUSH1 0x1 PUSH1 0x1 PUSH1 0xA0 SHL SUB AND DUP2 JUMP JUMPDEST PUSH1 0x40 MLOAD PUSH1 0x1 PUSH1 0x1 PUSH1 0xA0 SHL SUB SWAP1 SWAP2 AND DUP2 MSTORE PUSH1 0x20 ADD PUSH2 0x14E JUMP JUMPDEST CALLVALUE DUP1 ISZERO PUSH2 0x25C JUMPI PUSH1 0x0 DUP1 REVERT JUMPDEST POP PUSH2 0x144 PUSH2 0x26B CALLDATASIZE PUSH1 0x4 PUSH2 0x12A7 JUMP JUMPDEST PUSH2 0x8E8 JUMP JUMPDEST PUSH2 0x18A PUSH2 0x27E CALLDATASIZE PUSH1 0x4 PUSH2 0x128E JUMP JUMPDEST PUSH2 0xA6A JUMP JUMPDEST CALLVALUE DUP1 ISZERO PUSH2 0x28F JUMPI PUSH1 0x0 DUP1 REVERT JUMPDEST POP PUSH2 0x144 PUSH2 0x29E CALLDATASIZE PUSH1 0x4 PUSH2 0x12DC JUMP JUMPDEST PUSH1 0x6 PUSH1 0x20 MSTORE PUSH1 0x0 SWAP1 DUP2 MSTORE PUSH1 0x40 SWAP1 KECCAK256 SLOAD DUP2 JUMP JUMPDEST PUSH2 0x144 PUSH2 0x2BE CALLDATASIZE PUSH1 0x4 PUSH2 0x12F9 JUMP JUMPDEST PUSH2 0xC18 JUMP JUMPDEST CALLVALUE DUP1 ISZERO PUSH2 0x2CF JUMPI PUSH1 0x0 DUP1 REVERT JUMPDEST POP PUSH2 0x144 PUSH1 0x2 SLOAD DUP2 JUMP JUMPDEST CALLVALUE DUP1 ISZERO PUSH2 0x2E5 JUMPI PUSH1 0x0 DUP1 REVERT JUMPDEST POP PUSH2 0x144 PUSH2 0x2F4 CALLDATASIZE PUSH1 0x4 PUSH2 0x12DC JUMP JUMPDEST PUSH1 0x1 PUSH1 0x1 PUSH1 0xA0 SHL SUB AND PUSH1 0x0 SWAP1 DUP2 MSTORE PUSH1 0x6 PUSH1 0x20 MSTORE PUSH1 0x40 SWAP1 KECCAK256 SLOAD SWAP1 JUMP JUMPDEST CALLVALUE DUP1 ISZERO PUSH2 0x31B JUMPI PUSH1 0x0 DUP1 REVERT JUMPDEST POP PUSH2 0x144 PUSH1 0x3 SLOAD DUP2 JUMP JUMPDEST CALLVALUE DUP1 ISZERO PUSH2 0x331 JUMPI PUSH1 0x0 DUP1 REVERT JUMPDEST POP PUSH2 0x18A PUSH2 0x340 CALLDATASIZE PUSH1 0x4 PUSH2 0x1325 JUMP JUMPDEST PUSH2 0xDAE JUMP JUMPDEST CALLVALUE DUP1 ISZERO PUSH2 0x351 JUMPI PUSH1 0x0 DUP1 REVERT JUMPDEST POP PUSH1 0x1 SLOAD PUSH2 0x238 SWAP1 PUSH1 0x1 PUSH1 0x1 PUSH1 0xA0 SHL SUB AND DUP2 JUMP JUMPDEST PUSH1 0x0 DUP1 PUSH2 0x371 DUP5 PUSH2 0x6AF JUMP JUMPDEST PUSH1 0x0 DUP1 SLOAD PUSH1 0x40 MLOAD PUSH32 0xC3C49A6300000000000000000000000000000000000000000000000000000000 DUP2 MSTORE PUSH1 0x1 PUSH1 0x1 PUSH1 0xA0 SHL SUB DUP8 DUP2 AND PUSH1 0x4 DUP4 ADD MSTORE SWAP4 SWAP5 POP SWAP2 SWAP3 AND SWAP1 PUSH4 0xC3C49A63 SWAP1 PUSH1 0x24 ADD PUSH1 0x20 PUSH1 0x40 MLOAD DUP1 DUP4 SUB DUP2 DUP7 GAS STATICCALL ISZERO DUP1 ISZERO PUSH2 0x3D8 JUMPI RETURNDATASIZE PUSH1 0x0 DUP1 RETURNDATACOPY RETURNDATASIZE PUSH1 0x0 REVERT JUMPDEST POP POP POP POP PUSH1 0x40 MLOAD RETURNDATASIZE PUSH1 0x1F NOT PUSH1 0x1F DUP3 ADD AND DUP3 ADD DUP1 PUSH1 0x40 MSTORE POP DUP2 ADD SWAP1 PUSH2 0x3FC SWAP2 SWAP1 PUSH2 0x136B JUMP JUMPDEST PUSH1 0x40 MLOAD PUSH32 0x73A5BE9B00000000000000000000000000000000000000000000000000000000 DUP2 MSTORE PUSH1 0x4 DUP2 ADD DUP5 SWAP1 MSTORE SWAP1 SWAP2 POP PUSH1 0x1 PUSH1 0x1 PUSH1 0xA0 SHL SUB DUP3 AND SWAP1 PUSH4 0x73A5BE9B SWAP1 PUSH1 0x24 ADD PUSH1 0x20 PUSH1 0x40 MLOAD DUP1 DUP4 SUB DUP2 DUP7 GAS STATICCALL ISZERO DUP1 ISZERO PUSH2 0x45D JUMPI RETURNDATASIZE PUSH1 0x0 DUP1 RETURNDATACOPY RETURNDATASIZE PUSH1 0x0 REVERT JUMPDEST POP POP POP POP PUSH1 0x40 MLOAD RETURNDATASIZE PUSH1 0x1F NOT PUSH1 0x1F DUP3 ADD AND DUP3 ADD DUP1 PUSH1 0x40 MSTORE POP DUP2 ADD SWAP1 PUSH2 0x481 SWAP2 SWAP1 PUSH2 0x1388 JUMP JUMPDEST SWAP6 SWAP5 POP POP POP POP POP JUMP JUMPDEST PUSH1 0x0 CALLVALUE PUSH1 0x3 SLOAD PUSH1 0x4 SLOAD PUSH2 0x49D SWAP2 SWAP1 PUSH2 0x13D0 JUMP JUMPDEST PUSH2 0x4A7 SWAP2 SWAP1 PUSH2 0x140B JUMP JUMPDEST SWAP1 POP DUP1 DUP3 LT ISZERO PUSH2 0x4FE JUMPI PUSH1 0x40 MLOAD PUSH3 0x461BCD PUSH1 0xE5 SHL DUP2 MSTORE PUSH1 0x20 PUSH1 0x4 DUP3 ADD MSTORE PUSH1 0x19 PUSH1 0x24 DUP3 ADD MSTORE PUSH32 0x4D6178203C20726571756972656420696E766573746D656E7400000000000000 PUSH1 0x44 DUP3 ADD MSTORE PUSH1 0x64 ADD JUMPDEST PUSH1 0x40 MLOAD DUP1 SWAP2 SUB SWAP1 REVERT JUMPDEST PUSH1 0x1 SLOAD PUSH1 0x40 MLOAD PUSH4 0x23B872DD PUSH1 0xE0 SHL DUP2 MSTORE CALLER PUSH1 0x4 DUP3 ADD MSTORE ADDRESS PUSH1 0x24 DUP3 ADD MSTORE PUSH1 0x44 DUP2 ADD DUP4 SWAP1 MSTORE PUSH1 0x1 PUSH1 0x1 PUSH1 0xA0 SHL SUB SWAP1 SWAP2 AND SWAP1 PUSH4 0x23B872DD SWAP1 PUSH1 0x64 ADD PUSH1 0x20 PUSH1 0x40 MLOAD DUP1 DUP4 SUB DUP2 PUSH1 0x0 DUP8 GAS CALL ISZERO DUP1 ISZERO PUSH2 0x555 JUMPI RETURNDATASIZE PUSH1 0x0 DUP1 RETURNDATACOPY RETURNDATASIZE PUSH1 0x0 REVERT JUMPDEST POP POP POP POP PUSH1 0x40 MLOAD RETURNDATASIZE PUSH1 0x1F NOT PUSH1 0x1F DUP3 ADD AND DUP3 ADD DUP1 PUSH1 0x40 MSTORE POP DUP2 ADD SWAP1 PUSH2 0x579 SWAP2 SWAP1 PUSH2 0x1448 JUMP JUMPDEST PUSH2 0x582 JUMPI PUSH1 0x0 DUP1 REVERT JUMPDEST PUSH1 0x0 PUSH1 0x4 SLOAD PUSH1 0x7 SLOAD DUP4 PUSH2 0x595 SWAP2 SWAP1 PUSH2 0x140B JUMP JUMPDEST PUSH2 0x59F SWAP2 SWAP1 PUSH2 0x13D0 JUMP JUMPDEST SWAP1 POP CALLVALUE PUSH1 0x3 PUSH1 0x0 DUP3 DUP3 SLOAD PUSH2 0x5B3 SWAP2 SWAP1 PUSH2 0x146A JUMP JUMPDEST SWAP3 POP POP DUP2 SWAP1 SSTORE POP DUP2 PUSH1 0x4 PUSH1 0x0 DUP3 DUP3 SLOAD PUSH2 0x5CC SWAP2 SWAP1 PUSH2 0x146A JUMP JUMPDEST SWAP1 SWAP2 SSTORE POP POP PUSH1 0x4 SLOAD PUSH1 0x3 SLOAD PUSH2 0x5E1 SWAP2 SWAP1 PUSH2 0x140B JUMP JUMPDEST PUSH1 0x5 SSTORE CALLER PUSH1 0x0 SWAP1 DUP2 MSTORE PUSH1 0x6 PUSH1 0x20 MSTORE PUSH1 0x40 DUP2 KECCAK256 DUP1 SLOAD DUP4 SWAP3 SWAP1 PUSH2 0x603 SWAP1 DUP5 SWAP1 PUSH2 0x146A JUMP JUMPDEST SWAP3 POP POP DUP2 SWAP1 SSTORE POP DUP1 PUSH1 0x7 PUSH1 0x0 DUP3 DUP3 SLOAD PUSH2 0x61C SWAP2 SWAP1 PUSH2 0x146A JUMP JUMPDEST SWAP1 SWAP2 SSTORE POP POP PUSH1 0x40 MLOAD DUP2 SWAP1 CALLER SWAP1 PUSH32 0xFE123A1EFB6782DCCD20E9790951ADCFAB3CD0E11B85A6F06D8B9222D299A0A3 SWAP1 PUSH1 0x0 SWAP1 LOG3 POP POP POP JUMP JUMPDEST PUSH1 0x0 DUP1 PUSH1 0x2 SLOAD DUP4 PUSH2 0x664 SWAP2 SWAP1 PUSH2 0x13D0 JUMP JUMPDEST SWAP1 POP PUSH1 0x0 DUP4 PUSH1 0x3 SLOAD PUSH2 0x676 SWAP2 SWAP1 PUSH2 0x146A JUMP JUMPDEST SWAP1 POP PUSH2 0x682 DUP3 DUP3 PUSH2 0x1482 JUMP JUMPDEST PUSH1 0x5 SLOAD PUSH2 0x68F SWAP2 SWAP1 PUSH2 0x13D0 JUMP JUMPDEST PUSH2 0x69A SWAP1 PUSH1 0x1 PUSH2 0x146A JUMP JUMPDEST PUSH1 0x4 SLOAD PUSH2 0x6A7 SWAP2 SWAP1 PUSH2 0x1482 JUMP JUMPDEST SWAP5 SWAP4 POP POP POP POP JUMP JUMPDEST PUSH1 0x0 DUP1 PUSH1 0x2 SLOAD DUP4 PUSH2 0x6C0 SWAP2 SWAP1 PUSH2 0x13D0 JUMP JUMPDEST SWAP1 POP PUSH1 0x0 DUP4 PUSH1 0x4 SLOAD PUSH2 0x6D2 SWAP2 SWAP1 PUSH2 0x146A JUMP JUMPDEST SWAP1 POP PUSH2 0x6DE DUP3 DUP3 PUSH2 0x1482 JUMP JUMPDEST PUSH1 0x5 SLOAD PUSH2 0x6EB SWAP2 SWAP1 PUSH2 0x13D0 JUMP JUMPDEST PUSH2 0x6F6 SWAP1 PUSH1 0x1 PUSH2 0x146A JUMP JUMPDEST PUSH1 0x3 SLOAD PUSH2 0x6A7 SWAP2 SWAP1 PUSH2 0x1482 JUMP JUMPDEST CALLER PUSH1 0x0 SWAP1 DUP2 MSTORE PUSH1 0x6 PUSH1 0x20 MSTORE PUSH1 0x40 SWAP1 KECCAK256 SLOAD DUP2 GT ISZERO PUSH2 0x762 JUMPI PUSH1 0x40 MLOAD PUSH3 0x461BCD PUSH1 0xE5 SHL DUP2 MSTORE PUSH1 0x20 PUSH1 0x4 DUP3 ADD MSTORE PUSH1 0x1B PUSH1 0x24 DUP3 ADD MSTORE PUSH32 0x4E6F7420656E6F7567682073686172657320746F206469766573740000000000 PUSH1 0x44 DUP3 ADD MSTORE PUSH1 0x64 ADD PUSH2 0x4F5 JUMP JUMPDEST PUSH1 0x0 PUSH1 0x7 SLOAD DUP3 PUSH1 0x3 SLOAD PUSH2 0x775 SWAP2 SWAP1 PUSH2 0x140B JUMP JUMPDEST PUSH2 0x77F SWAP2 SWAP1 PUSH2 0x13D0 JUMP JUMPDEST SWAP1 POP PUSH1 0x0 PUSH1 0x7 SLOAD DUP4 PUSH1 0x4 SLOAD PUSH2 0x794 SWAP2 SWAP1 PUSH2 0x140B JUMP JUMPDEST PUSH2 0x79E SWAP2 SWAP1 PUSH2 0x13D0 JUMP JUMPDEST PUSH1 0x1 SLOAD PUSH1 0x40 MLOAD PUSH32 0xA9059CBB00000000000000000000000000000000000000000000000000000000 DUP2 MSTORE CALLER PUSH1 0x4 DUP3 ADD MSTORE PUSH1 0x24 DUP2 ADD DUP4 SWAP1 MSTORE SWAP2 SWAP3 POP PUSH1 0x1 PUSH1 0x1 PUSH1 0xA0 SHL SUB AND SWAP1 PUSH4 0xA9059CBB SWAP1 PUSH1 0x44 ADD PUSH1 0x20 PUSH1 0x40 MLOAD DUP1 DUP4 SUB DUP2 PUSH1 0x0 DUP8 GAS CALL ISZERO DUP1 ISZERO PUSH2 0x809 JUMPI RETURNDATASIZE PUSH1 0x0 DUP1 RETURNDATACOPY RETURNDATASIZE PUSH1 0x0 REVERT JUMPDEST POP POP POP POP PUSH1 0x40 MLOAD RETURNDATASIZE PUSH1 0x1F NOT PUSH1 0x1F DUP3 ADD AND DUP3 ADD DUP1 PUSH1 0x40 MSTORE POP DUP2 ADD SWAP1 PUSH2 0x82D SWAP2 SWAP1 PUSH2 0x1448 JUMP JUMPDEST PUSH2 0x836 JUMPI PUSH1 0x0 DUP1 REVERT JUMPDEST DUP2 PUSH1 0x3 PUSH1 0x0 DUP3 DUP3 SLOAD PUSH2 0x848 SWAP2 SWAP1 PUSH2 0x1482 JUMP JUMPDEST SWAP3 POP POP DUP2 SWAP1 SSTORE POP DUP1 PUSH1 0x4 PUSH1 0x0 DUP3 DUP3 SLOAD PUSH2 0x861 SWAP2 SWAP1 PUSH2 0x1482 JUMP JUMPDEST SWAP1 SWAP2 SSTORE POP POP PUSH1 0x4 SLOAD PUSH1 0x3 SLOAD PUSH2 0x876 SWAP2 SWAP1 PUSH2 0x140B JUMP JUMPDEST PUSH1 0x5 SSTORE CALLER PUSH1 0x0 SWAP1 DUP2 MSTORE PUSH1 0x6 PUSH1 0x20 MSTORE PUSH1 0x40 DUP2 KECCAK256 DUP1 SLOAD DUP6 SWAP3 SWAP1 PUSH2 0x898 SWAP1 DUP5 SWAP1 PUSH2 0x1482 JUMP JUMPDEST SWAP3 POP POP DUP2 SWAP1 SSTORE POP DUP3 PUSH1 0x7 PUSH1 0x0 DUP3 DUP3 SLOAD PUSH2 0x8B1 SWAP2 SWAP1 PUSH2 0x1482 JUMP JUMPDEST SWAP1 SWAP2 SSTORE POP POP PUSH1 0x40 MLOAD DUP4 SWAP1 CALLER SWAP1 PUSH32 0x4C88FCF03215155A0D0A2FDBD430AB9F32013F00499B2899C180DC6077180CA SWAP1 PUSH1 0x0 SWAP1 LOG3 POP POP POP JUMP JUMPDEST PUSH1 0x0 DUP1 PUSH1 0x5 SLOAD GT PUSH2 0x8F8 JUMPI PUSH1 0x0 DUP1 REVERT JUMPDEST PUSH1 0x1 SLOAD PUSH1 0x40 MLOAD PUSH4 0x23B872DD PUSH1 0xE0 SHL DUP2 MSTORE CALLER PUSH1 0x4 DUP3 ADD MSTORE ADDRESS PUSH1 0x24 DUP3 ADD MSTORE PUSH1 0x44 DUP2 ADD DUP6 SWAP1 MSTORE PUSH1 0x1 PUSH1 0x1 PUSH1 0xA0 SHL SUB SWAP1 SWAP2 AND SWAP1 PUSH4 0x23B872DD SWAP1 PUSH1 0x64 ADD PUSH1 0x20 PUSH1 0x40 MLOAD DUP1 DUP4 SUB DUP2 PUSH1 0x0 DUP8 GAS CALL ISZERO DUP1 ISZERO PUSH2 0x94F JUMPI RETURNDATASIZE PUSH1 0x0 DUP1 RETURNDATACOPY RETURNDATASIZE PUSH1 0x0 REVERT JUMPDEST POP POP POP POP PUSH1 0x40 MLOAD RETURNDATASIZE PUSH1 0x1F NOT PUSH1 0x1F DUP3 ADD AND DUP3 ADD DUP1 PUSH1 0x40 MSTORE POP DUP2 ADD SWAP1 PUSH2 0x973 SWAP2 SWAP1 PUSH2 0x1448 JUMP JUMPDEST PUSH2 0x9BF JUMPI PUSH1 0x40 MLOAD PUSH3 0x461BCD PUSH1 0xE5 SHL DUP2 MSTORE PUSH1 0x20 PUSH1 0x4 DUP3 ADD MSTORE PUSH1 0x14 PUSH1 0x24 DUP3 ADD MSTORE PUSH32 0x546B6E20494E207472616E73666572206661696C000000000000000000000000 PUSH1 0x44 DUP3 ADD MSTORE PUSH1 0x64 ADD PUSH2 0x4F5 JUMP JUMPDEST PUSH1 0x0 PUSH2 0x9CA DUP5 PUSH2 0x10A3 JUMP JUMPDEST SWAP1 POP DUP3 DUP2 LT ISZERO PUSH2 0xA1C JUMPI PUSH1 0x40 MLOAD PUSH3 0x461BCD PUSH1 0xE5 SHL DUP2 MSTORE PUSH1 0x20 PUSH1 0x4 DUP3 ADD MSTORE PUSH1 0x13 PUSH1 0x24 DUP3 ADD MSTORE PUSH32 0x65746850616964203C206D696E4574684F757400000000000000000000000000 PUSH1 0x44 DUP3 ADD MSTORE PUSH1 0x64 ADD PUSH2 0x4F5 JUMP JUMPDEST PUSH1 0x40 DUP1 MLOAD DUP6 DUP2 MSTORE PUSH1 0x20 DUP2 ADD DUP4 SWAP1 MSTORE PUSH1 0x1 PUSH1 0x1 PUSH1 0xA0 SHL SUB DUP8 AND SWAP2 CALLER SWAP2 PUSH32 0x90E08377D523C5E583BEEFCDB6735844F8D4E305BE8E4E4003E940EE726CE24C SWAP2 ADD PUSH1 0x40 MLOAD DUP1 SWAP2 SUB SWAP1 LOG3 SWAP5 SWAP4 POP POP POP POP JUMP JUMPDEST PUSH1 0x7 SLOAD ISZERO PUSH2 0xAE0 JUMPI PUSH1 0x40 MLOAD PUSH3 0x461BCD PUSH1 0xE5 SHL DUP2 MSTORE PUSH1 0x20 PUSH1 0x4 DUP3 ADD MSTORE PUSH1 0x36 PUSH1 0x24 DUP3 ADD MSTORE PUSH32 0x4C697175696469747920706F6F6C20697320616C726561647920736565646564 PUSH1 0x44 DUP3 ADD MSTORE PUSH32 0x2C2075736520696E76657374282920696E737465616400000000000000000000 PUSH1 0x64 DUP3 ADD MSTORE PUSH1 0x84 ADD PUSH2 0x4F5 JUMP JUMPDEST PUSH1 0x0 DUP2 GT DUP1 ISZERO PUSH2 0xAF0 JUMPI POP PUSH1 0x0 CALLVALUE GT JUMPDEST PUSH2 0xB3C JUMPI PUSH1 0x40 MLOAD PUSH3 0x461BCD PUSH1 0xE5 SHL DUP2 MSTORE PUSH1 0x20 PUSH1 0x4 DUP3 ADD MSTORE PUSH1 0x1A PUSH1 0x24 DUP3 ADD MSTORE PUSH32 0x4D75737420696E766573742045544820616E6420746F6B656E73000000000000 PUSH1 0x44 DUP3 ADD MSTORE PUSH1 0x64 ADD PUSH2 0x4F5 JUMP JUMPDEST PUSH1 0x1 SLOAD PUSH1 0x40 MLOAD PUSH4 0x23B872DD PUSH1 0xE0 SHL DUP2 MSTORE CALLER PUSH1 0x4 DUP3 ADD MSTORE ADDRESS PUSH1 0x24 DUP3 ADD MSTORE PUSH1 0x44 DUP2 ADD DUP4 SWAP1 MSTORE PUSH1 0x1 PUSH1 0x1 PUSH1 0xA0 SHL SUB SWAP1 SWAP2 AND SWAP1 PUSH4 0x23B872DD SWAP1 PUSH1 0x64 ADD PUSH1 0x20 PUSH1 0x40 MLOAD DUP1 DUP4 SUB DUP2 PUSH1 0x0 DUP8 GAS CALL ISZERO DUP1 ISZERO PUSH2 0xB93 JUMPI RETURNDATASIZE PUSH1 0x0 DUP1 RETURNDATACOPY RETURNDATASIZE PUSH1 0x0 REVERT JUMPDEST POP POP POP POP PUSH1 0x40 MLOAD RETURNDATASIZE PUSH1 0x1F NOT PUSH1 0x1F DUP3 ADD AND DUP3 ADD DUP1 PUSH1 0x40 MSTORE POP DUP2 ADD SWAP1 PUSH2 0xBB7 SWAP2 SWAP1 PUSH2 0x1448 JUMP JUMPDEST POP PUSH1 0x4 DUP2 SWAP1 SSTORE CALLVALUE PUSH1 0x3 DUP2 SWAP1 SSTORE PUSH2 0xBCE SWAP1 DUP3 SWAP1 PUSH2 0x140B JUMP JUMPDEST PUSH1 0x5 SSTORE CALLER PUSH1 0x0 DUP2 DUP2 MSTORE PUSH1 0x6 PUSH1 0x20 MSTORE PUSH1 0x40 DUP1 DUP3 KECCAK256 PUSH2 0x2710 SWAP1 DUP2 SWAP1 SSTORE PUSH1 0x7 DUP2 SWAP1 SSTORE SWAP1 MLOAD SWAP1 SWAP3 SWAP2 PUSH32 0xFE123A1EFB6782DCCD20E9790951ADCFAB3CD0E11B85A6F06D8B9222D299A0A3 SWAP2 LOG3 POP JUMP JUMPDEST PUSH1 0x0 DUP1 PUSH1 0x5 SLOAD GT PUSH2 0xC28 JUMPI PUSH1 0x0 DUP1 REVERT JUMPDEST PUSH1 0x0 PUSH2 0xC33 CALLVALUE PUSH2 0x117A JUMP JUMPDEST SWAP1 POP DUP3 DUP2 LT ISZERO PUSH2 0xC85 JUMPI PUSH1 0x40 MLOAD PUSH3 0x461BCD PUSH1 0xE5 SHL DUP2 MSTORE PUSH1 0x20 PUSH1 0x4 DUP3 ADD MSTORE PUSH1 0x15 PUSH1 0x24 DUP3 ADD MSTORE PUSH32 0x746B6E7350616964203C206D696E546B6E734F75740000000000000000000000 PUSH1 0x44 DUP3 ADD MSTORE PUSH1 0x64 ADD PUSH2 0x4F5 JUMP JUMPDEST PUSH1 0x40 DUP1 MLOAD CALLVALUE DUP2 MSTORE PUSH1 0x20 DUP2 ADD DUP4 SWAP1 MSTORE PUSH1 0x1 PUSH1 0x1 PUSH1 0xA0 SHL SUB DUP7 AND SWAP2 CALLER SWAP2 PUSH32 0x623B3804FA71D67900D064613DA8F94B9617215EE90799290593E1745087AD18 SWAP2 ADD PUSH1 0x40 MLOAD DUP1 SWAP2 SUB SWAP1 LOG3 PUSH1 0x1 SLOAD PUSH1 0x40 MLOAD PUSH32 0xA9059CBB00000000000000000000000000000000000000000000000000000000 DUP2 MSTORE PUSH1 0x1 PUSH1 0x1 PUSH1 0xA0 SHL SUB DUP7 DUP2 AND PUSH1 0x4 DUP4 ADD MSTORE PUSH1 0x24 DUP3 ADD DUP5 SWAP1 MSTORE SWAP1 SWAP2 AND SWAP1 PUSH4 0xA9059CBB SWAP1 PUSH1 0x44 ADD PUSH1 0x20 PUSH1 0x40 MLOAD DUP1 DUP4 SUB DUP2 PUSH1 0x0 DUP8 GAS CALL ISZERO DUP1 ISZERO PUSH2 0xD37 JUMPI RETURNDATASIZE PUSH1 0x0 DUP1 RETURNDATACOPY RETURNDATASIZE PUSH1 0x0 REVERT JUMPDEST POP POP POP POP PUSH1 0x40 MLOAD RETURNDATASIZE PUSH1 0x1F NOT PUSH1 0x1F DUP3 ADD AND DUP3 ADD DUP1 PUSH1 0x40 MSTORE POP DUP2 ADD SWAP1 PUSH2 0xD5B SWAP2 SWAP1 PUSH2 0x1448 JUMP JUMPDEST PUSH2 0xDA7 JUMPI PUSH1 0x40 MLOAD PUSH3 0x461BCD PUSH1 0xE5 SHL DUP2 MSTORE PUSH1 0x20 PUSH1 0x4 DUP3 ADD MSTORE PUSH1 0x15 PUSH1 0x24 DUP3 ADD MSTORE PUSH32 0x546B6E204F5554207472616E73666572206661696C0000000000000000000000 PUSH1 0x44 DUP3 ADD MSTORE PUSH1 0x64 ADD PUSH2 0x4F5 JUMP JUMPDEST SWAP4 SWAP3 POP POP POP JUMP JUMPDEST PUSH1 0x0 PUSH1 0x5 SLOAD GT PUSH2 0xDBD JUMPI PUSH1 0x0 DUP1 REVERT JUMPDEST PUSH1 0x1 SLOAD PUSH1 0x40 MLOAD PUSH4 0x23B872DD PUSH1 0xE0 SHL DUP2 MSTORE CALLER PUSH1 0x4 DUP3 ADD MSTORE ADDRESS PUSH1 0x24 DUP3 ADD MSTORE PUSH1 0x44 DUP2 ADD DUP5 SWAP1 MSTORE PUSH1 0x1 PUSH1 0x1 PUSH1 0xA0 SHL SUB SWAP1 SWAP2 AND SWAP1 PUSH4 0x23B872DD SWAP1 PUSH1 0x64 ADD PUSH1 0x20 PUSH1 0x40 MLOAD DUP1 DUP4 SUB DUP2 PUSH1 0x0 DUP8 GAS CALL ISZERO DUP1 ISZERO PUSH2 0xE14 JUMPI RETURNDATASIZE PUSH1 0x0 DUP1 RETURNDATACOPY RETURNDATASIZE PUSH1 0x0 REVERT JUMPDEST POP POP POP POP PUSH1 0x40 MLOAD RETURNDATASIZE PUSH1 0x1F NOT PUSH1 0x1F DUP3 ADD AND DUP3 ADD DUP1 PUSH1 0x40 MSTORE POP DUP2 ADD SWAP1 PUSH2 0xE38 SWAP2 SWAP1 PUSH2 0x1448 JUMP JUMPDEST PUSH2 0xE84 JUMPI PUSH1 0x40 MLOAD PUSH3 0x461BCD PUSH1 0xE5 SHL DUP2 MSTORE PUSH1 0x20 PUSH1 0x4 DUP3 ADD MSTORE PUSH1 0x14 PUSH1 0x24 DUP3 ADD MSTORE PUSH32 0x546B6E20494E207472616E73666572206661696C000000000000000000000000 PUSH1 0x44 DUP3 ADD MSTORE PUSH1 0x64 ADD PUSH2 0x4F5 JUMP JUMPDEST PUSH1 0x0 PUSH2 0xE8F DUP4 PUSH2 0x10A3 JUMP JUMPDEST SWAP1 POP PUSH1 0x0 DUP2 GT PUSH2 0xEE1 JUMPI PUSH1 0x40 MLOAD PUSH3 0x461BCD PUSH1 0xE5 SHL DUP2 MSTORE PUSH1 0x20 PUSH1 0x4 DUP3 ADD MSTORE PUSH1 0x14 PUSH1 0x24 DUP3 ADD MSTORE PUSH32 0x457468206F757420697320746F6F20736D616C6C000000000000000000000000 PUSH1 0x44 DUP3 ADD MSTORE PUSH1 0x64 ADD PUSH2 0x4F5 JUMP JUMPDEST PUSH1 0x0 DUP1 SLOAD PUSH1 0x40 MLOAD PUSH32 0xC3C49A6300000000000000000000000000000000000000000000000000000000 DUP2 MSTORE PUSH1 0x1 PUSH1 0x1 PUSH1 0xA0 SHL SUB DUP8 DUP2 AND PUSH1 0x4 DUP4 ADD MSTORE SWAP1 SWAP2 AND SWAP1 PUSH4 0xC3C49A63 SWAP1 PUSH1 0x24 ADD PUSH1 0x20 PUSH1 0x40 MLOAD DUP1 DUP4 SUB DUP2 DUP7 GAS STATICCALL ISZERO DUP1 ISZERO PUSH2 0xF45 JUMPI RETURNDATASIZE PUSH1 0x0 DUP1 RETURNDATACOPY RETURNDATASIZE PUSH1 0x0 REVERT JUMPDEST POP POP POP POP PUSH1 0x40 MLOAD RETURNDATASIZE PUSH1 0x1F NOT PUSH1 0x1F DUP3 ADD AND DUP3 ADD DUP1 PUSH1 0x40 MSTORE POP DUP2 ADD SWAP1 PUSH2 0xF69 SWAP2 SWAP1 PUSH2 0x136B JUMP JUMPDEST PUSH1 0x40 MLOAD PUSH32 0xD91EFC3B00000000000000000000000000000000000000000000000000000000 DUP2 MSTORE PUSH1 0x1 PUSH1 0x1 PUSH1 0xA0 SHL SUB DUP9 DUP2 AND PUSH1 0x4 DUP4 ADD MSTORE PUSH1 0x24 DUP3 ADD DUP7 SWAP1 MSTORE SWAP2 SWAP3 POP PUSH1 0x0 SWAP2 DUP4 AND SWAP1 PUSH4 0xD91EFC3B SWAP1 DUP6 SWAP1 PUSH1 0x44 ADD PUSH1 0x20 PUSH1 0x40 MLOAD DUP1 DUP4 SUB DUP2 DUP6 DUP9 GAS CALL ISZERO DUP1 ISZERO PUSH2 0xFD8 JUMPI RETURNDATASIZE PUSH1 0x0 DUP1 RETURNDATACOPY RETURNDATASIZE PUSH1 0x0 REVERT JUMPDEST POP POP POP POP POP PUSH1 0x40 MLOAD RETURNDATASIZE PUSH1 0x1F NOT PUSH1 0x1F DUP3 ADD AND DUP3 ADD DUP1 PUSH1 0x40 MSTORE POP DUP2 ADD SWAP1 PUSH2 0xFFD SWAP2 SWAP1 PUSH2 0x1388 JUMP JUMPDEST SWAP1 POP DUP4 DUP2 LT ISZERO PUSH2 0x104F JUMPI PUSH1 0x40 MLOAD PUSH3 0x461BCD PUSH1 0xE5 SHL DUP2 MSTORE PUSH1 0x20 PUSH1 0x4 DUP3 ADD MSTORE PUSH1 0x1D PUSH1 0x24 DUP3 ADD MSTORE PUSH32 0x4F7574707574206C657373207468616E206D696E546F6B656E734F7574000000 PUSH1 0x44 DUP3 ADD MSTORE PUSH1 0x64 ADD PUSH2 0x4F5 JUMP JUMPDEST PUSH1 0x40 DUP1 MLOAD DUP7 DUP2 MSTORE PUSH1 0x20 DUP2 ADD DUP6 SWAP1 MSTORE PUSH1 0x1 PUSH1 0x1 PUSH1 0xA0 SHL SUB DUP1 DUP6 AND SWAP3 SWAP1 DUP11 AND SWAP2 CALLER SWAP2 PUSH32 0x984DED3C86142A79D1FF62A9D57305E530E14653B3343AB5BAE22FFB4F99769C SWAP2 ADD PUSH1 0x40 MLOAD DUP1 SWAP2 SUB SWAP1 LOG4 POP POP POP POP POP POP POP JUMP JUMPDEST PUSH1 0x0 DUP1 PUSH1 0x2 SLOAD DUP4 PUSH2 0x10B4 SWAP2 SWAP1 PUSH2 0x13D0 JUMP JUMPDEST SWAP1 POP DUP3 PUSH1 0x4 SLOAD PUSH2 0x10C4 SWAP2 SWAP1 PUSH2 0x146A JUMP JUMPDEST PUSH1 0x4 DUP2 SWAP1 SSTORE PUSH1 0x0 SWAP1 PUSH2 0x10D7 SWAP1 DUP4 SWAP1 PUSH2 0x1482 JUMP JUMPDEST PUSH1 0x5 SLOAD PUSH2 0x10E4 SWAP2 SWAP1 PUSH2 0x13D0 JUMP JUMPDEST PUSH2 0x10EF SWAP1 PUSH1 0x1 PUSH2 0x146A JUMP JUMPDEST PUSH1 0x3 SLOAD PUSH2 0x10FC SWAP2 SWAP1 PUSH2 0x1482 JUMP JUMPDEST SWAP1 POP PUSH1 0x3 SLOAD DUP2 GT ISZERO PUSH2 0x1150 JUMPI PUSH1 0x40 MLOAD PUSH3 0x461BCD PUSH1 0xE5 SHL DUP2 MSTORE PUSH1 0x20 PUSH1 0x4 DUP3 ADD MSTORE PUSH1 0x10 PUSH1 0x24 DUP3 ADD MSTORE PUSH32 0x4C61636B696E6720706F6F6C2065746800000000000000000000000000000000 PUSH1 0x44 DUP3 ADD MSTORE PUSH1 0x64 ADD PUSH2 0x4F5 JUMP JUMPDEST DUP1 PUSH1 0x3 SLOAD PUSH2 0x115E SWAP2 SWAP1 PUSH2 0x1482 JUMP JUMPDEST PUSH1 0x3 DUP2 SWAP1 SSTORE PUSH1 0x4 SLOAD PUSH2 0x1170 SWAP2 SWAP1 PUSH2 0x140B JUMP JUMPDEST PUSH1 0x5 SSTORE SWAP4 SWAP3 POP POP POP JUMP JUMPDEST PUSH1 0x0 DUP1 PUSH1 0x2 SLOAD DUP4 PUSH2 0x118B SWAP2 SWAP1 PUSH2 0x13D0 JUMP JUMPDEST SWAP1 POP DUP3 PUSH1 0x3 SLOAD PUSH2 0x119B SWAP2 SWAP1 PUSH2 0x146A JUMP JUMPDEST PUSH1 0x3 DUP2 SWAP1 SSTORE PUSH1 0x0 SWAP1 PUSH2 0x11AE SWAP1 DUP4 SWAP1 PUSH2 0x1482 JUMP JUMPDEST PUSH1 0x5 SLOAD PUSH2 0x11BB SWAP2 SWAP1 PUSH2 0x13D0 JUMP JUMPDEST PUSH2 0x11C6 SWAP1 PUSH1 0x1 PUSH2 0x146A JUMP JUMPDEST PUSH1 0x4 SLOAD PUSH2 0x11D3 SWAP2 SWAP1 PUSH2 0x1482 JUMP JUMPDEST SWAP1 POP PUSH1 0x4 SLOAD DUP2 GT ISZERO PUSH2 0x1227 JUMPI PUSH1 0x40 MLOAD PUSH3 0x461BCD PUSH1 0xE5 SHL DUP2 MSTORE PUSH1 0x20 PUSH1 0x4 DUP3 ADD MSTORE PUSH1 0x13 PUSH1 0x24 DUP3 ADD MSTORE PUSH32 0x4C61636B696E6720706F6F6C20746F6B656E7300000000000000000000000000 PUSH1 0x44 DUP3 ADD MSTORE PUSH1 0x64 ADD PUSH2 0x4F5 JUMP JUMPDEST DUP1 PUSH1 0x4 SLOAD PUSH2 0x1235 SWAP2 SWAP1 PUSH2 0x1482 JUMP JUMPDEST PUSH1 0x4 DUP2 SWAP1 SSTORE PUSH1 0x3 SLOAD PUSH2 0x1170 SWAP2 PUSH2 0x140B JUMP JUMPDEST PUSH1 0x1 PUSH1 0x1 PUSH1 0xA0 SHL SUB DUP2 AND DUP2 EQ PUSH2 0x125B JUMPI PUSH1 0x0 DUP1 REVERT JUMPDEST POP JUMP JUMPDEST PUSH1 0x0 DUP1 PUSH1 0x40 DUP4 DUP6 SUB SLT ISZERO PUSH2 0x1271 JUMPI PUSH1 0x0 DUP1 REVERT JUMPDEST DUP3 CALLDATALOAD SWAP2 POP PUSH1 0x20 DUP4 ADD CALLDATALOAD PUSH2 0x1283 DUP2 PUSH2 0x1246 JUMP JUMPDEST DUP1 SWAP2 POP POP SWAP3 POP SWAP3 SWAP1 POP JUMP JUMPDEST PUSH1 0x0 PUSH1 0x20 DUP3 DUP5 SUB SLT ISZERO PUSH2 0x12A0 JUMPI PUSH1 0x0 DUP1 REVERT JUMPDEST POP CALLDATALOAD SWAP2 SWAP1 POP JUMP JUMPDEST PUSH1 0x0 DUP1 PUSH1 0x0 PUSH1 0x60 DUP5 DUP7 SUB SLT ISZERO PUSH2 0x12BC JUMPI PUSH1 0x0 DUP1 REVERT JUMPDEST DUP4 CALLDATALOAD PUSH2 0x12C7 DUP2 PUSH2 0x1246 JUMP JUMPDEST SWAP6 PUSH1 0x20 DUP6 ADD CALLDATALOAD SWAP6 POP PUSH1 0x40 SWAP1 SWAP5 ADD CALLDATALOAD SWAP4 SWAP3 POP POP POP JUMP JUMPDEST PUSH1 0x0 PUSH1 0x20 DUP3 DUP5 SUB SLT ISZERO PUSH2 0x12EE JUMPI PUSH1 0x0 DUP1 REVERT JUMPDEST DUP2 CALLDATALOAD PUSH2 0xDA7 DUP2 PUSH2 0x1246 JUMP JUMPDEST PUSH1 0x0 DUP1 PUSH1 0x40 DUP4 DUP6 SUB SLT ISZERO PUSH2 0x130C JUMPI PUSH1 0x0 DUP1 REVERT JUMPDEST DUP3 CALLDATALOAD PUSH2 0x1317 DUP2 PUSH2 0x1246 JUMP JUMPDEST SWAP5 PUSH1 0x20 SWAP4 SWAP1 SWAP4 ADD CALLDATALOAD SWAP4 POP POP POP JUMP JUMPDEST PUSH1 0x0 DUP1 PUSH1 0x0 DUP1 PUSH1 0x80 DUP6 DUP8 SUB SLT ISZERO PUSH2 0x133B JUMPI PUSH1 0x0 DUP1 REVERT JUMPDEST DUP5 CALLDATALOAD PUSH2 0x1346 DUP2 PUSH2 0x1246 JUMP JUMPDEST SWAP4 POP PUSH1 0x20 DUP6 ADD CALLDATALOAD PUSH2 0x1356 DUP2 PUSH2 0x1246 JUMP JUMPDEST SWAP4 SWAP7 SWAP4 SWAP6 POP POP POP POP PUSH1 0x40 DUP3 ADD CALLDATALOAD SWAP2 PUSH1 0x60 ADD CALLDATALOAD SWAP1 JUMP JUMPDEST PUSH1 0x0 PUSH1 0x20 DUP3 DUP5 SUB SLT ISZERO PUSH2 0x137D JUMPI PUSH1 0x0 DUP1 REVERT JUMPDEST DUP2 MLOAD PUSH2 0xDA7 DUP2 PUSH2 0x1246 JUMP JUMPDEST PUSH1 0x0 PUSH1 0x20 DUP3 DUP5 SUB SLT ISZERO PUSH2 0x139A JUMPI PUSH1 0x0 DUP1 REVERT JUMPDEST POP MLOAD SWAP2 SWAP1 POP JUMP JUMPDEST PUSH32 0x4E487B7100000000000000000000000000000000000000000000000000000000 PUSH1 0x0 MSTORE PUSH1 0x11 PUSH1 0x4 MSTORE PUSH1 0x24 PUSH1 0x0 REVERT JUMPDEST PUSH1 0x0 DUP3 PUSH2 0x1406 JUMPI PUSH32 0x4E487B7100000000000000000000000000000000000000000000000000000000 PUSH1 0x0 MSTORE PUSH1 0x12 PUSH1 0x4 MSTORE PUSH1 0x24 PUSH1 0x0 REVERT JUMPDEST POP DIV SWAP1 JUMP JUMPDEST PUSH1 0x0 DUP2 PUSH32 0xFFFFFFFFFFFFFFFFFFFFFFFFFFFFFFFFFFFFFFFFFFFFFFFFFFFFFFFFFFFFFFFF DIV DUP4 GT DUP3 ISZERO ISZERO AND ISZERO PUSH2 0x1443 JUMPI PUSH2 0x1443 PUSH2 0x13A1 JUMP JUMPDEST POP MUL SWAP1 JUMP JUMPDEST PUSH1 0x0 PUSH1 0x20 DUP3 DUP5 SUB SLT ISZERO PUSH2 0x145A JUMPI PUSH1 0x0 DUP1 REVERT JUMPDEST DUP2 MLOAD DUP1 ISZERO ISZERO DUP2 EQ PUSH2 0xDA7 JUMPI PUSH1 0x0 DUP1 REVERT JUMPDEST PUSH1 0x0 DUP3 NOT DUP3 GT ISZERO PUSH2 0x147D JUMPI PUSH2 0x147D PUSH2 0x13A1 JUMP JUMPDEST POP ADD SWAP1 JUMP JUMPDEST PUSH1 0x0 DUP3 DUP3 LT ISZERO PUSH2 0x1494 JUMPI PUSH2 0x1494 PUSH2 0x13A1 JUMP JUMPDEST POP SUB SWAP1 JUMP INVALID LOG2 PUSH5 0x6970667358 0x22 SLT KECCAK256 STOP 0xDE CODECOPY PUSH17 0xF41BE189E6CC73248A78C020EEF73523D6 PUSH14 0xB86D96B4ED20A0745D6E64736F6C PUSH4 0x4300080A STOP CALLER ",
    "sha1": "a7decc7fc2f9419a820635278479b3b570e3bf48",
    "source": "// contracts/AstroSwapExchange.sol\n// SPDX-License-Identifier: MIT\npragma solidity ^0.8.0;\n\n// 0.8.0 so no need for safeMath\nimport \"@openzeppelin/contracts/token/ERC20/IERC20.sol\";\nimport \"./AstroSwapFactory.sol\";\n\ncontract AstroSwapExchange {\n    // The address of the factory that made us :)\n    AstroSwapFactory public factory;\n\n    // The address of the token we are swapping\n    IERC20 public token;\n\n    // The fee each transaction takes. The proportion taken in the inverse of the fee varaiable. Ex: 1% fee is 100\n    uint256 public feeAmmount;\n\n    // Keep track of the ethereum and token liquidity pools (both are in wei)\n    uint256 public ethPool;\n    uint256 public tokenPool;\n\n    // The invariant in the product of the token and ethereum pools we want to keep\n    uint256 public invariant;\n\n    // Keep track of investor shares\n    mapping (address => uint256) public investorShares;\n    uint256 public totalShares;\n\n    event TokenPurchase(address indexed user, address indexed recipient, uint256 ethIn, uint256 tokensOut);\n    event EthPurchase(address indexed user, address indexed recipient, uint256 tokensIn, uint256 ethOut);\n    event TokenToTokenOut(address indexed user, address indexed recipient, address indexed tokenExchangeAddress, uint256 tokensIn, uint256 ethTransfer);\n    event Investment(address indexed user, uint256 indexed sharesPurchased);\n    event Divestment(address indexed user, uint256 indexed sharesBurned);\n\n\n    constructor(IERC20 _token, uint256 _fee) {\n        factory = AstroSwapFactory(msg.sender);\n        feeAmmount = _fee;\n        token = _token;\n    }\n\n    modifier hasLiquidity() {\n        require(invariant > 0);\n        _;\n    }\n\n    function seedInvest(uint256 tokenInvestment) public payable {\n        require (totalShares == 0, \"Liquidity pool is already seeded, use invest() instead\");\n        require (tokenInvestment > 0 && msg.value > 0, \"Must invest ETH and tokens\");\n        token.transferFrom(msg.sender, address(this), tokenInvestment);\n        tokenPool = tokenInvestment;\n        ethPool = msg.value;\n        invariant = ethPool * tokenPool;\n        // Give the starting investor 10000 shares\n        investorShares[msg.sender] = 10000;\n        totalShares = 10000;\n        emit Investment(msg.sender, 10000);\n    }\n\n    function invest(uint256 maxTokensInvested) public payable{\n        // Amount of tokens to invest is bassed of of the current ratio of eth to token in the pools\n        uint256 tokenInvestment = (tokenPool / ethPool) * msg.value;\n        require(maxTokensInvested >= tokenInvestment, \"Max < required investment\");\n        require (token.transferFrom(msg.sender, address(this), tokenInvestment));\n        uint256 sharesPurchased = (tokenInvestment * totalShares)/ tokenPool;\n        ethPool += msg.value;\n        tokenPool += tokenInvestment;\n        invariant = ethPool * tokenPool;\n        // Give the investor their shares\n        investorShares[msg.sender] += sharesPurchased;\n        totalShares += sharesPurchased;\n        emit Investment(msg.sender, sharesPurchased);\n    }\n\n    function divest(uint256 shares) public {\n        require(investorShares[msg.sender] >= shares, \"Not enough shares to divest\");\n        uint256 ethOut = (ethPool * shares) / totalShares;\n        uint256 tokenOut = (tokenPool * shares) / totalShares;\n        require(token.transfer(msg.sender, tokenOut));\n        payable(msg.sender).call{value:ethOut};\n        ethPool -= ethOut;\n        tokenPool -= tokenOut;\n        invariant = ethPool * tokenPool;\n        investorShares[msg.sender] -= shares;\n        totalShares -= shares;\n        emit Divestment(msg.sender, shares);\n    }\n\n    function getShares(address investor) public view returns (uint256) {\n        return investorShares[investor];\n    }\n\n    function getEthToTokenQuote(uint256 ethValue) public view returns (uint256 tokenQuote) {\n        uint256 fee = ethValue / feeAmmount;\n        uint256 mockPool = ethPool + ethValue;\n        return (tokenPool - (invariant / (mockPool - fee) + 1));\n    }\n\n    function getTokenToEthQuote(uint256 tokenValue) public view returns (uint256 ethQuote) {\n        uint256 fee = tokenValue / feeAmmount;\n        uint256 mockPool = tokenPool + tokenValue;\n        return (ethPool - (invariant / (mockPool - fee) + 1));\n    }\n\n    function getTokenToTokenQuote(uint256 tokenValue, address tokenOutAddress) public view returns (uint256 tokenQuote) {\n        uint256 ethTransfer = getTokenToEthQuote(tokenValue);\n        AstroSwapExchange outExchange = AstroSwapExchange(factory.tokenToExchange(tokenOutAddress));\n        return outExchange.getEthToTokenQuote(ethTransfer);\n    }\n\n    function ethToTokenPrivate(uint256 value) private returns(uint256 tokenToPay){\n        uint256 fee = value / feeAmmount;\n        ethPool = ethPool + value;\n        uint256 tokensPaid = tokenPool - (invariant / (ethPool - fee) + 1); // k = x * y <==> y = k / x, we payout the difference\n        // The +1 in the above line is to prevent a rouding error that causes the invariant to lower on transactions where the fee rounds down to 0\n        require(tokensPaid <= tokenPool, \"Lacking pool tokens\"); // Make sure we have enough tokens to pay out\n        tokenPool = tokenPool - tokensPaid;\n        invariant = tokenPool * ethPool;\n        return tokensPaid;\n    }\n\n    function tokenToEthPrivate(uint256 tokensIn) private returns(uint256 ethToPay){\n        uint256 fee = tokensIn / feeAmmount;\n        tokenPool = tokenPool + tokensIn;\n        uint256 ethPaid = ethPool - (invariant / (tokenPool - fee) + 1); // k = x * y <==> x = k / y, we payout the difference\n        // The +1 in the above line is to prevent a rouding error that causes the invariant to lower on transactions where the fee rounds down to 0\n        require(ethPaid <= ethPool, \"Lacking pool eth\"); // Make sure we have enough eth to pay out\n        ethPool = ethPool - ethPaid;\n        invariant = tokenPool * ethPool;\n        return ethPaid;\n    }\n\n    function ethToToken(address recipient, uint256 minTokensOut) public payable hasLiquidity returns(uint256 tokensPaid){\n        uint256 tokensPaid = ethToTokenPrivate(msg.value);\n        require(tokensPaid >= minTokensOut, \"tknsPaid < minTknsOut\");\n        emit TokenPurchase(msg.sender, recipient, msg.value, tokensPaid);\n        require(token.transfer(recipient, tokensPaid), \"Tkn OUT transfer fail\");\n        return tokensPaid;\n    }\n\n    function tokenToEth(address recipient, uint256 tokensIn, uint256 minEthOut) public hasLiquidity returns(uint256 ethPaid){\n        require(token.transferFrom(msg.sender, address(this), tokensIn), \"Tkn IN transfer fail\");\n        uint256 ethPaid = tokenToEthPrivate(tokensIn);\n        require(ethPaid >= minEthOut, \"ethPaid < minEthOut\");\n        emit EthPurchase(msg.sender, recipient, tokensIn, ethPaid);\n        payable(recipient).call{value:ethPaid};\n        return ethPaid;\n    }\n\n    function tokenToToken(address recipient, address tokenOutAddress, uint256 tokensIn, uint256 minTokensOut) public hasLiquidity{\n        require(token.transferFrom(msg.sender, address(this), tokensIn), \"Tkn IN transfer fail\");\n        uint256 ethTransfer = tokenToEthPrivate(tokensIn);\n        require(ethTransfer > 0, \"Eth out is too small\");\n        address tokenExchangeAddress = factory.tokenToExchange(tokenOutAddress);\n        uint256 tokensOut = AstroSwapExchange(tokenExchangeAddress).ethToToken{value: ethTransfer}(recipient, minTokensOut); // Call the outcontract with the value\n        require(tokensOut >= minTokensOut, \"Output less than minTokensOut\");\n        emit TokenToTokenOut(msg.sender, recipient, tokenExchangeAddress, tokensIn, ethTransfer);\n    }\n}",
    "sourcePath": "contracts/AstroSwapExchange.sol",
    "type": "contract",
    "deployment": {
        "address": "0x3f65851e2b0D9a45eb66f8153bc4B6B0bCb40D73",
        "chainid": "4",
        "blockHeight": 10062132
    }
}