{"abi":[{"inputs":[{"internalType":"uint256","name":"_fee","type":"uint256"}],"stateMutability":"nonpayable","type":"constructor","name":"constructor"},{"anonymous":false,"inputs":[{"indexed":true,"internalType":"address","name":"tokenExchange","type":"address"},{"indexed":true,"internalType":"address","name":"tokenAddress","type":"address"}],"name":"TokenExchangeAdded","type":"event"},{"inputs":[{"internalType":"address","name":"tokenAddress","type":"address"}],"name":"addTokenExchange","outputs":[],"stateMutability":"nonpayable","type":"function"},{"inputs":[{"internalType":"address","name":"exchange","type":"address"}],"name":"convertExchangeToToken","outputs":[{"internalType":"address","name":"token","type":"address"}],"stateMutability":"view","type":"function"},{"inputs":[{"internalType":"address","name":"token","type":"address"}],"name":"convertTokenToExchange","outputs":[{"internalType":"address","name":"exchange","type":"address"}],"stateMutability":"view","type":"function"},{"inputs":[],"name":"exchangeCount","outputs":[{"internalType":"uint256","name":"","type":"uint256"}],"stateMutability":"view","type":"function"},{"inputs":[{"internalType":"address","name":"","type":"address"}],"name":"exchangeToToken","outputs":[{"internalType":"address","name":"","type":"address"}],"stateMutability":"view","type":"function"},{"inputs":[],"name":"feeRate","outputs":[{"internalType":"uint256","name":"","type":"uint256"}],"stateMutability":"view","type":"function"},{"inputs":[{"internalType":"address","name":"","type":"address"}],"name":"tokenToExchange","outputs":[{"internalType":"address","name":"","type":"address"}],"stateMutability":"view","type":"function"}],"bytecode":"608060405234801561001057600080fd5b506040516118ab3803806118ab83398101604081905261002f91610037565b600055610050565b60006020828403121561004957600080fd5b5051919050565b61184c8061005f6000396000f3fe608060405234801561001057600080fd5b506004361061007d5760003560e01c8063c3c49a631161005b578063c3c49a63146100eb578063db3d938714610114578063e4a0dd8f14610129578063fc1ed5201461015257600080fd5b806353e9ef551461008257806368972e50146100cb578063978bbdb9146100e2575b600080fd5b6100ae6100903660046102ca565b6001600160a01b039081166000908152600360205260409020541690565b6040516001600160a01b0390911681526020015b60405180910390f35b6100d460015481565b6040519081526020016100c2565b6100d460005481565b6100ae6100f93660046102ca565b6002602052600090815260409020546001600160a01b031681565b6101276101223660046102ca565b61017e565b005b6100ae6101373660046102ca565b6003602052600090815260409020546001600160a01b031681565b6100ae6101603660046102ca565b6001600160a01b039081166000908152600260205260409020541690565b6001600160a01b0381811660009081526002602052604090205416156101db5760405162461bcd60e51b815260206004820152600e60248201526d105b1b1c9958591e48185919195960921b604482015260640160405180910390fd5b6001600160a01b0381166101ee57600080fd5b600081600054604051610200906102bd565b6001600160a01b0390921682526020820152604001604051809103906000f080158015610231573d6000803e3d6000fd5b50600180549192506000610244836102fa565b90915550506001600160a01b03808316600081815260026020908152604080832080549587166001600160a01b0319968716811790915580845260039092528083208054909516841790945592519192917f213d74b083ed8700f78fe5679ee5c8f8e4c05aa0cef994e00e09a3fe0af17e359190a35050565b6114f38061032483390190565b6000602082840312156102dc57600080fd5b81356001600160a01b03811681146102f357600080fd5b9392505050565b600060001982141561031c57634e487b7160e01b600052601160045260246000fd5b506001019056fe608060405234801561001057600080fd5b506040516114f33803806114f383398101604081905261002f91610068565b60008054336001600160a01b031991821617909155600291909155600180549091166001600160a01b03929092169190911790556100a2565b6000806040838503121561007b57600080fd5b82516001600160a01b038116811461009257600080fd5b6020939093015192949293505050565b611442806100b16000396000f3fe60806040526004361061011f5760003560e01c8063c45a0155116100a0578063e48c6bfe11610064578063e48c6bfe146102f9578063f04da65b1461030f578063f16673a414610345578063fad313641461035b578063fc0c546a1461037b57600080fd5b8063c45a01551461024e578063c7f790a214610286578063d3179c56146102a6578063d3690b6a146102b9578063d91efc3b146102e657600080fd5b8063623ba572116100e7578063623ba572146101b857806373a5be9b146101d85780637ed78044146101f85780638ca1799514610218578063b03a9a051461023857600080fd5b8063104e99291461012457806315e85a3b1461014d57806317a7615e1461016d5780632afcf4801461018d5780633a98ef39146101a2575b600080fd5b34801561013057600080fd5b5061013a60045481565b6040519081526020015b60405180910390f35b34801561015957600080fd5b5061013a6101683660046111e5565b61039b565b34801561017957600080fd5b5061013a610188366004611216565b6103be565b6101a061019b3660046111e5565b6104b1565b005b3480156101ae57600080fd5b5061013a60075481565b3480156101c457600080fd5b5061013a6101d33660046111e5565b610687565b3480156101e457600080fd5b5061013a6101f33660046111e5565b61069a565b34801561020457600080fd5b5061013a6102133660046111e5565b6106f6565b34801561022457600080fd5b506101a06102333660046111e5565b61074a565b34801561024457600080fd5b5061013a60055481565b34801561025a57600080fd5b5060005461026e906001600160a01b031681565b6040516001600160a01b039091168152602001610144565b34801561029257600080fd5b5061013a6102a1366004611246565b61091e565b6101a06102b43660046111e5565b610a89565b3480156102c557600080fd5b5061013a6102d436600461127b565b60066020526000908152604090205481565b61013a6102f4366004611298565b610c3f565b34801561030557600080fd5b5061013a60025481565b34801561031b57600080fd5b5061013a61032a36600461127b565b6001600160a01b031660009081526006602052604090205490565b34801561035157600080fd5b5061013a60035481565b34801561036757600080fd5b506101a06103763660046112c4565b610dac565b34801561038757600080fd5b5060015461026e906001600160a01b031681565b6000600454826003546103ae9190611320565b6103b8919061133f565b92915050565b6000806103ca846106f6565b6000805460405163c3c49a6360e01b81526001600160a01b0387811660048301529394509192169063c3c49a6390602401602060405180830381865afa158015610418573d6000803e3d6000fd5b505050506040513d601f19601f8201168201806040525081019061043c9190611361565b6040516373a5be9b60e01b8152600481018490529091506001600160a01b038216906373a5be9b90602401602060405180830381865afa158015610484573d6000803e3d6000fd5b505050506040513d601f19601f820116820180604052508101906104a8919061137e565b95945050505050565b6000600354346004546104c49190611320565b6104ce919061133f565b9050808210156105255760405162461bcd60e51b815260206004820152601960248201527f4d6178203c20726571756972656420696e766573746d656e740000000000000060448201526064015b60405180910390fd5b6001546040516323b872dd60e01b81526001600160a01b03909116906323b872dd9061055990339030908690600401611397565b6020604051808303816000875af1158015610578573d6000803e3d6000fd5b505050506040513d601f19601f8201168201806040525081019061059c91906113bb565b6105a557600080fd5b6000600454600754836105b89190611320565b6105c2919061133f565b905034600360008282546105d691906113dd565b9250508190555081600460008282546105ef91906113dd565b90915550506004546003546106049190611320565b60055533600090815260066020526040812080548392906106269084906113dd565b92505081905550806007600082825461063f91906113dd565b90915550506040805134815260208101849052829133917f3bdff14eed6ddd6ca85e178ed7df644a6a676c0796374ce875e380bc74a28e7891015b60405180910390a3505050565b6000600354826004546103ae9190611320565b600080600254836106ab919061133f565b90506000836003546106bd91906113dd565b90506106c982826113f5565b6005546106d6919061133f565b6106e19060016113dd565b6004546106ee91906113f5565b949350505050565b60008060025483610707919061133f565b905060008360045461071991906113dd565b905061072582826113f5565b600554610732919061133f565b61073d9060016113dd565b6003546106ee91906113f5565b336000908152600660205260409020548111156107a95760405162461bcd60e51b815260206004820152601b60248201527f4e6f7420656e6f7567682073686172657320746f206469766573740000000000604482015260640161051c565b6000600754826003546107bc9190611320565b6107c6919061133f565b90506000600754836004546107db9190611320565b6107e5919061133f565b60015460405163a9059cbb60e01b8152336004820152602481018390529192506001600160a01b03169063a9059cbb906044016020604051808303816000875af1158015610837573d6000803e3d6000fd5b505050506040513d601f19601f8201168201806040525081019061085b91906113bb565b61086457600080fd5b816003600082825461087691906113f5565b92505081905550806004600082825461088f91906113f5565b90915550506004546003546108a49190611320565b60055533600090815260066020526040812080548592906108c69084906113f5565b9250508190555082600760008282546108df91906113f5565b90915550506040805183815260208101839052849133917fa7548018ea9c6a3b80df88945143204c1c6bd0cc7cce431ba4b8fe25aaa0f040910161067a565b6000806005541161092e57600080fd5b6001546040516323b872dd60e01b81526001600160a01b03909116906323b872dd9061096290339030908890600401611397565b6020604051808303816000875af1158015610981573d6000803e3d6000fd5b505050506040513d601f19601f820116820180604052508101906109a591906113bb565b6109e85760405162461bcd60e51b8152602060048201526014602482015273151adb881253881d1c985b9cd9995c8819985a5b60621b604482015260640161051c565b60006109f384611059565b905082811015610a3b5760405162461bcd60e51b8152602060048201526013602482015272195d1a14185a59080f081b5a5b915d1a13dd5d606a1b604482015260640161051c565b60408051858152602081018390526001600160a01b0387169133917f90e08377d523c5e583beefcdb6735844f8d4e305be8e4e4003e940ee726ce24c910160405180910390a3949350505050565b60075415610af85760405162461bcd60e51b815260206004820152603660248201527f4c697175696469747920706f6f6c20697320616c7265616479207365656465646044820152750b081d5cd9481a5b9d995cdd0a0a481a5b9cdd19585960521b606482015260840161051c565b600081118015610b085750600034115b610b545760405162461bcd60e51b815260206004820152601a60248201527f4d75737420696e766573742045544820616e6420746f6b656e73000000000000604482015260640161051c565b6001546040516323b872dd60e01b81526001600160a01b03909116906323b872dd90610b8890339030908690600401611397565b6020604051808303816000875af1158015610ba7573d6000803e3d6000fd5b505050506040513d601f19601f82011682018060405250810190610bcb91906113bb565b506004819055346003819055610be2908290611320565b60055533600081815260066020908152604091829020612710908190556007819055825134815291820185905292917f3bdff14eed6ddd6ca85e178ed7df644a6a676c0796374ce875e380bc74a28e78910160405180910390a350565b60008060055411610c4f57600080fd5b6000610c5a34611123565b905082811015610ca45760405162461bcd60e51b81526020600482015260156024820152741d1adb9cd4185a59080f081b5a5b951adb9cd3dd5d605a1b604482015260640161051c565b60408051348152602081018390526001600160a01b0386169133917f623b3804fa71d67900d064613da8f94b9617215ee90799290593e1745087ad18910160405180910390a360015460405163a9059cbb60e01b81526001600160a01b038681166004830152602482018490529091169063a9059cbb906044016020604051808303816000875af1158015610d3d573d6000803e3d6000fd5b505050506040513d601f19601f82011682018060405250810190610d6191906113bb565b610da55760405162461bcd60e51b8152602060048201526015602482015274151adb8813d555081d1c985b9cd9995c8819985a5b605a1b604482015260640161051c565b9392505050565b600060055411610dbb57600080fd5b6001546040516323b872dd60e01b81526001600160a01b03909116906323b872dd90610def90339030908790600401611397565b6020604051808303816000875af1158015610e0e573d6000803e3d6000fd5b505050506040513d601f19601f82011682018060405250810190610e3291906113bb565b610e755760405162461bcd60e51b8152602060048201526014602482015273151adb881253881d1c985b9cd9995c8819985a5b60621b604482015260640161051c565b6000610e8083611059565b905060008111610ec95760405162461bcd60e51b8152602060048201526014602482015273115d1a081bdd5d081a5cc81d1bdbc81cdb585b1b60621b604482015260640161051c565b6000805460405163c3c49a6360e01b81526001600160a01b0387811660048301529091169063c3c49a6390602401602060405180830381865afa158015610f14573d6000803e3d6000fd5b505050506040513d601f19601f82011682018060405250810190610f389190611361565b60405163d91efc3b60e01b81526001600160a01b0388811660048301526024820186905291925060009183169063d91efc3b90859060440160206040518083038185885af1158015610f8e573d6000803e3d6000fd5b50505050506040513d601f19601f82011682018060405250810190610fb3919061137e565b9050838110156110055760405162461bcd60e51b815260206004820152601d60248201527f4f7574707574206c657373207468616e206d696e546f6b656e734f7574000000604482015260640161051c565b60408051868152602081018590526001600160a01b0380851692908a169133917f984ded3c86142a79d1ff62a9d57305e530e14653b3343ab5bae22ffb4f99769c910160405180910390a450505050505050565b6000806002548361106a919061133f565b90508260045461107a91906113dd565b600481905560009061108d9083906113f5565b60055461109a919061133f565b6110a59060016113dd565b6003546110b291906113f5565b90506003548111156110f95760405162461bcd60e51b815260206004820152601060248201526f098c2c6d6d2dcce40e0deded840cae8d60831b604482015260640161051c565b8060035461110791906113f5565b60038190556004546111199190611320565b6005559392505050565b60008060025483611134919061133f565b90508260035461114491906113dd565b60038190556000906111579083906113f5565b600554611164919061133f565b61116f9060016113dd565b60045461117c91906113f5565b90506004548111156111c65760405162461bcd60e51b81526020600482015260136024820152724c61636b696e6720706f6f6c20746f6b656e7360681b604482015260640161051c565b806004546111d491906113f5565b600481905560035461111991611320565b6000602082840312156111f757600080fd5b5035919050565b6001600160a01b038116811461121357600080fd5b50565b6000806040838503121561122957600080fd5b82359150602083013561123b816111fe565b809150509250929050565b60008060006060848603121561125b57600080fd5b8335611266816111fe565b95602085013595506040909401359392505050565b60006020828403121561128d57600080fd5b8135610da5816111fe565b600080604083850312156112ab57600080fd5b82356112b6816111fe565b946020939093013593505050565b600080600080608085870312156112da57600080fd5b84356112e5816111fe565b935060208501356112f5816111fe565b93969395505050506040820135916060013590565b634e487b7160e01b600052601160045260246000fd5b600081600019048311821515161561133a5761133a61130a565b500290565b60008261135c57634e487b7160e01b600052601260045260246000fd5b500490565b60006020828403121561137357600080fd5b8151610da5816111fe565b60006020828403121561139057600080fd5b5051919050565b6001600160a01b039384168152919092166020820152604081019190915260600190565b6000602082840312156113cd57600080fd5b81518015158114610da557600080fd5b600082198211156113f0576113f061130a565b500190565b6000828210156114075761140761130a565b50039056fea26469706673582212205a220cd458f534eb9ceeff1dbb7d1c877e2f0cfee5ed561d5e743ffccee4e85764736f6c634300080a0033a26469706673582212207ed9fd14990f219e30fcf50c8aec9dc1e6e1ed14259680c043aa544d8313a34064736f6c634300080a0033","bytecodeSha1":"438a0293b1d8a3c0d68dfb396e58df5ae20e2bb7","compiler":{"evm_version":"istanbul","optimizer":{"enabled":true,"runs":200},"version":"0.8.10+commit.fc410830"},"contractName":"AstroSwapFactory","language":"Solidity","natspec":{"kind":"dev","methods":{},"version":1},"opcodes":"PUSH1 0x80 PUSH1 0x40 MSTORE CALLVALUE DUP1 ISZERO PUSH2 0x10 JUMPI PUSH1 0x0 DUP1 REVERT JUMPDEST POP PUSH1 0x4 CALLDATASIZE LT PUSH2 0x7D JUMPI PUSH1 0x0 CALLDATALOAD PUSH1 0xE0 SHR DUP1 PUSH4 0xC3C49A63 GT PUSH2 0x5B JUMPI DUP1 PUSH4 0xC3C49A63 EQ PUSH2 0xEB JUMPI DUP1 PUSH4 0xDB3D9387 EQ PUSH2 0x114 JUMPI DUP1 PUSH4 0xE4A0DD8F EQ PUSH2 0x129 JUMPI DUP1 PUSH4 0xFC1ED520 EQ PUSH2 0x152 JUMPI PUSH1 0x0 DUP1 REVERT JUMPDEST DUP1 PUSH4 0x53E9EF55 EQ PUSH2 0x82 JUMPI DUP1 PUSH4 0x68972E50 EQ PUSH2 0xCB JUMPI DUP1 PUSH4 0x978BBDB9 EQ PUSH2 0xE2 JUMPI JUMPDEST PUSH1 0x0 DUP1 REVERT JUMPDEST PUSH2 0xAE PUSH2 0x90 CALLDATASIZE PUSH1 0x4 PUSH2 0x2CA JUMP JUMPDEST PUSH1 0x1 PUSH1 0x1 PUSH1 0xA0 SHL SUB SWAP1 DUP2 AND PUSH1 0x0 SWAP1 DUP2 MSTORE PUSH1 0x3 PUSH1 0x20 MSTORE PUSH1 0x40 SWAP1 KECCAK256 SLOAD AND SWAP1 JUMP JUMPDEST PUSH1 0x40 MLOAD PUSH1 0x1 PUSH1 0x1 PUSH1 0xA0 SHL SUB SWAP1 SWAP2 AND DUP2 MSTORE PUSH1 0x20 ADD JUMPDEST PUSH1 0x40 MLOAD DUP1 SWAP2 SUB SWAP1 RETURN JUMPDEST PUSH2 0xD4 PUSH1 0x1 SLOAD DUP2 JUMP JUMPDEST PUSH1 0x40 MLOAD SWAP1 DUP2 MSTORE PUSH1 0x20 ADD PUSH2 0xC2 JUMP JUMPDEST PUSH2 0xD4 PUSH1 0x0 SLOAD DUP2 JUMP JUMPDEST PUSH2 0xAE PUSH2 0xF9 CALLDATASIZE PUSH1 0x4 PUSH2 0x2CA JUMP JUMPDEST PUSH1 0x2 PUSH1 0x20 MSTORE PUSH1 0x0 SWAP1 DUP2 MSTORE PUSH1 0x40 SWAP1 KECCAK256 SLOAD PUSH1 0x1 PUSH1 0x1 PUSH1 0xA0 SHL SUB AND DUP2 JUMP JUMPDEST PUSH2 0x127 PUSH2 0x122 CALLDATASIZE PUSH1 0x4 PUSH2 0x2CA JUMP JUMPDEST PUSH2 0x17E JUMP JUMPDEST STOP JUMPDEST PUSH2 0xAE PUSH2 0x137 CALLDATASIZE PUSH1 0x4 PUSH2 0x2CA JUMP JUMPDEST PUSH1 0x3 PUSH1 0x20 MSTORE PUSH1 0x0 SWAP1 DUP2 MSTORE PUSH1 0x40 SWAP1 KECCAK256 SLOAD PUSH1 0x1 PUSH1 0x1 PUSH1 0xA0 SHL SUB AND DUP2 JUMP JUMPDEST PUSH2 0xAE PUSH2 0x160 CALLDATASIZE PUSH1 0x4 PUSH2 0x2CA JUMP JUMPDEST PUSH1 0x1 PUSH1 0x1 PUSH1 0xA0 SHL SUB SWAP1 DUP2 AND PUSH1 0x0 SWAP1 DUP2 MSTORE PUSH1 0x2 PUSH1 0x20 MSTORE PUSH1 0x40 SWAP1 KECCAK256 SLOAD AND SWAP1 JUMP JUMPDEST PUSH1 0x1 PUSH1 0x1 PUSH1 0xA0 SHL SUB DUP2 DUP2 AND PUSH1 0x0 SWAP1 DUP2 MSTORE PUSH1 0x2 PUSH1 0x20 MSTORE PUSH1 0x40 SWAP1 KECCAK256 SLOAD AND ISZERO PUSH2 0x1DB JUMPI PUSH1 0x40 MLOAD PUSH3 0x461BCD PUSH1 0xE5 SHL DUP2 MSTORE PUSH1 0x20 PUSH1 0x4 DUP3 ADD MSTORE PUSH1 0xE PUSH1 0x24 DUP3 ADD MSTORE PUSH14 0x105B1B1C9958591E481859191959 PUSH1 0x92 SHL PUSH1 0x44 DUP3 ADD MSTORE PUSH1 0x64 ADD PUSH1 0x40 MLOAD DUP1 SWAP2 SUB SWAP1 REVERT JUMPDEST PUSH1 0x1 PUSH1 0x1 PUSH1 0xA0 SHL SUB DUP2 AND PUSH2 0x1EE JUMPI PUSH1 0x0 DUP1 REVERT JUMPDEST PUSH1 0x0 DUP2 PUSH1 0x0 SLOAD PUSH1 0x40 MLOAD PUSH2 0x200 SWAP1 PUSH2 0x2BD JUMP JUMPDEST PUSH1 0x1 PUSH1 0x1 PUSH1 0xA0 SHL SUB SWAP1 SWAP3 AND DUP3 MSTORE PUSH1 0x20 DUP3 ADD MSTORE PUSH1 0x40 ADD PUSH1 0x40 MLOAD DUP1 SWAP2 SUB SWAP1 PUSH1 0x0 CREATE DUP1 ISZERO DUP1 ISZERO PUSH2 0x231 JUMPI RETURNDATASIZE PUSH1 0x0 DUP1 RETURNDATACOPY RETURNDATASIZE PUSH1 0x0 REVERT JUMPDEST POP PUSH1 0x1 DUP1 SLOAD SWAP2 SWAP3 POP PUSH1 0x0 PUSH2 0x244 DUP4 PUSH2 0x2FA JUMP JUMPDEST SWAP1 SWAP2 SSTORE POP POP PUSH1 0x1 PUSH1 0x1 PUSH1 0xA0 SHL SUB DUP1 DUP4 AND PUSH1 0x0 DUP2 DUP2 MSTORE PUSH1 0x2 PUSH1 0x20 SWAP1 DUP2 MSTORE PUSH1 0x40 DUP1 DUP4 KECCAK256 DUP1 SLOAD SWAP6 DUP8 AND PUSH1 0x1 PUSH1 0x1 PUSH1 0xA0 SHL SUB NOT SWAP7 DUP8 AND DUP2 OR SWAP1 SWAP2 SSTORE DUP1 DUP5 MSTORE PUSH1 0x3 SWAP1 SWAP3 MSTORE DUP1 DUP4 KECCAK256 DUP1 SLOAD SWAP1 SWAP6 AND DUP5 OR SWAP1 SWAP5 SSTORE SWAP3 MLOAD SWAP2 SWAP3 SWAP2 PUSH32 0x213D74B083ED8700F78FE5679EE5C8F8E4C05AA0CEF994E00E09A3FE0AF17E35 SWAP2 SWAP1 LOG3 POP POP JUMP JUMPDEST PUSH2 0x14F3 DUP1 PUSH2 0x324 DUP4 CODECOPY ADD SWAP1 JUMP JUMPDEST PUSH1 0x0 PUSH1 0x20 DUP3 DUP5 SUB SLT ISZERO PUSH2 0x2DC JUMPI PUSH1 0x0 DUP1 REVERT JUMPDEST DUP2 CALLDATALOAD PUSH1 0x1 PUSH1 0x1 PUSH1 0xA0 SHL SUB DUP2 AND DUP2 EQ PUSH2 0x2F3 JUMPI PUSH1 0x0 DUP1 REVERT JUMPDEST SWAP4 SWAP3 POP POP POP JUMP JUMPDEST PUSH1 0x0 PUSH1 0x0 NOT DUP3 EQ ISZERO PUSH2 0x31C JUMPI PUSH4 0x4E487B71 PUSH1 0xE0 SHL PUSH1 0x0 MSTORE PUSH1 0x11 PUSH1 0x4 MSTORE PUSH1 0x24 PUSH1 0x0 REVERT JUMPDEST POP PUSH1 0x1 ADD SWAP1 JUMP INVALID PUSH1 0x80 PUSH1 0x40 MSTORE CALLVALUE DUP1 ISZERO PUSH2 0x10 JUMPI PUSH1 0x0 DUP1 REVERT JUMPDEST POP PUSH1 0x40 MLOAD PUSH2 0x14F3 CODESIZE SUB DUP1 PUSH2 0x14F3 DUP4 CODECOPY DUP2 ADD PUSH1 0x40 DUP2 SWAP1 MSTORE PUSH2 0x2F SWAP2 PUSH2 0x68 JUMP JUMPDEST PUSH1 0x0 DUP1 SLOAD CALLER PUSH1 0x1 PUSH1 0x1 PUSH1 0xA0 SHL SUB NOT SWAP2 DUP3 AND OR SWAP1 SWAP2 SSTORE PUSH1 0x2 SWAP2 SWAP1 SWAP2 SSTORE PUSH1 0x1 DUP1 SLOAD SWAP1 SWAP2 AND PUSH1 0x1 PUSH1 0x1 PUSH1 0xA0 SHL SUB SWAP3 SWAP1 SWAP3 AND SWAP2 SWAP1 SWAP2 OR SWAP1 SSTORE PUSH2 0xA2 JUMP JUMPDEST PUSH1 0x0 DUP1 PUSH1 0x40 DUP4 DUP6 SUB SLT ISZERO PUSH2 0x7B JUMPI PUSH1 0x0 DUP1 REVERT JUMPDEST DUP3 MLOAD PUSH1 0x1 PUSH1 0x1 PUSH1 0xA0 SHL SUB DUP2 AND DUP2 EQ PUSH2 0x92 JUMPI PUSH1 0x0 DUP1 REVERT JUMPDEST PUSH1 0x20 SWAP4 SWAP1 SWAP4 ADD MLOAD SWAP3 SWAP5 SWAP3 SWAP4 POP POP POP JUMP JUMPDEST PUSH2 0x1442 DUP1 PUSH2 0xB1 PUSH1 0x0 CODECOPY PUSH1 0x0 RETURN INVALID PUSH1 0x80 PUSH1 0x40 MSTORE PUSH1 0x4 CALLDATASIZE LT PUSH2 0x11F JUMPI PUSH1 0x0 CALLDATALOAD PUSH1 0xE0 SHR DUP1 PUSH4 0xC45A0155 GT PUSH2 0xA0 JUMPI DUP1 PUSH4 0xE48C6BFE GT PUSH2 0x64 JUMPI DUP1 PUSH4 0xE48C6BFE EQ PUSH2 0x2F9 JUMPI DUP1 PUSH4 0xF04DA65B EQ PUSH2 0x30F JUMPI DUP1 PUSH4 0xF16673A4 EQ PUSH2 0x345 JUMPI DUP1 PUSH4 0xFAD31364 EQ PUSH2 0x35B JUMPI DUP1 PUSH4 0xFC0C546A EQ PUSH2 0x37B JUMPI PUSH1 0x0 DUP1 REVERT JUMPDEST DUP1 PUSH4 0xC45A0155 EQ PUSH2 0x24E JUMPI DUP1 PUSH4 0xC7F790A2 EQ PUSH2 0x286 JUMPI DUP1 PUSH4 0xD3179C56 EQ PUSH2 0x2A6 JUMPI DUP1 PUSH4 0xD3690B6A EQ PUSH2 0x2B9 JUMPI DUP1 PUSH4 0xD91EFC3B EQ PUSH2 0x2E6 JUMPI PUSH1 0x0 DUP1 REVERT JUMPDEST DUP1 PUSH4 0x623BA572 GT PUSH2 0xE7 JUMPI DUP1 PUSH4 0x623BA572 EQ PUSH2 0x1B8 JUMPI DUP1 PUSH4 0x73A5BE9B EQ PUSH2 0x1D8 JUMPI DUP1 PUSH4 0x7ED78044 EQ PUSH2 0x1F8 JUMPI DUP1 PUSH4 0x8CA17995 EQ PUSH2 0x218 JUMPI DUP1 PUSH4 0xB03A9A05 EQ PUSH2 0x238 JUMPI PUSH1 0x0 DUP1 REVERT JUMPDEST DUP1 PUSH4 0x104E9929 EQ PUSH2 0x124 JUMPI DUP1 PUSH4 0x15E85A3B EQ PUSH2 0x14D JUMPI DUP1 PUSH4 0x17A7615E EQ PUSH2 0x16D JUMPI DUP1 PUSH4 0x2AFCF480 EQ PUSH2 0x18D JUMPI DUP1 PUSH4 0x3A98EF39 EQ PUSH2 0x1A2 JUMPI JUMPDEST PUSH1 0x0 DUP1 REVERT JUMPDEST CALLVALUE DUP1 ISZERO PUSH2 0x130 JUMPI PUSH1 0x0 DUP1 REVERT JUMPDEST POP PUSH2 0x13A PUSH1 0x4 SLOAD DUP2 JUMP JUMPDEST PUSH1 0x40 MLOAD SWAP1 DUP2 MSTORE PUSH1 0x20 ADD JUMPDEST PUSH1 0x40 MLOAD DUP1 SWAP2 SUB SWAP1 RETURN JUMPDEST CALLVALUE DUP1 ISZERO PUSH2 0x159 JUMPI PUSH1 0x0 DUP1 REVERT JUMPDEST POP PUSH2 0x13A PUSH2 0x168 CALLDATASIZE PUSH1 0x4 PUSH2 0x11E5 JUMP JUMPDEST PUSH2 0x39B JUMP JUMPDEST CALLVALUE DUP1 ISZERO PUSH2 0x179 JUMPI PUSH1 0x0 DUP1 REVERT JUMPDEST POP PUSH2 0x13A PUSH2 0x188 CALLDATASIZE PUSH1 0x4 PUSH2 0x1216 JUMP JUMPDEST PUSH2 0x3BE JUMP JUMPDEST PUSH2 0x1A0 PUSH2 0x19B CALLDATASIZE PUSH1 0x4 PUSH2 0x11E5 JUMP JUMPDEST PUSH2 0x4B1 JUMP JUMPDEST STOP JUMPDEST CALLVALUE DUP1 ISZERO PUSH2 0x1AE JUMPI PUSH1 0x0 DUP1 REVERT JUMPDEST POP PUSH2 0x13A PUSH1 0x7 SLOAD DUP2 JUMP JUMPDEST CALLVALUE DUP1 ISZERO PUSH2 0x1C4 JUMPI PUSH1 0x0 DUP1 REVERT JUMPDEST POP PUSH2 0x13A PUSH2 0x1D3 CALLDATASIZE PUSH1 0x4 PUSH2 0x11E5 JUMP JUMPDEST PUSH2 0x687 JUMP JUMPDEST CALLVALUE DUP1 ISZERO PUSH2 0x1E4 JUMPI PUSH1 0x0 DUP1 REVERT JUMPDEST POP PUSH2 0x13A PUSH2 0x1F3 CALLDATASIZE PUSH1 0x4 PUSH2 0x11E5 JUMP JUMPDEST PUSH2 0x69A JUMP JUMPDEST CALLVALUE DUP1 ISZERO PUSH2 0x204 JUMPI PUSH1 0x0 DUP1 REVERT JUMPDEST POP PUSH2 0x13A PUSH2 0x213 CALLDATASIZE PUSH1 0x4 PUSH2 0x11E5 JUMP JUMPDEST PUSH2 0x6F6 JUMP JUMPDEST CALLVALUE DUP1 ISZERO PUSH2 0x224 JUMPI PUSH1 0x0 DUP1 REVERT JUMPDEST POP PUSH2 0x1A0 PUSH2 0x233 CALLDATASIZE PUSH1 0x4 PUSH2 0x11E5 JUMP JUMPDEST PUSH2 0x74A JUMP JUMPDEST CALLVALUE DUP1 ISZERO PUSH2 0x244 JUMPI PUSH1 0x0 DUP1 REVERT JUMPDEST POP PUSH2 0x13A PUSH1 0x5 SLOAD DUP2 JUMP JUMPDEST CALLVALUE DUP1 ISZERO PUSH2 0x25A JUMPI PUSH1 0x0 DUP1 REVERT JUMPDEST POP PUSH1 0x0 SLOAD PUSH2 0x26E SWAP1 PUSH1 0x1 PUSH1 0x1 PUSH1 0xA0 SHL SUB AND DUP2 JUMP JUMPDEST PUSH1 0x40 MLOAD PUSH1 0x1 PUSH1 0x1 PUSH1 0xA0 SHL SUB SWAP1 SWAP2 AND DUP2 MSTORE PUSH1 0x20 ADD PUSH2 0x144 JUMP JUMPDEST CALLVALUE DUP1 ISZERO PUSH2 0x292 JUMPI PUSH1 0x0 DUP1 REVERT JUMPDEST POP PUSH2 0x13A PUSH2 0x2A1 CALLDATASIZE PUSH1 0x4 PUSH2 0x1246 JUMP JUMPDEST PUSH2 0x91E JUMP JUMPDEST PUSH2 0x1A0 PUSH2 0x2B4 CALLDATASIZE PUSH1 0x4 PUSH2 0x11E5 JUMP JUMPDEST PUSH2 0xA89 JUMP JUMPDEST CALLVALUE DUP1 ISZERO PUSH2 0x2C5 JUMPI PUSH1 0x0 DUP1 REVERT JUMPDEST POP PUSH2 0x13A PUSH2 0x2D4 CALLDATASIZE PUSH1 0x4 PUSH2 0x127B JUMP JUMPDEST PUSH1 0x6 PUSH1 0x20 MSTORE PUSH1 0x0 SWAP1 DUP2 MSTORE PUSH1 0x40 SWAP1 KECCAK256 SLOAD DUP2 JUMP JUMPDEST PUSH2 0x13A PUSH2 0x2F4 CALLDATASIZE PUSH1 0x4 PUSH2 0x1298 JUMP JUMPDEST PUSH2 0xC3F JUMP JUMPDEST CALLVALUE DUP1 ISZERO PUSH2 0x305 JUMPI PUSH1 0x0 DUP1 REVERT JUMPDEST POP PUSH2 0x13A PUSH1 0x2 SLOAD DUP2 JUMP JUMPDEST CALLVALUE DUP1 ISZERO PUSH2 0x31B JUMPI PUSH1 0x0 DUP1 REVERT JUMPDEST POP PUSH2 0x13A PUSH2 0x32A CALLDATASIZE PUSH1 0x4 PUSH2 0x127B JUMP JUMPDEST PUSH1 0x1 PUSH1 0x1 PUSH1 0xA0 SHL SUB AND PUSH1 0x0 SWAP1 DUP2 MSTORE PUSH1 0x6 PUSH1 0x20 MSTORE PUSH1 0x40 SWAP1 KECCAK256 SLOAD SWAP1 JUMP JUMPDEST CALLVALUE DUP1 ISZERO PUSH2 0x351 JUMPI PUSH1 0x0 DUP1 REVERT JUMPDEST POP PUSH2 0x13A PUSH1 0x3 SLOAD DUP2 JUMP JUMPDEST CALLVALUE DUP1 ISZERO PUSH2 0x367 JUMPI PUSH1 0x0 DUP1 REVERT JUMPDEST POP PUSH2 0x1A0 PUSH2 0x376 CALLDATASIZE PUSH1 0x4 PUSH2 0x12C4 JUMP JUMPDEST PUSH2 0xDAC JUMP JUMPDEST CALLVALUE DUP1 ISZERO PUSH2 0x387 JUMPI PUSH1 0x0 DUP1 REVERT JUMPDEST POP PUSH1 0x1 SLOAD PUSH2 0x26E SWAP1 PUSH1 0x1 PUSH1 0x1 PUSH1 0xA0 SHL SUB AND DUP2 JUMP JUMPDEST PUSH1 0x0 PUSH1 0x4 SLOAD DUP3 PUSH1 0x3 SLOAD PUSH2 0x3AE SWAP2 SWAP1 PUSH2 0x1320 JUMP JUMPDEST PUSH2 0x3B8 SWAP2 SWAP1 PUSH2 0x133F JUMP JUMPDEST SWAP3 SWAP2 POP POP JUMP JUMPDEST PUSH1 0x0 DUP1 PUSH2 0x3CA DUP5 PUSH2 0x6F6 JUMP JUMPDEST PUSH1 0x0 DUP1 SLOAD PUSH1 0x40 MLOAD PUSH4 0xC3C49A63 PUSH1 0xE0 SHL DUP2 MSTORE PUSH1 0x1 PUSH1 0x1 PUSH1 0xA0 SHL SUB DUP8 DUP2 AND PUSH1 0x4 DUP4 ADD MSTORE SWAP4 SWAP5 POP SWAP2 SWAP3 AND SWAP1 PUSH4 0xC3C49A63 SWAP1 PUSH1 0x24 ADD PUSH1 0x20 PUSH1 0x40 MLOAD DUP1 DUP4 SUB DUP2 DUP7 GAS STATICCALL ISZERO DUP1 ISZERO PUSH2 0x418 JUMPI RETURNDATASIZE PUSH1 0x0 DUP1 RETURNDATACOPY RETURNDATASIZE PUSH1 0x0 REVERT JUMPDEST POP POP POP POP PUSH1 0x40 MLOAD RETURNDATASIZE PUSH1 0x1F NOT PUSH1 0x1F DUP3 ADD AND DUP3 ADD DUP1 PUSH1 0x40 MSTORE POP DUP2 ADD SWAP1 PUSH2 0x43C SWAP2 SWAP1 PUSH2 0x1361 JUMP JUMPDEST PUSH1 0x40 MLOAD PUSH4 0x73A5BE9B PUSH1 0xE0 SHL DUP2 MSTORE PUSH1 0x4 DUP2 ADD DUP5 SWAP1 MSTORE SWAP1 SWAP2 POP PUSH1 0x1 PUSH1 0x1 PUSH1 0xA0 SHL SUB DUP3 AND SWAP1 PUSH4 0x73A5BE9B SWAP1 PUSH1 0x24 ADD PUSH1 0x20 PUSH1 0x40 MLOAD DUP1 DUP4 SUB DUP2 DUP7 GAS STATICCALL ISZERO DUP1 ISZERO PUSH2 0x484 JUMPI RETURNDATASIZE PUSH1 0x0 DUP1 RETURNDATACOPY RETURNDATASIZE PUSH1 0x0 REVERT JUMPDEST POP POP POP POP PUSH1 0x40 MLOAD RETURNDATASIZE PUSH1 0x1F NOT PUSH1 0x1F DUP3 ADD AND DUP3 ADD DUP1 PUSH1 0x40 MSTORE POP DUP2 ADD SWAP1 PUSH2 0x4A8 SWAP2 SWAP1 PUSH2 0x137E JUMP JUMPDEST SWAP6 SWAP5 POP POP POP POP POP JUMP JUMPDEST PUSH1 0x0 PUSH1 0x3 SLOAD CALLVALUE PUSH1 0x4 SLOAD PUSH2 0x4C4 SWAP2 SWAP1 PUSH2 0x1320 JUMP JUMPDEST PUSH2 0x4CE SWAP2 SWAP1 PUSH2 0x133F JUMP JUMPDEST SWAP1 POP DUP1 DUP3 LT ISZERO PUSH2 0x525 JUMPI PUSH1 0x40 MLOAD PUSH3 0x461BCD PUSH1 0xE5 SHL DUP2 MSTORE PUSH1 0x20 PUSH1 0x4 DUP3 ADD MSTORE PUSH1 0x19 PUSH1 0x24 DUP3 ADD MSTORE PUSH32 0x4D6178203C20726571756972656420696E766573746D656E7400000000000000 PUSH1 0x44 DUP3 ADD MSTORE PUSH1 0x64 ADD JUMPDEST PUSH1 0x40 MLOAD DUP1 SWAP2 SUB SWAP1 REVERT JUMPDEST PUSH1 0x1 SLOAD PUSH1 0x40 MLOAD PUSH4 0x23B872DD PUSH1 0xE0 SHL DUP2 MSTORE PUSH1 0x1 PUSH1 0x1 PUSH1 0xA0 SHL SUB SWAP1 SWAP2 AND SWAP1 PUSH4 0x23B872DD SWAP1 PUSH2 0x559 SWAP1 CALLER SWAP1 ADDRESS SWAP1 DUP7 SWAP1 PUSH1 0x4 ADD PUSH2 0x1397 JUMP JUMPDEST PUSH1 0x20 PUSH1 0x40 MLOAD DUP1 DUP4 SUB DUP2 PUSH1 0x0 DUP8 GAS CALL ISZERO DUP1 ISZERO PUSH2 0x578 JUMPI RETURNDATASIZE PUSH1 0x0 DUP1 RETURNDATACOPY RETURNDATASIZE PUSH1 0x0 REVERT JUMPDEST POP POP POP POP PUSH1 0x40 MLOAD RETURNDATASIZE PUSH1 0x1F NOT PUSH1 0x1F DUP3 ADD AND DUP3 ADD DUP1 PUSH1 0x40 MSTORE POP DUP2 ADD SWAP1 PUSH2 0x59C SWAP2 SWAP1 PUSH2 0x13BB JUMP JUMPDEST PUSH2 0x5A5 JUMPI PUSH1 0x0 DUP1 REVERT JUMPDEST PUSH1 0x0 PUSH1 0x4 SLOAD PUSH1 0x7 SLOAD DUP4 PUSH2 0x5B8 SWAP2 SWAP1 PUSH2 0x1320 JUMP JUMPDEST PUSH2 0x5C2 SWAP2 SWAP1 PUSH2 0x133F JUMP JUMPDEST SWAP1 POP CALLVALUE PUSH1 0x3 PUSH1 0x0 DUP3 DUP3 SLOAD PUSH2 0x5D6 SWAP2 SWAP1 PUSH2 0x13DD JUMP JUMPDEST SWAP3 POP POP DUP2 SWAP1 SSTORE POP DUP2 PUSH1 0x4 PUSH1 0x0 DUP3 DUP3 SLOAD PUSH2 0x5EF SWAP2 SWAP1 PUSH2 0x13DD JUMP JUMPDEST SWAP1 SWAP2 SSTORE POP POP PUSH1 0x4 SLOAD PUSH1 0x3 SLOAD PUSH2 0x604 SWAP2 SWAP1 PUSH2 0x1320 JUMP JUMPDEST PUSH1 0x5 SSTORE CALLER PUSH1 0x0 SWAP1 DUP2 MSTORE PUSH1 0x6 PUSH1 0x20 MSTORE PUSH1 0x40 DUP2 KECCAK256 DUP1 SLOAD DUP4 SWAP3 SWAP1 PUSH2 0x626 SWAP1 DUP5 SWAP1 PUSH2 0x13DD JUMP JUMPDEST SWAP3 POP POP DUP2 SWAP1 SSTORE POP DUP1 PUSH1 0x7 PUSH1 0x0 DUP3 DUP3 SLOAD PUSH2 0x63F SWAP2 SWAP1 PUSH2 0x13DD JUMP JUMPDEST SWAP1 SWAP2 SSTORE POP POP PUSH1 0x40 DUP1 MLOAD CALLVALUE DUP2 MSTORE PUSH1 0x20 DUP2 ADD DUP5 SWAP1 MSTORE DUP3 SWAP2 CALLER SWAP2 PUSH32 0x3BDFF14EED6DDD6CA85E178ED7DF644A6A676C0796374CE875E380BC74A28E78 SWAP2 ADD JUMPDEST PUSH1 0x40 MLOAD DUP1 SWAP2 SUB SWAP1 LOG3 POP POP POP JUMP JUMPDEST PUSH1 0x0 PUSH1 0x3 SLOAD DUP3 PUSH1 0x4 SLOAD PUSH2 0x3AE SWAP2 SWAP1 PUSH2 0x1320 JUMP JUMPDEST PUSH1 0x0 DUP1 PUSH1 0x2 SLOAD DUP4 PUSH2 0x6AB SWAP2 SWAP1 PUSH2 0x133F JUMP JUMPDEST SWAP1 POP PUSH1 0x0 DUP4 PUSH1 0x3 SLOAD PUSH2 0x6BD SWAP2 SWAP1 PUSH2 0x13DD JUMP JUMPDEST SWAP1 POP PUSH2 0x6C9 DUP3 DUP3 PUSH2 0x13F5 JUMP JUMPDEST PUSH1 0x5 SLOAD PUSH2 0x6D6 SWAP2 SWAP1 PUSH2 0x133F JUMP JUMPDEST PUSH2 0x6E1 SWAP1 PUSH1 0x1 PUSH2 0x13DD JUMP JUMPDEST PUSH1 0x4 SLOAD PUSH2 0x6EE SWAP2 SWAP1 PUSH2 0x13F5 JUMP JUMPDEST SWAP5 SWAP4 POP POP POP POP JUMP JUMPDEST PUSH1 0x0 DUP1 PUSH1 0x2 SLOAD DUP4 PUSH2 0x707 SWAP2 SWAP1 PUSH2 0x133F JUMP JUMPDEST SWAP1 POP PUSH1 0x0 DUP4 PUSH1 0x4 SLOAD PUSH2 0x719 SWAP2 SWAP1 PUSH2 0x13DD JUMP JUMPDEST SWAP1 POP PUSH2 0x725 DUP3 DUP3 PUSH2 0x13F5 JUMP JUMPDEST PUSH1 0x5 SLOAD PUSH2 0x732 SWAP2 SWAP1 PUSH2 0x133F JUMP JUMPDEST PUSH2 0x73D SWAP1 PUSH1 0x1 PUSH2 0x13DD JUMP JUMPDEST PUSH1 0x3 SLOAD PUSH2 0x6EE SWAP2 SWAP1 PUSH2 0x13F5 JUMP JUMPDEST CALLER PUSH1 0x0 SWAP1 DUP2 MSTORE PUSH1 0x6 PUSH1 0x20 MSTORE PUSH1 0x40 SWAP1 KECCAK256 SLOAD DUP2 GT ISZERO PUSH2 0x7A9 JUMPI PUSH1 0x40 MLOAD PUSH3 0x461BCD PUSH1 0xE5 SHL DUP2 MSTORE PUSH1 0x20 PUSH1 0x4 DUP3 ADD MSTORE PUSH1 0x1B PUSH1 0x24 DUP3 ADD MSTORE PUSH32 0x4E6F7420656E6F7567682073686172657320746F206469766573740000000000 PUSH1 0x44 DUP3 ADD MSTORE PUSH1 0x64 ADD PUSH2 0x51C JUMP JUMPDEST PUSH1 0x0 PUSH1 0x7 SLOAD DUP3 PUSH1 0x3 SLOAD PUSH2 0x7BC SWAP2 SWAP1 PUSH2 0x1320 JUMP JUMPDEST PUSH2 0x7C6 SWAP2 SWAP1 PUSH2 0x133F JUMP JUMPDEST SWAP1 POP PUSH1 0x0 PUSH1 0x7 SLOAD DUP4 PUSH1 0x4 SLOAD PUSH2 0x7DB SWAP2 SWAP1 PUSH2 0x1320 JUMP JUMPDEST PUSH2 0x7E5 SWAP2 SWAP1 PUSH2 0x133F JUMP JUMPDEST PUSH1 0x1 SLOAD PUSH1 0x40 MLOAD PUSH4 0xA9059CBB PUSH1 0xE0 SHL DUP2 MSTORE CALLER PUSH1 0x4 DUP3 ADD MSTORE PUSH1 0x24 DUP2 ADD DUP4 SWAP1 MSTORE SWAP2 SWAP3 POP PUSH1 0x1 PUSH1 0x1 PUSH1 0xA0 SHL SUB AND SWAP1 PUSH4 0xA9059CBB SWAP1 PUSH1 0x44 ADD PUSH1 0x20 PUSH1 0x40 MLOAD DUP1 DUP4 SUB DUP2 PUSH1 0x0 DUP8 GAS CALL ISZERO DUP1 ISZERO PUSH2 0x837 JUMPI RETURNDATASIZE PUSH1 0x0 DUP1 RETURNDATACOPY RETURNDATASIZE PUSH1 0x0 REVERT JUMPDEST POP POP POP POP PUSH1 0x40 MLOAD RETURNDATASIZE PUSH1 0x1F NOT PUSH1 0x1F DUP3 ADD AND DUP3 ADD DUP1 PUSH1 0x40 MSTORE POP DUP2 ADD SWAP1 PUSH2 0x85B SWAP2 SWAP1 PUSH2 0x13BB JUMP JUMPDEST PUSH2 0x864 JUMPI PUSH1 0x0 DUP1 REVERT JUMPDEST DUP2 PUSH1 0x3 PUSH1 0x0 DUP3 DUP3 SLOAD PUSH2 0x876 SWAP2 SWAP1 PUSH2 0x13F5 JUMP JUMPDEST SWAP3 POP POP DUP2 SWAP1 SSTORE POP DUP1 PUSH1 0x4 PUSH1 0x0 DUP3 DUP3 SLOAD PUSH2 0x88F SWAP2 SWAP1 PUSH2 0x13F5 JUMP JUMPDEST SWAP1 SWAP2 SSTORE POP POP PUSH1 0x4 SLOAD PUSH1 0x3 SLOAD PUSH2 0x8A4 SWAP2 SWAP1 PUSH2 0x1320 JUMP JUMPDEST PUSH1 0x5 SSTORE CALLER PUSH1 0x0 SWAP1 DUP2 MSTORE PUSH1 0x6 PUSH1 0x20 MSTORE PUSH1 0x40 DUP2 KECCAK256 DUP1 SLOAD DUP6 SWAP3 SWAP1 PUSH2 0x8C6 SWAP1 DUP5 SWAP1 PUSH2 0x13F5 JUMP JUMPDEST SWAP3 POP POP DUP2 SWAP1 SSTORE POP DUP3 PUSH1 0x7 PUSH1 0x0 DUP3 DUP3 SLOAD PUSH2 0x8DF SWAP2 SWAP1 PUSH2 0x13F5 JUMP JUMPDEST SWAP1 SWAP2 SSTORE POP POP PUSH1 0x40 DUP1 MLOAD DUP4 DUP2 MSTORE PUSH1 0x20 DUP2 ADD DUP4 SWAP1 MSTORE DUP5 SWAP2 CALLER SWAP2 PUSH32 0xA7548018EA9C6A3B80DF88945143204C1C6BD0CC7CCE431BA4B8FE25AAA0F040 SWAP2 ADD PUSH2 0x67A JUMP JUMPDEST PUSH1 0x0 DUP1 PUSH1 0x5 SLOAD GT PUSH2 0x92E JUMPI PUSH1 0x0 DUP1 REVERT JUMPDEST PUSH1 0x1 SLOAD PUSH1 0x40 MLOAD PUSH4 0x23B872DD PUSH1 0xE0 SHL DUP2 MSTORE PUSH1 0x1 PUSH1 0x1 PUSH1 0xA0 SHL SUB SWAP1 SWAP2 AND SWAP1 PUSH4 0x23B872DD SWAP1 PUSH2 0x962 SWAP1 CALLER SWAP1 ADDRESS SWAP1 DUP9 SWAP1 PUSH1 0x4 ADD PUSH2 0x1397 JUMP JUMPDEST PUSH1 0x20 PUSH1 0x40 MLOAD DUP1 DUP4 SUB DUP2 PUSH1 0x0 DUP8 GAS CALL ISZERO DUP1 ISZERO PUSH2 0x981 JUMPI RETURNDATASIZE PUSH1 0x0 DUP1 RETURNDATACOPY RETURNDATASIZE PUSH1 0x0 REVERT JUMPDEST POP POP POP POP PUSH1 0x40 MLOAD RETURNDATASIZE PUSH1 0x1F NOT PUSH1 0x1F DUP3 ADD AND DUP3 ADD DUP1 PUSH1 0x40 MSTORE POP DUP2 ADD SWAP1 PUSH2 0x9A5 SWAP2 SWAP1 PUSH2 0x13BB JUMP JUMPDEST PUSH2 0x9E8 JUMPI PUSH1 0x40 MLOAD PUSH3 0x461BCD PUSH1 0xE5 SHL DUP2 MSTORE PUSH1 0x20 PUSH1 0x4 DUP3 ADD MSTORE PUSH1 0x14 PUSH1 0x24 DUP3 ADD MSTORE PUSH20 0x151ADB881253881D1C985B9CD9995C8819985A5B PUSH1 0x62 SHL PUSH1 0x44 DUP3 ADD MSTORE PUSH1 0x64 ADD PUSH2 0x51C JUMP JUMPDEST PUSH1 0x0 PUSH2 0x9F3 DUP5 PUSH2 0x1059 JUMP JUMPDEST SWAP1 POP DUP3 DUP2 LT ISZERO PUSH2 0xA3B JUMPI PUSH1 0x40 MLOAD PUSH3 0x461BCD PUSH1 0xE5 SHL DUP2 MSTORE PUSH1 0x20 PUSH1 0x4 DUP3 ADD MSTORE PUSH1 0x13 PUSH1 0x24 DUP3 ADD MSTORE PUSH19 0x195D1A14185A59080F081B5A5B915D1A13DD5D PUSH1 0x6A SHL PUSH1 0x44 DUP3 ADD MSTORE PUSH1 0x64 ADD PUSH2 0x51C JUMP JUMPDEST PUSH1 0x40 DUP1 MLOAD DUP6 DUP2 MSTORE PUSH1 0x20 DUP2 ADD DUP4 SWAP1 MSTORE PUSH1 0x1 PUSH1 0x1 PUSH1 0xA0 SHL SUB DUP8 AND SWAP2 CALLER SWAP2 PUSH32 0x90E08377D523C5E583BEEFCDB6735844F8D4E305BE8E4E4003E940EE726CE24C SWAP2 ADD PUSH1 0x40 MLOAD DUP1 SWAP2 SUB SWAP1 LOG3 SWAP5 SWAP4 POP POP POP POP JUMP JUMPDEST PUSH1 0x7 SLOAD ISZERO PUSH2 0xAF8 JUMPI PUSH1 0x40 MLOAD PUSH3 0x461BCD PUSH1 0xE5 SHL DUP2 MSTORE PUSH1 0x20 PUSH1 0x4 DUP3 ADD MSTORE PUSH1 0x36 PUSH1 0x24 DUP3 ADD MSTORE PUSH32 0x4C697175696469747920706F6F6C20697320616C726561647920736565646564 PUSH1 0x44 DUP3 ADD MSTORE PUSH22 0xB081D5CD9481A5B9D995CDD0A0A481A5B9CDD195859 PUSH1 0x52 SHL PUSH1 0x64 DUP3 ADD MSTORE PUSH1 0x84 ADD PUSH2 0x51C JUMP JUMPDEST PUSH1 0x0 DUP2 GT DUP1 ISZERO PUSH2 0xB08 JUMPI POP PUSH1 0x0 CALLVALUE GT JUMPDEST PUSH2 0xB54 JUMPI PUSH1 0x40 MLOAD PUSH3 0x461BCD PUSH1 0xE5 SHL DUP2 MSTORE PUSH1 0x20 PUSH1 0x4 DUP3 ADD MSTORE PUSH1 0x1A PUSH1 0x24 DUP3 ADD MSTORE PUSH32 0x4D75737420696E766573742045544820616E6420746F6B656E73000000000000 PUSH1 0x44 DUP3 ADD MSTORE PUSH1 0x64 ADD PUSH2 0x51C JUMP JUMPDEST PUSH1 0x1 SLOAD PUSH1 0x40 MLOAD PUSH4 0x23B872DD PUSH1 0xE0 SHL DUP2 MSTORE PUSH1 0x1 PUSH1 0x1 PUSH1 0xA0 SHL SUB SWAP1 SWAP2 AND SWAP1 PUSH4 0x23B872DD SWAP1 PUSH2 0xB88 SWAP1 CALLER SWAP1 ADDRESS SWAP1 DUP7 SWAP1 PUSH1 0x4 ADD PUSH2 0x1397 JUMP JUMPDEST PUSH1 0x20 PUSH1 0x40 MLOAD DUP1 DUP4 SUB DUP2 PUSH1 0x0 DUP8 GAS CALL ISZERO DUP1 ISZERO PUSH2 0xBA7 JUMPI RETURNDATASIZE PUSH1 0x0 DUP1 RETURNDATACOPY RETURNDATASIZE PUSH1 0x0 REVERT JUMPDEST POP POP POP POP PUSH1 0x40 MLOAD RETURNDATASIZE PUSH1 0x1F NOT PUSH1 0x1F DUP3 ADD AND DUP3 ADD DUP1 PUSH1 0x40 MSTORE POP DUP2 ADD SWAP1 PUSH2 0xBCB SWAP2 SWAP1 PUSH2 0x13BB JUMP JUMPDEST POP PUSH1 0x4 DUP2 SWAP1 SSTORE CALLVALUE PUSH1 0x3 DUP2 SWAP1 SSTORE PUSH2 0xBE2 SWAP1 DUP3 SWAP1 PUSH2 0x1320 JUMP JUMPDEST PUSH1 0x5 SSTORE CALLER PUSH1 0x0 DUP2 DUP2 MSTORE PUSH1 0x6 PUSH1 0x20 SWAP1 DUP2 MSTORE PUSH1 0x40 SWAP2 DUP3 SWAP1 KECCAK256 PUSH2 0x2710 SWAP1 DUP2 SWAP1 SSTORE PUSH1 0x7 DUP2 SWAP1 SSTORE DUP3 MLOAD CALLVALUE DUP2 MSTORE SWAP2 DUP3 ADD DUP6 SWAP1 MSTORE SWAP3 SWAP2 PUSH32 0x3BDFF14EED6DDD6CA85E178ED7DF644A6A676C0796374CE875E380BC74A28E78 SWAP2 ADD PUSH1 0x40 MLOAD DUP1 SWAP2 SUB SWAP1 LOG3 POP JUMP JUMPDEST PUSH1 0x0 DUP1 PUSH1 0x5 SLOAD GT PUSH2 0xC4F JUMPI PUSH1 0x0 DUP1 REVERT JUMPDEST PUSH1 0x0 PUSH2 0xC5A CALLVALUE PUSH2 0x1123 JUMP JUMPDEST SWAP1 POP DUP3 DUP2 LT ISZERO PUSH2 0xCA4 JUMPI PUSH1 0x40 MLOAD PUSH3 0x461BCD PUSH1 0xE5 SHL DUP2 MSTORE PUSH1 0x20 PUSH1 0x4 DUP3 ADD MSTORE PUSH1 0x15 PUSH1 0x24 DUP3 ADD MSTORE PUSH21 0x1D1ADB9CD4185A59080F081B5A5B951ADB9CD3DD5D PUSH1 0x5A SHL PUSH1 0x44 DUP3 ADD MSTORE PUSH1 0x64 ADD PUSH2 0x51C JUMP JUMPDEST PUSH1 0x40 DUP1 MLOAD CALLVALUE DUP2 MSTORE PUSH1 0x20 DUP2 ADD DUP4 SWAP1 MSTORE PUSH1 0x1 PUSH1 0x1 PUSH1 0xA0 SHL SUB DUP7 AND SWAP2 CALLER SWAP2 PUSH32 0x623B3804FA71D67900D064613DA8F94B9617215EE90799290593E1745087AD18 SWAP2 ADD PUSH1 0x40 MLOAD DUP1 SWAP2 SUB SWAP1 LOG3 PUSH1 0x1 SLOAD PUSH1 0x40 MLOAD PUSH4 0xA9059CBB PUSH1 0xE0 SHL DUP2 MSTORE PUSH1 0x1 PUSH1 0x1 PUSH1 0xA0 SHL SUB DUP7 DUP2 AND PUSH1 0x4 DUP4 ADD MSTORE PUSH1 0x24 DUP3 ADD DUP5 SWAP1 MSTORE SWAP1 SWAP2 AND SWAP1 PUSH4 0xA9059CBB SWAP1 PUSH1 0x44 ADD PUSH1 0x20 PUSH1 0x40 MLOAD DUP1 DUP4 SUB DUP2 PUSH1 0x0 DUP8 GAS CALL ISZERO DUP1 ISZERO PUSH2 0xD3D JUMPI RETURNDATASIZE PUSH1 0x0 DUP1 RETURNDATACOPY RETURNDATASIZE PUSH1 0x0 REVERT JUMPDEST POP POP POP POP PUSH1 0x40 MLOAD RETURNDATASIZE PUSH1 0x1F NOT PUSH1 0x1F DUP3 ADD AND DUP3 ADD DUP1 PUSH1 0x40 MSTORE POP DUP2 ADD SWAP1 PUSH2 0xD61 SWAP2 SWAP1 PUSH2 0x13BB JUMP JUMPDEST PUSH2 0xDA5 JUMPI PUSH1 0x40 MLOAD PUSH3 0x461BCD PUSH1 0xE5 SHL DUP2 MSTORE PUSH1 0x20 PUSH1 0x4 DUP3 ADD MSTORE PUSH1 0x15 PUSH1 0x24 DUP3 ADD MSTORE PUSH21 0x151ADB8813D555081D1C985B9CD9995C8819985A5B PUSH1 0x5A SHL PUSH1 0x44 DUP3 ADD MSTORE PUSH1 0x64 ADD PUSH2 0x51C JUMP JUMPDEST SWAP4 SWAP3 POP POP POP JUMP JUMPDEST PUSH1 0x0 PUSH1 0x5 SLOAD GT PUSH2 0xDBB JUMPI PUSH1 0x0 DUP1 REVERT JUMPDEST PUSH1 0x1 SLOAD PUSH1 0x40 MLOAD PUSH4 0x23B872DD PUSH1 0xE0 SHL DUP2 MSTORE PUSH1 0x1 PUSH1 0x1 PUSH1 0xA0 SHL SUB SWAP1 SWAP2 AND SWAP1 PUSH4 0x23B872DD SWAP1 PUSH2 0xDEF SWAP1 CALLER SWAP1 ADDRESS SWAP1 DUP8 SWAP1 PUSH1 0x4 ADD PUSH2 0x1397 JUMP JUMPDEST PUSH1 0x20 PUSH1 0x40 MLOAD DUP1 DUP4 SUB DUP2 PUSH1 0x0 DUP8 GAS CALL ISZERO DUP1 ISZERO PUSH2 0xE0E JUMPI RETURNDATASIZE PUSH1 0x0 DUP1 RETURNDATACOPY RETURNDATASIZE PUSH1 0x0 REVERT JUMPDEST POP POP POP POP PUSH1 0x40 MLOAD RETURNDATASIZE PUSH1 0x1F NOT PUSH1 0x1F DUP3 ADD AND DUP3 ADD DUP1 PUSH1 0x40 MSTORE POP DUP2 ADD SWAP1 PUSH2 0xE32 SWAP2 SWAP1 PUSH2 0x13BB JUMP JUMPDEST PUSH2 0xE75 JUMPI PUSH1 0x40 MLOAD PUSH3 0x461BCD PUSH1 0xE5 SHL DUP2 MSTORE PUSH1 0x20 PUSH1 0x4 DUP3 ADD MSTORE PUSH1 0x14 PUSH1 0x24 DUP3 ADD MSTORE PUSH20 0x151ADB881253881D1C985B9CD9995C8819985A5B PUSH1 0x62 SHL PUSH1 0x44 DUP3 ADD MSTORE PUSH1 0x64 ADD PUSH2 0x51C JUMP JUMPDEST PUSH1 0x0 PUSH2 0xE80 DUP4 PUSH2 0x1059 JUMP JUMPDEST SWAP1 POP PUSH1 0x0 DUP2 GT PUSH2 0xEC9 JUMPI PUSH1 0x40 MLOAD PUSH3 0x461BCD PUSH1 0xE5 SHL DUP2 MSTORE PUSH1 0x20 PUSH1 0x4 DUP3 ADD MSTORE PUSH1 0x14 PUSH1 0x24 DUP3 ADD MSTORE PUSH20 0x115D1A081BDD5D081A5CC81D1BDBC81CDB585B1B PUSH1 0x62 SHL PUSH1 0x44 DUP3 ADD MSTORE PUSH1 0x64 ADD PUSH2 0x51C JUMP JUMPDEST PUSH1 0x0 DUP1 SLOAD PUSH1 0x40 MLOAD PUSH4 0xC3C49A63 PUSH1 0xE0 SHL DUP2 MSTORE PUSH1 0x1 PUSH1 0x1 PUSH1 0xA0 SHL SUB DUP8 DUP2 AND PUSH1 0x4 DUP4 ADD MSTORE SWAP1 SWAP2 AND SWAP1 PUSH4 0xC3C49A63 SWAP1 PUSH1 0x24 ADD PUSH1 0x20 PUSH1 0x40 MLOAD DUP1 DUP4 SUB DUP2 DUP7 GAS STATICCALL ISZERO DUP1 ISZERO PUSH2 0xF14 JUMPI RETURNDATASIZE PUSH1 0x0 DUP1 RETURNDATACOPY RETURNDATASIZE PUSH1 0x0 REVERT JUMPDEST POP POP POP POP PUSH1 0x40 MLOAD RETURNDATASIZE PUSH1 0x1F NOT PUSH1 0x1F DUP3 ADD AND DUP3 ADD DUP1 PUSH1 0x40 MSTORE POP DUP2 ADD SWAP1 PUSH2 0xF38 SWAP2 SWAP1 PUSH2 0x1361 JUMP JUMPDEST PUSH1 0x40 MLOAD PUSH4 0xD91EFC3B PUSH1 0xE0 SHL DUP2 MSTORE PUSH1 0x1 PUSH1 0x1 PUSH1 0xA0 SHL SUB DUP9 DUP2 AND PUSH1 0x4 DUP4 ADD MSTORE PUSH1 0x24 DUP3 ADD DUP7 SWAP1 MSTORE SWAP2 SWAP3 POP PUSH1 0x0 SWAP2 DUP4 AND SWAP1 PUSH4 0xD91EFC3B SWAP1 DUP6 SWAP1 PUSH1 0x44 ADD PUSH1 0x20 PUSH1 0x40 MLOAD DUP1 DUP4 SUB DUP2 DUP6 DUP9 GAS CALL ISZERO DUP1 ISZERO PUSH2 0xF8E JUMPI RETURNDATASIZE PUSH1 0x0 DUP1 RETURNDATACOPY RETURNDATASIZE PUSH1 0x0 REVERT JUMPDEST POP POP POP POP POP PUSH1 0x40 MLOAD RETURNDATASIZE PUSH1 0x1F NOT PUSH1 0x1F DUP3 ADD AND DUP3 ADD DUP1 PUSH1 0x40 MSTORE POP DUP2 ADD SWAP1 PUSH2 0xFB3 SWAP2 SWAP1 PUSH2 0x137E JUMP JUMPDEST SWAP1 POP DUP4 DUP2 LT ISZERO PUSH2 0x1005 JUMPI PUSH1 0x40 MLOAD PUSH3 0x461BCD PUSH1 0xE5 SHL DUP2 MSTORE PUSH1 0x20 PUSH1 0x4 DUP3 ADD MSTORE PUSH1 0x1D PUSH1 0x24 DUP3 ADD MSTORE PUSH32 0x4F7574707574206C657373207468616E206D696E546F6B656E734F7574000000 PUSH1 0x44 DUP3 ADD MSTORE PUSH1 0x64 ADD PUSH2 0x51C JUMP JUMPDEST PUSH1 0x40 DUP1 MLOAD DUP7 DUP2 MSTORE PUSH1 0x20 DUP2 ADD DUP6 SWAP1 MSTORE PUSH1 0x1 PUSH1 0x1 PUSH1 0xA0 SHL SUB DUP1 DUP6 AND SWAP3 SWAP1 DUP11 AND SWAP2 CALLER SWAP2 PUSH32 0x984DED3C86142A79D1FF62A9D57305E530E14653B3343AB5BAE22FFB4F99769C SWAP2 ADD PUSH1 0x40 MLOAD DUP1 SWAP2 SUB SWAP1 LOG4 POP POP POP POP POP POP POP JUMP JUMPDEST PUSH1 0x0 DUP1 PUSH1 0x2 SLOAD DUP4 PUSH2 0x106A SWAP2 SWAP1 PUSH2 0x133F JUMP JUMPDEST SWAP1 POP DUP3 PUSH1 0x4 SLOAD PUSH2 0x107A SWAP2 SWAP1 PUSH2 0x13DD JUMP JUMPDEST PUSH1 0x4 DUP2 SWAP1 SSTORE PUSH1 0x0 SWAP1 PUSH2 0x108D SWAP1 DUP4 SWAP1 PUSH2 0x13F5 JUMP JUMPDEST PUSH1 0x5 SLOAD PUSH2 0x109A SWAP2 SWAP1 PUSH2 0x133F JUMP JUMPDEST PUSH2 0x10A5 SWAP1 PUSH1 0x1 PUSH2 0x13DD JUMP JUMPDEST PUSH1 0x3 SLOAD PUSH2 0x10B2 SWAP2 SWAP1 PUSH2 0x13F5 JUMP JUMPDEST SWAP1 POP PUSH1 0x3 SLOAD DUP2 GT ISZERO PUSH2 0x10F9 JUMPI PUSH1 0x40 MLOAD PUSH3 0x461BCD PUSH1 0xE5 SHL DUP2 MSTORE PUSH1 0x20 PUSH1 0x4 DUP3 ADD MSTORE PUSH1 0x10 PUSH1 0x24 DUP3 ADD MSTORE PUSH16 0x98C2C6D6D2DCCE40E0DEDED840CAE8D PUSH1 0x83 SHL PUSH1 0x44 DUP3 ADD MSTORE PUSH1 0x64 ADD PUSH2 0x51C JUMP JUMPDEST DUP1 PUSH1 0x3 SLOAD PUSH2 0x1107 SWAP2 SWAP1 PUSH2 0x13F5 JUMP JUMPDEST PUSH1 0x3 DUP2 SWAP1 SSTORE PUSH1 0x4 SLOAD PUSH2 0x1119 SWAP2 SWAP1 PUSH2 0x1320 JUMP JUMPDEST PUSH1 0x5 SSTORE SWAP4 SWAP3 POP POP POP JUMP JUMPDEST PUSH1 0x0 DUP1 PUSH1 0x2 SLOAD DUP4 PUSH2 0x1134 SWAP2 SWAP1 PUSH2 0x133F JUMP JUMPDEST SWAP1 POP DUP3 PUSH1 0x3 SLOAD PUSH2 0x1144 SWAP2 SWAP1 PUSH2 0x13DD JUMP JUMPDEST PUSH1 0x3 DUP2 SWAP1 SSTORE PUSH1 0x0 SWAP1 PUSH2 0x1157 SWAP1 DUP4 SWAP1 PUSH2 0x13F5 JUMP JUMPDEST PUSH1 0x5 SLOAD PUSH2 0x1164 SWAP2 SWAP1 PUSH2 0x133F JUMP JUMPDEST PUSH2 0x116F SWAP1 PUSH1 0x1 PUSH2 0x13DD JUMP JUMPDEST PUSH1 0x4 SLOAD PUSH2 0x117C SWAP2 SWAP1 PUSH2 0x13F5 JUMP JUMPDEST SWAP1 POP PUSH1 0x4 SLOAD DUP2 GT ISZERO PUSH2 0x11C6 JUMPI PUSH1 0x40 MLOAD PUSH3 0x461BCD PUSH1 0xE5 SHL DUP2 MSTORE PUSH1 0x20 PUSH1 0x4 DUP3 ADD MSTORE PUSH1 0x13 PUSH1 0x24 DUP3 ADD MSTORE PUSH19 0x4C61636B696E6720706F6F6C20746F6B656E73 PUSH1 0x68 SHL PUSH1 0x44 DUP3 ADD MSTORE PUSH1 0x64 ADD PUSH2 0x51C JUMP JUMPDEST DUP1 PUSH1 0x4 SLOAD PUSH2 0x11D4 SWAP2 SWAP1 PUSH2 0x13F5 JUMP JUMPDEST PUSH1 0x4 DUP2 SWAP1 SSTORE PUSH1 0x3 SLOAD PUSH2 0x1119 SWAP2 PUSH2 0x1320 JUMP JUMPDEST PUSH1 0x0 PUSH1 0x20 DUP3 DUP5 SUB SLT ISZERO PUSH2 0x11F7 JUMPI PUSH1 0x0 DUP1 REVERT JUMPDEST POP CALLDATALOAD SWAP2 SWAP1 POP JUMP JUMPDEST PUSH1 0x1 PUSH1 0x1 PUSH1 0xA0 SHL SUB DUP2 AND DUP2 EQ PUSH2 0x1213 JUMPI PUSH1 0x0 DUP1 REVERT JUMPDEST POP JUMP JUMPDEST PUSH1 0x0 DUP1 PUSH1 0x40 DUP4 DUP6 SUB SLT ISZERO PUSH2 0x1229 JUMPI PUSH1 0x0 DUP1 REVERT JUMPDEST DUP3 CALLDATALOAD SWAP2 POP PUSH1 0x20 DUP4 ADD CALLDATALOAD PUSH2 0x123B DUP2 PUSH2 0x11FE JUMP JUMPDEST DUP1 SWAP2 POP POP SWAP3 POP SWAP3 SWAP1 POP JUMP JUMPDEST PUSH1 0x0 DUP1 PUSH1 0x0 PUSH1 0x60 DUP5 DUP7 SUB SLT ISZERO PUSH2 0x125B JUMPI PUSH1 0x0 DUP1 REVERT JUMPDEST DUP4 CALLDATALOAD PUSH2 0x1266 DUP2 PUSH2 0x11FE JUMP JUMPDEST SWAP6 PUSH1 0x20 DUP6 ADD CALLDATALOAD SWAP6 POP PUSH1 0x40 SWAP1 SWAP5 ADD CALLDATALOAD SWAP4 SWAP3 POP POP POP JUMP JUMPDEST PUSH1 0x0 PUSH1 0x20 DUP3 DUP5 SUB SLT ISZERO PUSH2 0x128D JUMPI PUSH1 0x0 DUP1 REVERT JUMPDEST DUP2 CALLDATALOAD PUSH2 0xDA5 DUP2 PUSH2 0x11FE JUMP JUMPDEST PUSH1 0x0 DUP1 PUSH1 0x40 DUP4 DUP6 SUB SLT ISZERO PUSH2 0x12AB JUMPI PUSH1 0x0 DUP1 REVERT JUMPDEST DUP3 CALLDATALOAD PUSH2 0x12B6 DUP2 PUSH2 0x11FE JUMP JUMPDEST SWAP5 PUSH1 0x20 SWAP4 SWAP1 SWAP4 ADD CALLDATALOAD SWAP4 POP POP POP JUMP JUMPDEST PUSH1 0x0 DUP1 PUSH1 0x0 DUP1 PUSH1 0x80 DUP6 DUP8 SUB SLT ISZERO PUSH2 0x12DA JUMPI PUSH1 0x0 DUP1 REVERT JUMPDEST DUP5 CALLDATALOAD PUSH2 0x12E5 DUP2 PUSH2 0x11FE JUMP JUMPDEST SWAP4 POP PUSH1 0x20 DUP6 ADD CALLDATALOAD PUSH2 0x12F5 DUP2 PUSH2 0x11FE JUMP JUMPDEST SWAP4 SWAP7 SWAP4 SWAP6 POP POP POP POP PUSH1 0x40 DUP3 ADD CALLDATALOAD SWAP2 PUSH1 0x60 ADD CALLDATALOAD SWAP1 JUMP JUMPDEST PUSH4 0x4E487B71 PUSH1 0xE0 SHL PUSH1 0x0 MSTORE PUSH1 0x11 PUSH1 0x4 MSTORE PUSH1 0x24 PUSH1 0x0 REVERT JUMPDEST PUSH1 0x0 DUP2 PUSH1 0x0 NOT DIV DUP4 GT DUP3 ISZERO ISZERO AND ISZERO PUSH2 0x133A JUMPI PUSH2 0x133A PUSH2 0x130A JUMP JUMPDEST POP MUL SWAP1 JUMP JUMPDEST PUSH1 0x0 DUP3 PUSH2 0x135C JUMPI PUSH4 0x4E487B71 PUSH1 0xE0 SHL PUSH1 0x0 MSTORE PUSH1 0x12 PUSH1 0x4 MSTORE PUSH1 0x24 PUSH1 0x0 REVERT JUMPDEST POP DIV SWAP1 JUMP JUMPDEST PUSH1 0x0 PUSH1 0x20 DUP3 DUP5 SUB SLT ISZERO PUSH2 0x1373 JUMPI PUSH1 0x0 DUP1 REVERT JUMPDEST DUP2 MLOAD PUSH2 0xDA5 DUP2 PUSH2 0x11FE JUMP JUMPDEST PUSH1 0x0 PUSH1 0x20 DUP3 DUP5 SUB SLT ISZERO PUSH2 0x1390 JUMPI PUSH1 0x0 DUP1 REVERT JUMPDEST POP MLOAD SWAP2 SWAP1 POP JUMP JUMPDEST PUSH1 0x1 PUSH1 0x1 PUSH1 0xA0 SHL SUB SWAP4 DUP5 AND DUP2 MSTORE SWAP2 SWAP1 SWAP3 AND PUSH1 0x20 DUP3 ADD MSTORE PUSH1 0x40 DUP2 ADD SWAP2 SWAP1 SWAP2 MSTORE PUSH1 0x60 ADD SWAP1 JUMP JUMPDEST PUSH1 0x0 PUSH1 0x20 DUP3 DUP5 SUB SLT ISZERO PUSH2 0x13CD JUMPI PUSH1 0x0 DUP1 REVERT JUMPDEST DUP2 MLOAD DUP1 ISZERO ISZERO DUP2 EQ PUSH2 0xDA5 JUMPI PUSH1 0x0 DUP1 REVERT JUMPDEST PUSH1 0x0 DUP3 NOT DUP3 GT ISZERO PUSH2 0x13F0 JUMPI PUSH2 0x13F0 PUSH2 0x130A JUMP JUMPDEST POP ADD SWAP1 JUMP JUMPDEST PUSH1 0x0 DUP3 DUP3 LT ISZERO PUSH2 0x1407 JUMPI PUSH2 0x1407 PUSH2 0x130A JUMP JUMPDEST POP SUB SWAP1 JUMP INVALID LOG2 PUSH5 0x6970667358 0x22 SLT KECCAK256 GAS 0x22 0xC 0xD4 PC CREATE2 CALLVALUE 0xEB SWAP13 0xEE SELFDESTRUCT SAR 0xBB PUSH30 0x1C877E2F0CFEE5ED561D5E743FFCCEE4E85764736F6C634300080A0033A2 PUSH5 0x6970667358 0x22 SLT KECCAK256 PUSH31 0xD9FD14990F219E30FCF50C8AEC9DC1E6E1ED14259680C043AA544D8313A340 PUSH5 0x736F6C6343 STOP ADDMOD EXP STOP CALLER ","sha1":"959c206da7d0b185feaf832e7a91ff5f0abb70fd","source":"// contracts/AstroSwapFactory.sol\n// SPDX-License-Identifier: MIT\npragma solidity ^0.8.0;\n\nimport \"./AstroSwapExchange.sol\";\nimport \"@openzeppelin/contracts/token/ERC20/IERC20.sol\";\n\n// Almost directly taken from https://github.com/Uniswap/old-solidity-contracts/blob/master/contracts/Exchange/UniswapFactory.sol\ncontract AstroSwapFactory {\n    uint256 public feeRate;\n    uint256 public exchangeCount;\n    mapping(address => address) public tokenToExchange;\n    mapping(address => address) public exchangeToToken;\n\n    event TokenExchangeAdded(address indexed tokenExchange, address indexed tokenAddress);\n\n    constructor(uint256 _fee) {\n        feeRate = _fee;\n    }\n\n    function convertTokenToExchange(address token) public view returns (address exchange) {\n        return tokenToExchange[token];\n    }\n\n    function convertExchangeToToken(address exchange) public view returns (address token) {\n        return exchangeToToken[exchange];\n    }\n\n    function addTokenExchange(address tokenAddress) public {\n        require(tokenToExchange[tokenAddress] == address(0), \"Allready added\");\n        require(tokenAddress != address(0));\n        AstroSwapExchange exchange = new AstroSwapExchange(IERC20(tokenAddress), feeRate);\n        exchangeCount++;\n        tokenToExchange[tokenAddress] = address(exchange);\n        exchangeToToken[address(exchange)] = tokenAddress;\n        emit TokenExchangeAdded(address(exchange), tokenAddress);\n    }\n}","sourcePath":"contracts/AstroSwapFactory.sol","type":"contract","deployment":{"address":"0xb93c0c7C263efb6350Fb89F7c1F11D4Ce45B7e9E","chainid":"4","blockHeight":10072506}}